{
	"data": {
		"bytecode": {
			"linkReferences": {},
			"object": "60c06040526001600960006101000a81548160ff02191690831515021790555060405180606001604052806040518060800160405280605081526020016200349560509139815260200160405180608001604052806050815260200162003535605091398152602001604051806080016040528060508152602001620034e560509139815250600b90600362000097929190620001aa565b50348015620000a557600080fd5b5060405162003585380380620035858339818101604052810190620000cb9190620002db565b6040518060400160405280600481526020017f644e4654000000000000000000000000000000000000000000000000000000008152506040518060400160405280600481526020017f415249320000000000000000000000000000000000000000000000000000000081525081600090816200014891906200059c565b5080600190816200015a91906200059c565b5050508161ffff1660808161ffff16815250508061ffff1660a08161ffff16815250506000600760006101000a81548161ffff021916908361ffff16021790555042600881905550505062000683565b828054828255906000526020600020908101928215620001f7579160200282015b82811115620001f6578251829081620001e591906200059c565b5091602001919060010190620001cb565b5b5090506200020691906200020a565b5090565b5b808211156200022e576000818162000224919062000232565b506001016200020b565b5090565b50805462000240906200038b565b6000825580601f1062000254575062000275565b601f01602090049060005260206000209081019062000274919062000278565b5b50565b5b808211156200029357600081600090555060010162000279565b5090565b600080fd5b600061ffff82169050919050565b620002b5816200029c565b8114620002c157600080fd5b50565b600081519050620002d581620002aa565b92915050565b60008060408385031215620002f557620002f462000297565b5b60006200030585828601620002c4565b92505060206200031885828601620002c4565b9150509250929050565b600081519050919050565b7f4e487b7100000000000000000000000000000000000000000000000000000000600052604160045260246000fd5b7f4e487b7100000000000000000000000000000000000000000000000000000000600052602260045260246000fd5b60006002820490506001821680620003a457607f821691505b602082108103620003ba57620003b96200035c565b5b50919050565b60008190508160005260206000209050919050565b60006020601f8301049050919050565b600082821b905092915050565b600060088302620004247fffffffffffffffffffffffffffffffffffffffffffffffffffffffffffffffff82620003e5565b620004308683620003e5565b95508019841693508086168417925050509392505050565b6000819050919050565b6000819050919050565b60006200047d62000477620004718462000448565b62000452565b62000448565b9050919050565b6000819050919050565b62000499836200045c565b620004b1620004a88262000484565b848454620003f2565b825550505050565b600090565b620004c8620004b9565b620004d58184846200048e565b505050565b5b81811015620004fd57620004f1600082620004be565b600181019050620004db565b5050565b601f8211156200054c576200051681620003c0565b6200052184620003d5565b8101602085101562000531578190505b620005496200054085620003d5565b830182620004da565b50505b505050565b600082821c905092915050565b6000620005716000198460080262000551565b1980831691505092915050565b60006200058c83836200055e565b9150826002028217905092915050565b620005a78262000322565b67ffffffffffffffff811115620005c357620005c26200032d565b5b620005cf82546200038b565b620005dc82828562000501565b600060209050601f831160018114620006145760008415620005ff578287015190505b6200060b85826200057e565b8655506200067b565b601f1984166200062486620003c0565b60005b828110156200064e5784890151825560018201915060208501945060208101905062000627565b868310156200066e57848901516200066a601f8916826200055e565b8355505b6001600288020188555050505b505050505050565b60805160a051612dde620006b760003960006108e701526000818161093101528181610a080152610b100152612dde6000f3fe608060405234801561001057600080fd5b50600436106101735760003560e01c80636352211e116100de578063997e97ee11610097578063c87b56dd11610071578063c87b56dd1461044d578063d204c45e1461047d578063d61e720114610499578063e985e9c5146104b557610173565b8063997e97ee146103e5578063a22cb46514610415578063b88d4fde1461043157610173565b80636352211e146102fa5780636e04ff0d1461032a57806370a082311461035b57806384c4bd4b1461038b578063947a36fb146103a957806395d89b41146103c757610173565b80632074d35c116101305780632074d35c1461026057806323b872dd1461026a57806338641d6a146102865780633f3b3b27146102a457806342842e0e146102c25780634585e33b146102de57610173565b806301ffc9a71461017857806306fdde03146101a8578063081812fc146101c6578063095ea7b3146101f65780630ca1c5c9146102125780631866173114610230575b600080fd5b610192600480360381019061018d9190611c55565b6104e5565b60405161019f9190611c9d565b60405180910390f35b6101b06105c7565b6040516101bd9190611d48565b60405180910390f35b6101e060048036038101906101db9190611da0565b610659565b6040516101ed9190611e0e565b60405180910390f35b610210600480360381019061020b9190611e55565b61069f565b005b61021a6107b6565b6040516102279190611ea4565b60405180910390f35b61024a60048036038101906102459190611da0565b6107d2565b6040516102579190611ea4565b60405180910390f35b610268610847565b005b610284600480360381019061027f9190611ebf565b610885565b005b61028e6108e5565b60405161029b9190611f2f565b60405180910390f35b6102ac610909565b6040516102b99190611ea4565b60405180910390f35b6102dc60048036038101906102d79190611ebf565b61090f565b005b6102f860048036038101906102f39190611faf565b61092f565b005b610314600480360381019061030f9190611da0565b61097c565b6040516103219190611e0e565b60405180910390f35b610344600480360381019061033f9190611faf565b610a02565b604051610352929190612051565b60405180910390f35b61037560048036038101906103709190612081565b610a43565b6040516103829190611ea4565b60405180910390f35b610393610afa565b6040516103a09190611f2f565b60405180910390f35b6103b1610b0e565b6040516103be9190611f2f565b60405180910390f35b6103cf610b32565b6040516103dc9190611d48565b60405180910390f35b6103ff60048036038101906103fa9190611da0565b610bc4565b60405161040c9190611d48565b60405180910390f35b61042f600480360381019061042a91906120da565b610cd4565b005b61044b6004803603810190610446919061224a565b610cea565b005b61046760048036038101906104629190611da0565b610d4c565b6040516104749190611d48565b60405180910390f35b6104976004803603810190610492919061236e565b610db6565b005b6104b360048036038101906104ae9190611da0565b610f1d565b005b6104cf60048036038101906104ca91906123ca565b610fbf565b6040516104dc9190611c9d565b60405180910390f35b60007f80ac58cd000000000000000000000000000000000000000000000000000000007bffffffffffffffffffffffffffffffffffffffffffffffffffffffff1916827bffffffffffffffffffffffffffffffffffffffffffffffffffffffff191614806105b057507f5b5e139f000000000000000000000000000000000000000000000000000000007bffffffffffffffffffffffffffffffffffffffffffffffffffffffff1916827bffffffffffffffffffffffffffffffffffffffffffffffffffffffff1916145b806105c057506105bf82611053565b5b9050919050565b6060600080546105d690612439565b80601f016020809104026020016040519081016040528092919081815260200182805461060290612439565b801561064f5780601f106106245761010080835404028352916020019161064f565b820191906000526020600020905b81548152906001019060200180831161063257829003601f168201915b5050505050905090565b6000610664826110bd565b6004600083815260200190815260200160002060009054906101000a900473ffffffffffffffffffffffffffffffffffffffff169050919050565b60006106aa8261097c565b90508073ffffffffffffffffffffffffffffffffffffffff168373ffffffffffffffffffffffffffffffffffffffff160361071a576040517f08c379a0000000000000000000000000000000000000000000000000000000008152600401610711906124dc565b60405180910390fd5b8073ffffffffffffffffffffffffffffffffffffffff16610739611108565b73ffffffffffffffffffffffffffffffffffffffff161480610768575061076781610762611108565b610fbf565b5b6107a7576040517f08c379a000000000000000000000000000000000000000000000000000000000815260040161079e9061256e565b60405180910390fd5b6107b18383611110565b505050565b6000600760009054906101000a900461ffff1661ffff16905090565b600081600760009054906101000a900461ffff1661ffff16811061082b576040517f08c379a0000000000000000000000000000000000000000000000000000000008152600401610822906125da565b60405180910390fd5b600a600084815260200190815260200160002054915050919050565b60005b600760009054906101000a900461ffff1661ffff168110156108825761086f81610f1d565b808061087a90612629565b91505061084a565b50565b610896610890611108565b826111c9565b6108d5576040517f08c379a00000000000000000000000000000000000000000000000000000000081526004016108cc906126e3565b60405180910390fd5b6108e083838361125e565b505050565b7f000000000000000000000000000000000000000000000000000000000000000081565b60085481565b61092a83838360405180602001604052806000815250610cea565b505050565b7f000000000000000000000000000000000000000000000000000000000000000061ffff16600854426109629190612703565b11156109785742600881905550610977610847565b5b5050565b60008061098883611557565b9050600073ffffffffffffffffffffffffffffffffffffffff168173ffffffffffffffffffffffffffffffffffffffff16036109f9576040517f08c379a00000000000000000000000000000000000000000000000000000000081526004016109f090612783565b60405180910390fd5b80915050919050565b600060607f000000000000000000000000000000000000000000000000000000000000000061ffff1660085442610a399190612703565b1191509250929050565b60008073ffffffffffffffffffffffffffffffffffffffff168273ffffffffffffffffffffffffffffffffffffffff1603610ab3576040517f08c379a0000000000000000000000000000000000000000000000000000000008152600401610aaa90612815565b60405180910390fd5b600360008373ffffffffffffffffffffffffffffffffffffffff1673ffffffffffffffffffffffffffffffffffffffff168152602001908152602001600020549050919050565b600760009054906101000a900461ffff1681565b7f000000000000000000000000000000000000000000000000000000000000000081565b606060018054610b4190612439565b80601f0160208091040260200160405190810160405280929190818152602001828054610b6d90612439565b8015610bba5780601f10610b8f57610100808354040283529160200191610bba565b820191906000526020600020905b815481529060010190602001808311610b9d57829003601f168201915b5050505050905090565b606081600760009054906101000a900461ffff1661ffff168110610c1d576040517f08c379a0000000000000000000000000000000000000000000000000000000008152600401610c14906125da565b60405180910390fd5b600b610c28846107d2565b81548110610c3957610c38612835565b5b906000526020600020018054610c4e90612439565b80601f0160208091040260200160405190810160405280929190818152602001828054610c7a90612439565b8015610cc75780601f10610c9c57610100808354040283529160200191610cc7565b820191906000526020600020905b815481529060010190602001808311610caa57829003601f168201915b5050505050915050919050565b610ce6610cdf611108565b8383611594565b5050565b610cfb610cf5611108565b836111c9565b610d3a576040517f08c379a0000000000000000000000000000000000000000000000000000000008152600401610d31906126e3565b60405180910390fd5b610d4684848484611700565b50505050565b606081600760009054906101000a900461ffff1661ffff168110610da5576040517f08c379a0000000000000000000000000000000000000000000000000000000008152600401610d9c906125da565b60405180910390fd5b610dae83610bc4565b915050919050565b600960009054906101000a900460ff16610e05576040517f08c379a0000000000000000000000000000000000000000000000000000000008152600401610dfc906128d6565b60405180910390fd5b6103e8600760009054906101000a900461ffff1661ffff1610610e5d576040517f08c379a0000000000000000000000000000000000000000000000000000000008152600401610e5490612942565b60405180910390fd5b6000600960006101000a81548160ff021916908315150217905550610e9682600760009054906101000a900461ffff1661ffff1661175c565b6000600a6000600760009054906101000a900461ffff1661ffff168152602001908152602001600020819055506007600081819054906101000a900461ffff1680929190610ee390612962565b91906101000a81548161ffff021916908361ffff160217905550506001600960006101000a81548160ff0219169083151502179055505050565b80600760009054906101000a900461ffff1661ffff168110610f74576040517f08c379a0000000000000000000000000000000000000000000000000000000008152600401610f6b906125da565b60405180910390fd5b600b805490506001600a600085815260200190815260200160002054610f9a919061298c565b610fa491906129ef565b600a6000848152602001908152602001600020819055505050565b6000600560008473ffffffffffffffffffffffffffffffffffffffff1673ffffffffffffffffffffffffffffffffffffffff16815260200190815260200160002060008373ffffffffffffffffffffffffffffffffffffffff1673ffffffffffffffffffffffffffffffffffffffff16815260200190815260200160002060009054906101000a900460ff16905092915050565b60007f01ffc9a7000000000000000000000000000000000000000000000000000000007bffffffffffffffffffffffffffffffffffffffffffffffffffffffff1916827bffffffffffffffffffffffffffffffffffffffffffffffffffffffff1916149050919050565b6110c68161177a565b611105576040517f08c379a00000000000000000000000000000000000000000000000000000000081526004016110fc90612783565b60405180910390fd5b50565b600033905090565b816004600083815260200190815260200160002060006101000a81548173ffffffffffffffffffffffffffffffffffffffff021916908373ffffffffffffffffffffffffffffffffffffffff160217905550808273ffffffffffffffffffffffffffffffffffffffff166111838361097c565b73ffffffffffffffffffffffffffffffffffffffff167f8c5be1e5ebec7d5bd14f71427d1e84f3dd0314c0f7b2291e5b200ac8c7c3b92560405160405180910390a45050565b6000806111d58361097c565b90508073ffffffffffffffffffffffffffffffffffffffff168473ffffffffffffffffffffffffffffffffffffffff16148061121757506112168185610fbf565b5b8061125557508373ffffffffffffffffffffffffffffffffffffffff1661123d84610659565b73ffffffffffffffffffffffffffffffffffffffff16145b91505092915050565b8273ffffffffffffffffffffffffffffffffffffffff1661127e8261097c565b73ffffffffffffffffffffffffffffffffffffffff16146112d4576040517f08c379a00000000000000000000000000000000000000000000000000000000081526004016112cb90612a92565b60405180910390fd5b600073ffffffffffffffffffffffffffffffffffffffff168273ffffffffffffffffffffffffffffffffffffffff1603611343576040517f08c379a000000000000000000000000000000000000000000000000000000000815260040161133a90612b24565b60405180910390fd5b61135083838360016117bb565b8273ffffffffffffffffffffffffffffffffffffffff166113708261097c565b73ffffffffffffffffffffffffffffffffffffffff16146113c6576040517f08c379a00000000000000000000000000000000000000000000000000000000081526004016113bd90612a92565b60405180910390fd5b6004600082815260200190815260200160002060006101000a81549073ffffffffffffffffffffffffffffffffffffffff02191690556001600360008573ffffffffffffffffffffffffffffffffffffffff1673ffffffffffffffffffffffffffffffffffffffff168152602001908152602001600020600082825403925050819055506001600360008473ffffffffffffffffffffffffffffffffffffffff1673ffffffffffffffffffffffffffffffffffffffff16815260200190815260200160002060008282540192505081905550816002600083815260200190815260200160002060006101000a81548173ffffffffffffffffffffffffffffffffffffffff021916908373ffffffffffffffffffffffffffffffffffffffff160217905550808273ffffffffffffffffffffffffffffffffffffffff168473ffffffffffffffffffffffffffffffffffffffff167fddf252ad1be2c89b69c2b068fc378daa952ba7f163c4a11628f55a4df523b3ef60405160405180910390a461155283838360016117c1565b505050565b60006002600083815260200190815260200160002060009054906101000a900473ffffffffffffffffffffffffffffffffffffffff169050919050565b8173ffffffffffffffffffffffffffffffffffffffff168373ffffffffffffffffffffffffffffffffffffffff1603611602576040517f08c379a00000000000000000000000000000000000000000000000000000000081526004016115f990612b90565b60405180910390fd5b80600560008573ffffffffffffffffffffffffffffffffffffffff1673ffffffffffffffffffffffffffffffffffffffff16815260200190815260200160002060008473ffffffffffffffffffffffffffffffffffffffff1673ffffffffffffffffffffffffffffffffffffffff16815260200190815260200160002060006101000a81548160ff0219169083151502179055508173ffffffffffffffffffffffffffffffffffffffff168373ffffffffffffffffffffffffffffffffffffffff167f17307eab39ab6107e8899845ad3d59bd9653f200f220920489ca2b5937696c31836040516116f39190611c9d565b60405180910390a3505050565b61170b84848461125e565b611717848484846117c7565b611756576040517f08c379a000000000000000000000000000000000000000000000000000000000815260040161174d90612c22565b60405180910390fd5b50505050565b61177682826040518060200160405280600081525061194e565b5050565b60008073ffffffffffffffffffffffffffffffffffffffff1661179c83611557565b73ffffffffffffffffffffffffffffffffffffffff1614159050919050565b50505050565b50505050565b60006117e88473ffffffffffffffffffffffffffffffffffffffff166119a9565b15611941578373ffffffffffffffffffffffffffffffffffffffff1663150b7a02611811611108565b8786866040518563ffffffff1660e01b81526004016118339493929190612c42565b6020604051808303816000875af192505050801561186f57506040513d601f19601f8201168201806040525081019061186c9190612ca3565b60015b6118f1573d806000811461189f576040519150601f19603f3d011682016040523d82523d6000602084013e6118a4565b606091505b5060008151036118e9576040517f08c379a00000000000000000000000000000000000000000000000000000000081526004016118e090612c22565b60405180910390fd5b805181602001fd5b63150b7a0260e01b7bffffffffffffffffffffffffffffffffffffffffffffffffffffffff1916817bffffffffffffffffffffffffffffffffffffffffffffffffffffffff191614915050611946565b600190505b949350505050565b61195883836119cc565b61196560008484846117c7565b6119a4576040517f08c379a000000000000000000000000000000000000000000000000000000000815260040161199b90612c22565b60405180910390fd5b505050565b6000808273ffffffffffffffffffffffffffffffffffffffff163b119050919050565b600073ffffffffffffffffffffffffffffffffffffffff168273ffffffffffffffffffffffffffffffffffffffff1603611a3b576040517f08c379a0000000000000000000000000000000000000000000000000000000008152600401611a3290612d1c565b60405180910390fd5b611a448161177a565b15611a84576040517f08c379a0000000000000000000000000000000000000000000000000000000008152600401611a7b90612d88565b60405180910390fd5b611a926000838360016117bb565b611a9b8161177a565b15611adb576040517f08c379a0000000000000000000000000000000000000000000000000000000008152600401611ad290612d88565b60405180910390fd5b6001600360008473ffffffffffffffffffffffffffffffffffffffff1673ffffffffffffffffffffffffffffffffffffffff16815260200190815260200160002060008282540192505081905550816002600083815260200190815260200160002060006101000a81548173ffffffffffffffffffffffffffffffffffffffff021916908373ffffffffffffffffffffffffffffffffffffffff160217905550808273ffffffffffffffffffffffffffffffffffffffff16600073ffffffffffffffffffffffffffffffffffffffff167fddf252ad1be2c89b69c2b068fc378daa952ba7f163c4a11628f55a4df523b3ef60405160405180910390a4611be56000838360016117c1565b5050565b6000604051905090565b600080fd5b600080fd5b60007fffffffff0000000000000000000000000000000000000000000000000000000082169050919050565b611c3281611bfd565b8114611c3d57600080fd5b50565b600081359050611c4f81611c29565b92915050565b600060208284031215611c6b57611c6a611bf3565b5b6000611c7984828501611c40565b91505092915050565b60008115159050919050565b611c9781611c82565b82525050565b6000602082019050611cb26000830184611c8e565b92915050565b600081519050919050565b600082825260208201905092915050565b60005b83811015611cf2578082015181840152602081019050611cd7565b60008484015250505050565b6000601f19601f8301169050919050565b6000611d1a82611cb8565b611d248185611cc3565b9350611d34818560208601611cd4565b611d3d81611cfe565b840191505092915050565b60006020820190508181036000830152611d628184611d0f565b905092915050565b6000819050919050565b611d7d81611d6a565b8114611d8857600080fd5b50565b600081359050611d9a81611d74565b92915050565b600060208284031215611db657611db5611bf3565b5b6000611dc484828501611d8b565b91505092915050565b600073ffffffffffffffffffffffffffffffffffffffff82169050919050565b6000611df882611dcd565b9050919050565b611e0881611ded565b82525050565b6000602082019050611e236000830184611dff565b92915050565b611e3281611ded565b8114611e3d57600080fd5b50565b600081359050611e4f81611e29565b92915050565b60008060408385031215611e6c57611e6b611bf3565b5b6000611e7a85828601611e40565b9250506020611e8b85828601611d8b565b9150509250929050565b611e9e81611d6a565b82525050565b6000602082019050611eb96000830184611e95565b92915050565b600080600060608486031215611ed857611ed7611bf3565b5b6000611ee686828701611e40565b9350506020611ef786828701611e40565b9250506040611f0886828701611d8b565b9150509250925092565b600061ffff82169050919050565b611f2981611f12565b82525050565b6000602082019050611f446000830184611f20565b92915050565b600080fd5b600080fd5b600080fd5b60008083601f840112611f6f57611f6e611f4a565b5b8235905067ffffffffffffffff811115611f8c57611f8b611f4f565b5b602083019150836001820283011115611fa857611fa7611f54565b5b9250929050565b60008060208385031215611fc657611fc5611bf3565b5b600083013567ffffffffffffffff811115611fe457611fe3611bf8565b5b611ff085828601611f59565b92509250509250929050565b600081519050919050565b600082825260208201905092915050565b600061202382611ffc565b61202d8185612007565b935061203d818560208601611cd4565b61204681611cfe565b840191505092915050565b60006040820190506120666000830185611c8e565b81810360208301526120788184612018565b90509392505050565b60006020828403121561209757612096611bf3565b5b60006120a584828501611e40565b91505092915050565b6120b781611c82565b81146120c257600080fd5b50565b6000813590506120d4816120ae565b92915050565b600080604083850312156120f1576120f0611bf3565b5b60006120ff85828601611e40565b9250506020612110858286016120c5565b9150509250929050565b600080fd5b7f4e487b7100000000000000000000000000000000000000000000000000000000600052604160045260246000fd5b61215782611cfe565b810181811067ffffffffffffffff821117156121765761217561211f565b5b80604052505050565b6000612189611be9565b9050612195828261214e565b919050565b600067ffffffffffffffff8211156121b5576121b461211f565b5b6121be82611cfe565b9050602081019050919050565b82818337600083830152505050565b60006121ed6121e88461219a565b61217f565b9050828152602081018484840111156122095761220861211a565b5b6122148482856121cb565b509392505050565b600082601f83011261223157612230611f4a565b5b81356122418482602086016121da565b91505092915050565b6000806000806080858703121561226457612263611bf3565b5b600061227287828801611e40565b945050602061228387828801611e40565b935050604061229487828801611d8b565b925050606085013567ffffffffffffffff8111156122b5576122b4611bf8565b5b6122c18782880161221c565b91505092959194509250565b600067ffffffffffffffff8211156122e8576122e761211f565b5b6122f182611cfe565b9050602081019050919050565b600061231161230c846122cd565b61217f565b90508281526020810184848401111561232d5761232c61211a565b5b6123388482856121cb565b509392505050565b600082601f83011261235557612354611f4a565b5b81356123658482602086016122fe565b91505092915050565b6000806040838503121561238557612384611bf3565b5b600061239385828601611e40565b925050602083013567ffffffffffffffff8111156123b4576123b3611bf8565b5b6123c085828601612340565b9150509250929050565b600080604083850312156123e1576123e0611bf3565b5b60006123ef85828601611e40565b925050602061240085828601611e40565b9150509250929050565b7f4e487b7100000000000000000000000000000000000000000000000000000000600052602260045260246000fd5b6000600282049050600182168061245157607f821691505b6020821081036124645761246361240a565b5b50919050565b7f4552433732313a20617070726f76616c20746f2063757272656e74206f776e6560008201527f7200000000000000000000000000000000000000000000000000000000000000602082015250565b60006124c6602183611cc3565b91506124d18261246a565b604082019050919050565b600060208201905081810360008301526124f5816124b9565b9050919050565b7f4552433732313a20617070726f76652063616c6c6572206973206e6f7420746f60008201527f6b656e206f776e6572206f7220617070726f76656420666f7220616c6c000000602082015250565b6000612558603d83611cc3565b9150612563826124fc565b604082019050919050565b600060208201905081810360008301526125878161254b565b9050919050565b7f4572726f7220746f6b656e204944000000000000000000000000000000000000600082015250565b60006125c4600e83611cc3565b91506125cf8261258e565b602082019050919050565b600060208201905081810360008301526125f3816125b7565b9050919050565b7f4e487b7100000000000000000000000000000000000000000000000000000000600052601160045260246000fd5b600061263482611d6a565b91507fffffffffffffffffffffffffffffffffffffffffffffffffffffffffffffffff8203612666576126656125fa565b5b600182019050919050565b7f4552433732313a2063616c6c6572206973206e6f7420746f6b656e206f776e6560008201527f72206f7220617070726f76656400000000000000000000000000000000000000602082015250565b60006126cd602d83611cc3565b91506126d882612671565b604082019050919050565b600060208201905081810360008301526126fc816126c0565b9050919050565b600061270e82611d6a565b915061271983611d6a565b9250828203905081811115612731576127306125fa565b5b92915050565b7f4552433732313a20696e76616c696420746f6b656e2049440000000000000000600082015250565b600061276d601883611cc3565b915061277882612737565b602082019050919050565b6000602082019050818103600083015261279c81612760565b9050919050565b7f4552433732313a2061646472657373207a65726f206973206e6f74206120766160008201527f6c6964206f776e65720000000000000000000000000000000000000000000000602082015250565b60006127ff602983611cc3565b915061280a826127a3565b604082019050919050565b6000602082019050818103600083015261282e816127f2565b9050919050565b7f4e487b7100000000000000000000000000000000000000000000000000000000600052603260045260246000fd5b7f526564206d757920636f6e637572726964612c20696e74656e746520656e207560008201527f6e207261746f0000000000000000000000000000000000000000000000000000602082015250565b60006128c0602683611cc3565b91506128cb82612864565b604082019050919050565b600060208201905081810360008301526128ef816128b3565b9050919050565b7f4e6f2073652070756564656e206d696e74656172206d6173204e465400000000600082015250565b600061292c601c83611cc3565b9150612937826128f6565b602082019050919050565b6000602082019050818103600083015261295b8161291f565b9050919050565b600061296d82611f12565b915061ffff8203612981576129806125fa565b5b600182019050919050565b600061299782611d6a565b91506129a283611d6a565b92508282019050808211156129ba576129b96125fa565b5b92915050565b7f4e487b7100000000000000000000000000000000000000000000000000000000600052601260045260246000fd5b60006129fa82611d6a565b9150612a0583611d6a565b925082612a1557612a146129c0565b5b828206905092915050565b7f4552433732313a207472616e736665722066726f6d20696e636f72726563742060008201527f6f776e6572000000000000000000000000000000000000000000000000000000602082015250565b6000612a7c602583611cc3565b9150612a8782612a20565b604082019050919050565b60006020820190508181036000830152612aab81612a6f565b9050919050565b7f4552433732313a207472616e7366657220746f20746865207a65726f2061646460008201527f7265737300000000000000000000000000000000000000000000000000000000602082015250565b6000612b0e602483611cc3565b9150612b1982612ab2565b604082019050919050565b60006020820190508181036000830152612b3d81612b01565b9050919050565b7f4552433732313a20617070726f766520746f2063616c6c657200000000000000600082015250565b6000612b7a601983611cc3565b9150612b8582612b44565b602082019050919050565b60006020820190508181036000830152612ba981612b6d565b9050919050565b7f4552433732313a207472616e7366657220746f206e6f6e20455243373231526560008201527f63656976657220696d706c656d656e7465720000000000000000000000000000602082015250565b6000612c0c603283611cc3565b9150612c1782612bb0565b604082019050919050565b60006020820190508181036000830152612c3b81612bff565b9050919050565b6000608082019050612c576000830187611dff565b612c646020830186611dff565b612c716040830185611e95565b8181036060830152612c838184612018565b905095945050505050565b600081519050612c9d81611c29565b92915050565b600060208284031215612cb957612cb8611bf3565b5b6000612cc784828501612c8e565b91505092915050565b7f4552433732313a206d696e7420746f20746865207a65726f2061646472657373600082015250565b6000612d06602083611cc3565b9150612d1182612cd0565b602082019050919050565b60006020820190508181036000830152612d3581612cf9565b9050919050565b7f4552433732313a20746f6b656e20616c7265616479206d696e74656400000000600082015250565b6000612d72601c83611cc3565b9150612d7d82612d3c565b602082019050919050565b60006020820190508181036000830152612da181612d65565b905091905056fea2646970667358221220081017d291958ac255093aec79f4e039de6c947ed369a9ece204bab575da3c7664736f6c6343000812003368747470733a2f2f697066732e696f2f697066732f516d57584a7354656a5034363838645a66657248523437357555506b3161584632334d4a4c5a5355506a6876634b2f73746174655f302e6a736f6e68747470733a2f2f697066732e696f2f697066732f516d57584a7354656a5034363838645a66657248523437357555506b3161584632334d4a4c5a5355506a6876634b2f73746174655f322e6a736f6e68747470733a2f2f697066732e696f2f697066732f516d57584a7354656a5034363838645a66657248523437357555506b3161584632334d4a4c5a5355506a6876634b2f73746174655f312e6a736f6e",
			"opcodes": "PUSH1 0xC0 PUSH1 0x40 MSTORE PUSH1 0x1 PUSH1 0x9 PUSH1 0x0 PUSH2 0x100 EXP DUP2 SLOAD DUP2 PUSH1 0xFF MUL NOT AND SWAP1 DUP4 ISZERO ISZERO MUL OR SWAP1 SSTORE POP PUSH1 0x40 MLOAD DUP1 PUSH1 0x60 ADD PUSH1 0x40 MSTORE DUP1 PUSH1 0x40 MLOAD DUP1 PUSH1 0x80 ADD PUSH1 0x40 MSTORE DUP1 PUSH1 0x50 DUP2 MSTORE PUSH1 0x20 ADD PUSH3 0x3495 PUSH1 0x50 SWAP2 CODECOPY DUP2 MSTORE PUSH1 0x20 ADD PUSH1 0x40 MLOAD DUP1 PUSH1 0x80 ADD PUSH1 0x40 MSTORE DUP1 PUSH1 0x50 DUP2 MSTORE PUSH1 0x20 ADD PUSH3 0x3535 PUSH1 0x50 SWAP2 CODECOPY DUP2 MSTORE PUSH1 0x20 ADD PUSH1 0x40 MLOAD DUP1 PUSH1 0x80 ADD PUSH1 0x40 MSTORE DUP1 PUSH1 0x50 DUP2 MSTORE PUSH1 0x20 ADD PUSH3 0x34E5 PUSH1 0x50 SWAP2 CODECOPY DUP2 MSTORE POP PUSH1 0xB SWAP1 PUSH1 0x3 PUSH3 0x97 SWAP3 SWAP2 SWAP1 PUSH3 0x1AA JUMP JUMPDEST POP CALLVALUE DUP1 ISZERO PUSH3 0xA5 JUMPI PUSH1 0x0 DUP1 REVERT JUMPDEST POP PUSH1 0x40 MLOAD PUSH3 0x3585 CODESIZE SUB DUP1 PUSH3 0x3585 DUP4 CODECOPY DUP2 DUP2 ADD PUSH1 0x40 MSTORE DUP2 ADD SWAP1 PUSH3 0xCB SWAP2 SWAP1 PUSH3 0x2DB JUMP JUMPDEST PUSH1 0x40 MLOAD DUP1 PUSH1 0x40 ADD PUSH1 0x40 MSTORE DUP1 PUSH1 0x4 DUP2 MSTORE PUSH1 0x20 ADD PUSH32 0x644E465400000000000000000000000000000000000000000000000000000000 DUP2 MSTORE POP PUSH1 0x40 MLOAD DUP1 PUSH1 0x40 ADD PUSH1 0x40 MSTORE DUP1 PUSH1 0x4 DUP2 MSTORE PUSH1 0x20 ADD PUSH32 0x4152493200000000000000000000000000000000000000000000000000000000 DUP2 MSTORE POP DUP2 PUSH1 0x0 SWAP1 DUP2 PUSH3 0x148 SWAP2 SWAP1 PUSH3 0x59C JUMP JUMPDEST POP DUP1 PUSH1 0x1 SWAP1 DUP2 PUSH3 0x15A SWAP2 SWAP1 PUSH3 0x59C JUMP JUMPDEST POP POP POP DUP2 PUSH2 0xFFFF AND PUSH1 0x80 DUP2 PUSH2 0xFFFF AND DUP2 MSTORE POP POP DUP1 PUSH2 0xFFFF AND PUSH1 0xA0 DUP2 PUSH2 0xFFFF AND DUP2 MSTORE POP POP PUSH1 0x0 PUSH1 0x7 PUSH1 0x0 PUSH2 0x100 EXP DUP2 SLOAD DUP2 PUSH2 0xFFFF MUL NOT AND SWAP1 DUP4 PUSH2 0xFFFF AND MUL OR SWAP1 SSTORE POP TIMESTAMP PUSH1 0x8 DUP2 SWAP1 SSTORE POP POP POP PUSH3 0x683 JUMP JUMPDEST DUP3 DUP1 SLOAD DUP3 DUP3 SSTORE SWAP1 PUSH1 0x0 MSTORE PUSH1 0x20 PUSH1 0x0 KECCAK256 SWAP1 DUP2 ADD SWAP3 DUP3 ISZERO PUSH3 0x1F7 JUMPI SWAP2 PUSH1 0x20 MUL DUP3 ADD JUMPDEST DUP3 DUP2 GT ISZERO PUSH3 0x1F6 JUMPI DUP3 MLOAD DUP3 SWAP1 DUP2 PUSH3 0x1E5 SWAP2 SWAP1 PUSH3 0x59C JUMP JUMPDEST POP SWAP2 PUSH1 0x20 ADD SWAP2 SWAP1 PUSH1 0x1 ADD SWAP1 PUSH3 0x1CB JUMP JUMPDEST JUMPDEST POP SWAP1 POP PUSH3 0x206 SWAP2 SWAP1 PUSH3 0x20A JUMP JUMPDEST POP SWAP1 JUMP JUMPDEST JUMPDEST DUP1 DUP3 GT ISZERO PUSH3 0x22E JUMPI PUSH1 0x0 DUP2 DUP2 PUSH3 0x224 SWAP2 SWAP1 PUSH3 0x232 JUMP JUMPDEST POP PUSH1 0x1 ADD PUSH3 0x20B JUMP JUMPDEST POP SWAP1 JUMP JUMPDEST POP DUP1 SLOAD PUSH3 0x240 SWAP1 PUSH3 0x38B JUMP JUMPDEST PUSH1 0x0 DUP3 SSTORE DUP1 PUSH1 0x1F LT PUSH3 0x254 JUMPI POP PUSH3 0x275 JUMP JUMPDEST PUSH1 0x1F ADD PUSH1 0x20 SWAP1 DIV SWAP1 PUSH1 0x0 MSTORE PUSH1 0x20 PUSH1 0x0 KECCAK256 SWAP1 DUP2 ADD SWAP1 PUSH3 0x274 SWAP2 SWAP1 PUSH3 0x278 JUMP JUMPDEST JUMPDEST POP JUMP JUMPDEST JUMPDEST DUP1 DUP3 GT ISZERO PUSH3 0x293 JUMPI PUSH1 0x0 DUP2 PUSH1 0x0 SWAP1 SSTORE POP PUSH1 0x1 ADD PUSH3 0x279 JUMP JUMPDEST POP SWAP1 JUMP JUMPDEST PUSH1 0x0 DUP1 REVERT JUMPDEST PUSH1 0x0 PUSH2 0xFFFF DUP3 AND SWAP1 POP SWAP2 SWAP1 POP JUMP JUMPDEST PUSH3 0x2B5 DUP2 PUSH3 0x29C JUMP JUMPDEST DUP2 EQ PUSH3 0x2C1 JUMPI PUSH1 0x0 DUP1 REVERT JUMPDEST POP JUMP JUMPDEST PUSH1 0x0 DUP2 MLOAD SWAP1 POP PUSH3 0x2D5 DUP2 PUSH3 0x2AA JUMP JUMPDEST SWAP3 SWAP2 POP POP JUMP JUMPDEST PUSH1 0x0 DUP1 PUSH1 0x40 DUP4 DUP6 SUB SLT ISZERO PUSH3 0x2F5 JUMPI PUSH3 0x2F4 PUSH3 0x297 JUMP JUMPDEST JUMPDEST PUSH1 0x0 PUSH3 0x305 DUP6 DUP3 DUP7 ADD PUSH3 0x2C4 JUMP JUMPDEST SWAP3 POP POP PUSH1 0x20 PUSH3 0x318 DUP6 DUP3 DUP7 ADD PUSH3 0x2C4 JUMP JUMPDEST SWAP2 POP POP SWAP3 POP SWAP3 SWAP1 POP JUMP JUMPDEST PUSH1 0x0 DUP2 MLOAD SWAP1 POP SWAP2 SWAP1 POP JUMP JUMPDEST PUSH32 0x4E487B7100000000000000000000000000000000000000000000000000000000 PUSH1 0x0 MSTORE PUSH1 0x41 PUSH1 0x4 MSTORE PUSH1 0x24 PUSH1 0x0 REVERT JUMPDEST PUSH32 0x4E487B7100000000000000000000000000000000000000000000000000000000 PUSH1 0x0 MSTORE PUSH1 0x22 PUSH1 0x4 MSTORE PUSH1 0x24 PUSH1 0x0 REVERT JUMPDEST PUSH1 0x0 PUSH1 0x2 DUP3 DIV SWAP1 POP PUSH1 0x1 DUP3 AND DUP1 PUSH3 0x3A4 JUMPI PUSH1 0x7F DUP3 AND SWAP2 POP JUMPDEST PUSH1 0x20 DUP3 LT DUP2 SUB PUSH3 0x3BA JUMPI PUSH3 0x3B9 PUSH3 0x35C JUMP JUMPDEST JUMPDEST POP SWAP2 SWAP1 POP JUMP JUMPDEST PUSH1 0x0 DUP2 SWAP1 POP DUP2 PUSH1 0x0 MSTORE PUSH1 0x20 PUSH1 0x0 KECCAK256 SWAP1 POP SWAP2 SWAP1 POP JUMP JUMPDEST PUSH1 0x0 PUSH1 0x20 PUSH1 0x1F DUP4 ADD DIV SWAP1 POP SWAP2 SWAP1 POP JUMP JUMPDEST PUSH1 0x0 DUP3 DUP3 SHL SWAP1 POP SWAP3 SWAP2 POP POP JUMP JUMPDEST PUSH1 0x0 PUSH1 0x8 DUP4 MUL PUSH3 0x424 PUSH32 0xFFFFFFFFFFFFFFFFFFFFFFFFFFFFFFFFFFFFFFFFFFFFFFFFFFFFFFFFFFFFFFFF DUP3 PUSH3 0x3E5 JUMP JUMPDEST PUSH3 0x430 DUP7 DUP4 PUSH3 0x3E5 JUMP JUMPDEST SWAP6 POP DUP1 NOT DUP5 AND SWAP4 POP DUP1 DUP7 AND DUP5 OR SWAP3 POP POP POP SWAP4 SWAP3 POP POP POP JUMP JUMPDEST PUSH1 0x0 DUP2 SWAP1 POP SWAP2 SWAP1 POP JUMP JUMPDEST PUSH1 0x0 DUP2 SWAP1 POP SWAP2 SWAP1 POP JUMP JUMPDEST PUSH1 0x0 PUSH3 0x47D PUSH3 0x477 PUSH3 0x471 DUP5 PUSH3 0x448 JUMP JUMPDEST PUSH3 0x452 JUMP JUMPDEST PUSH3 0x448 JUMP JUMPDEST SWAP1 POP SWAP2 SWAP1 POP JUMP JUMPDEST PUSH1 0x0 DUP2 SWAP1 POP SWAP2 SWAP1 POP JUMP JUMPDEST PUSH3 0x499 DUP4 PUSH3 0x45C JUMP JUMPDEST PUSH3 0x4B1 PUSH3 0x4A8 DUP3 PUSH3 0x484 JUMP JUMPDEST DUP5 DUP5 SLOAD PUSH3 0x3F2 JUMP JUMPDEST DUP3 SSTORE POP POP POP POP JUMP JUMPDEST PUSH1 0x0 SWAP1 JUMP JUMPDEST PUSH3 0x4C8 PUSH3 0x4B9 JUMP JUMPDEST PUSH3 0x4D5 DUP2 DUP5 DUP5 PUSH3 0x48E JUMP JUMPDEST POP POP POP JUMP JUMPDEST JUMPDEST DUP2 DUP2 LT ISZERO PUSH3 0x4FD JUMPI PUSH3 0x4F1 PUSH1 0x0 DUP3 PUSH3 0x4BE JUMP JUMPDEST PUSH1 0x1 DUP2 ADD SWAP1 POP PUSH3 0x4DB JUMP JUMPDEST POP POP JUMP JUMPDEST PUSH1 0x1F DUP3 GT ISZERO PUSH3 0x54C JUMPI PUSH3 0x516 DUP2 PUSH3 0x3C0 JUMP JUMPDEST PUSH3 0x521 DUP5 PUSH3 0x3D5 JUMP JUMPDEST DUP2 ADD PUSH1 0x20 DUP6 LT ISZERO PUSH3 0x531 JUMPI DUP2 SWAP1 POP JUMPDEST PUSH3 0x549 PUSH3 0x540 DUP6 PUSH3 0x3D5 JUMP JUMPDEST DUP4 ADD DUP3 PUSH3 0x4DA JUMP JUMPDEST POP POP JUMPDEST POP POP POP JUMP JUMPDEST PUSH1 0x0 DUP3 DUP3 SHR SWAP1 POP SWAP3 SWAP2 POP POP JUMP JUMPDEST PUSH1 0x0 PUSH3 0x571 PUSH1 0x0 NOT DUP5 PUSH1 0x8 MUL PUSH3 0x551 JUMP JUMPDEST NOT DUP1 DUP4 AND SWAP2 POP POP SWAP3 SWAP2 POP POP JUMP JUMPDEST PUSH1 0x0 PUSH3 0x58C DUP4 DUP4 PUSH3 0x55E JUMP JUMPDEST SWAP2 POP DUP3 PUSH1 0x2 MUL DUP3 OR SWAP1 POP SWAP3 SWAP2 POP POP JUMP JUMPDEST PUSH3 0x5A7 DUP3 PUSH3 0x322 JUMP JUMPDEST PUSH8 0xFFFFFFFFFFFFFFFF DUP2 GT ISZERO PUSH3 0x5C3 JUMPI PUSH3 0x5C2 PUSH3 0x32D JUMP JUMPDEST JUMPDEST PUSH3 0x5CF DUP3 SLOAD PUSH3 0x38B JUMP JUMPDEST PUSH3 0x5DC DUP3 DUP3 DUP6 PUSH3 0x501 JUMP JUMPDEST PUSH1 0x0 PUSH1 0x20 SWAP1 POP PUSH1 0x1F DUP4 GT PUSH1 0x1 DUP2 EQ PUSH3 0x614 JUMPI PUSH1 0x0 DUP5 ISZERO PUSH3 0x5FF JUMPI DUP3 DUP8 ADD MLOAD SWAP1 POP JUMPDEST PUSH3 0x60B DUP6 DUP3 PUSH3 0x57E JUMP JUMPDEST DUP7 SSTORE POP PUSH3 0x67B JUMP JUMPDEST PUSH1 0x1F NOT DUP5 AND PUSH3 0x624 DUP7 PUSH3 0x3C0 JUMP JUMPDEST PUSH1 0x0 JUMPDEST DUP3 DUP2 LT ISZERO PUSH3 0x64E JUMPI DUP5 DUP10 ADD MLOAD DUP3 SSTORE PUSH1 0x1 DUP3 ADD SWAP2 POP PUSH1 0x20 DUP6 ADD SWAP5 POP PUSH1 0x20 DUP2 ADD SWAP1 POP PUSH3 0x627 JUMP JUMPDEST DUP7 DUP4 LT ISZERO PUSH3 0x66E JUMPI DUP5 DUP10 ADD MLOAD PUSH3 0x66A PUSH1 0x1F DUP10 AND DUP3 PUSH3 0x55E JUMP JUMPDEST DUP4 SSTORE POP JUMPDEST PUSH1 0x1 PUSH1 0x2 DUP9 MUL ADD DUP9 SSTORE POP POP POP JUMPDEST POP POP POP POP POP POP JUMP JUMPDEST PUSH1 0x80 MLOAD PUSH1 0xA0 MLOAD PUSH2 0x2DDE PUSH3 0x6B7 PUSH1 0x0 CODECOPY PUSH1 0x0 PUSH2 0x8E7 ADD MSTORE PUSH1 0x0 DUP2 DUP2 PUSH2 0x931 ADD MSTORE DUP2 DUP2 PUSH2 0xA08 ADD MSTORE PUSH2 0xB10 ADD MSTORE PUSH2 0x2DDE PUSH1 0x0 RETURN INVALID PUSH1 0x80 PUSH1 0x40 MSTORE CALLVALUE DUP1 ISZERO PUSH2 0x10 JUMPI PUSH1 0x0 DUP1 REVERT JUMPDEST POP PUSH1 0x4 CALLDATASIZE LT PUSH2 0x173 JUMPI PUSH1 0x0 CALLDATALOAD PUSH1 0xE0 SHR DUP1 PUSH4 0x6352211E GT PUSH2 0xDE JUMPI DUP1 PUSH4 0x997E97EE GT PUSH2 0x97 JUMPI DUP1 PUSH4 0xC87B56DD GT PUSH2 0x71 JUMPI DUP1 PUSH4 0xC87B56DD EQ PUSH2 0x44D JUMPI DUP1 PUSH4 0xD204C45E EQ PUSH2 0x47D JUMPI DUP1 PUSH4 0xD61E7201 EQ PUSH2 0x499 JUMPI DUP1 PUSH4 0xE985E9C5 EQ PUSH2 0x4B5 JUMPI PUSH2 0x173 JUMP JUMPDEST DUP1 PUSH4 0x997E97EE EQ PUSH2 0x3E5 JUMPI DUP1 PUSH4 0xA22CB465 EQ PUSH2 0x415 JUMPI DUP1 PUSH4 0xB88D4FDE EQ PUSH2 0x431 JUMPI PUSH2 0x173 JUMP JUMPDEST DUP1 PUSH4 0x6352211E EQ PUSH2 0x2FA JUMPI DUP1 PUSH4 0x6E04FF0D EQ PUSH2 0x32A JUMPI DUP1 PUSH4 0x70A08231 EQ PUSH2 0x35B JUMPI DUP1 PUSH4 0x84C4BD4B EQ PUSH2 0x38B JUMPI DUP1 PUSH4 0x947A36FB EQ PUSH2 0x3A9 JUMPI DUP1 PUSH4 0x95D89B41 EQ PUSH2 0x3C7 JUMPI PUSH2 0x173 JUMP JUMPDEST DUP1 PUSH4 0x2074D35C GT PUSH2 0x130 JUMPI DUP1 PUSH4 0x2074D35C EQ PUSH2 0x260 JUMPI DUP1 PUSH4 0x23B872DD EQ PUSH2 0x26A JUMPI DUP1 PUSH4 0x38641D6A EQ PUSH2 0x286 JUMPI DUP1 PUSH4 0x3F3B3B27 EQ PUSH2 0x2A4 JUMPI DUP1 PUSH4 0x42842E0E EQ PUSH2 0x2C2 JUMPI DUP1 PUSH4 0x4585E33B EQ PUSH2 0x2DE JUMPI PUSH2 0x173 JUMP JUMPDEST DUP1 PUSH4 0x1FFC9A7 EQ PUSH2 0x178 JUMPI DUP1 PUSH4 0x6FDDE03 EQ PUSH2 0x1A8 JUMPI DUP1 PUSH4 0x81812FC EQ PUSH2 0x1C6 JUMPI DUP1 PUSH4 0x95EA7B3 EQ PUSH2 0x1F6 JUMPI DUP1 PUSH4 0xCA1C5C9 EQ PUSH2 0x212 JUMPI DUP1 PUSH4 0x18661731 EQ PUSH2 0x230 JUMPI JUMPDEST PUSH1 0x0 DUP1 REVERT JUMPDEST PUSH2 0x192 PUSH1 0x4 DUP1 CALLDATASIZE SUB DUP2 ADD SWAP1 PUSH2 0x18D SWAP2 SWAP1 PUSH2 0x1C55 JUMP JUMPDEST PUSH2 0x4E5 JUMP JUMPDEST PUSH1 0x40 MLOAD PUSH2 0x19F SWAP2 SWAP1 PUSH2 0x1C9D JUMP JUMPDEST PUSH1 0x40 MLOAD DUP1 SWAP2 SUB SWAP1 RETURN JUMPDEST PUSH2 0x1B0 PUSH2 0x5C7 JUMP JUMPDEST PUSH1 0x40 MLOAD PUSH2 0x1BD SWAP2 SWAP1 PUSH2 0x1D48 JUMP JUMPDEST PUSH1 0x40 MLOAD DUP1 SWAP2 SUB SWAP1 RETURN JUMPDEST PUSH2 0x1E0 PUSH1 0x4 DUP1 CALLDATASIZE SUB DUP2 ADD SWAP1 PUSH2 0x1DB SWAP2 SWAP1 PUSH2 0x1DA0 JUMP JUMPDEST PUSH2 0x659 JUMP JUMPDEST PUSH1 0x40 MLOAD PUSH2 0x1ED SWAP2 SWAP1 PUSH2 0x1E0E JUMP JUMPDEST PUSH1 0x40 MLOAD DUP1 SWAP2 SUB SWAP1 RETURN JUMPDEST PUSH2 0x210 PUSH1 0x4 DUP1 CALLDATASIZE SUB DUP2 ADD SWAP1 PUSH2 0x20B SWAP2 SWAP1 PUSH2 0x1E55 JUMP JUMPDEST PUSH2 0x69F JUMP JUMPDEST STOP JUMPDEST PUSH2 0x21A PUSH2 0x7B6 JUMP JUMPDEST PUSH1 0x40 MLOAD PUSH2 0x227 SWAP2 SWAP1 PUSH2 0x1EA4 JUMP JUMPDEST PUSH1 0x40 MLOAD DUP1 SWAP2 SUB SWAP1 RETURN JUMPDEST PUSH2 0x24A PUSH1 0x4 DUP1 CALLDATASIZE SUB DUP2 ADD SWAP1 PUSH2 0x245 SWAP2 SWAP1 PUSH2 0x1DA0 JUMP JUMPDEST PUSH2 0x7D2 JUMP JUMPDEST PUSH1 0x40 MLOAD PUSH2 0x257 SWAP2 SWAP1 PUSH2 0x1EA4 JUMP JUMPDEST PUSH1 0x40 MLOAD DUP1 SWAP2 SUB SWAP1 RETURN JUMPDEST PUSH2 0x268 PUSH2 0x847 JUMP JUMPDEST STOP JUMPDEST PUSH2 0x284 PUSH1 0x4 DUP1 CALLDATASIZE SUB DUP2 ADD SWAP1 PUSH2 0x27F SWAP2 SWAP1 PUSH2 0x1EBF JUMP JUMPDEST PUSH2 0x885 JUMP JUMPDEST STOP JUMPDEST PUSH2 0x28E PUSH2 0x8E5 JUMP JUMPDEST PUSH1 0x40 MLOAD PUSH2 0x29B SWAP2 SWAP1 PUSH2 0x1F2F JUMP JUMPDEST PUSH1 0x40 MLOAD DUP1 SWAP2 SUB SWAP1 RETURN JUMPDEST PUSH2 0x2AC PUSH2 0x909 JUMP JUMPDEST PUSH1 0x40 MLOAD PUSH2 0x2B9 SWAP2 SWAP1 PUSH2 0x1EA4 JUMP JUMPDEST PUSH1 0x40 MLOAD DUP1 SWAP2 SUB SWAP1 RETURN JUMPDEST PUSH2 0x2DC PUSH1 0x4 DUP1 CALLDATASIZE SUB DUP2 ADD SWAP1 PUSH2 0x2D7 SWAP2 SWAP1 PUSH2 0x1EBF JUMP JUMPDEST PUSH2 0x90F JUMP JUMPDEST STOP JUMPDEST PUSH2 0x2F8 PUSH1 0x4 DUP1 CALLDATASIZE SUB DUP2 ADD SWAP1 PUSH2 0x2F3 SWAP2 SWAP1 PUSH2 0x1FAF JUMP JUMPDEST PUSH2 0x92F JUMP JUMPDEST STOP JUMPDEST PUSH2 0x314 PUSH1 0x4 DUP1 CALLDATASIZE SUB DUP2 ADD SWAP1 PUSH2 0x30F SWAP2 SWAP1 PUSH2 0x1DA0 JUMP JUMPDEST PUSH2 0x97C JUMP JUMPDEST PUSH1 0x40 MLOAD PUSH2 0x321 SWAP2 SWAP1 PUSH2 0x1E0E JUMP JUMPDEST PUSH1 0x40 MLOAD DUP1 SWAP2 SUB SWAP1 RETURN JUMPDEST PUSH2 0x344 PUSH1 0x4 DUP1 CALLDATASIZE SUB DUP2 ADD SWAP1 PUSH2 0x33F SWAP2 SWAP1 PUSH2 0x1FAF JUMP JUMPDEST PUSH2 0xA02 JUMP JUMPDEST PUSH1 0x40 MLOAD PUSH2 0x352 SWAP3 SWAP2 SWAP1 PUSH2 0x2051 JUMP JUMPDEST PUSH1 0x40 MLOAD DUP1 SWAP2 SUB SWAP1 RETURN JUMPDEST PUSH2 0x375 PUSH1 0x4 DUP1 CALLDATASIZE SUB DUP2 ADD SWAP1 PUSH2 0x370 SWAP2 SWAP1 PUSH2 0x2081 JUMP JUMPDEST PUSH2 0xA43 JUMP JUMPDEST PUSH1 0x40 MLOAD PUSH2 0x382 SWAP2 SWAP1 PUSH2 0x1EA4 JUMP JUMPDEST PUSH1 0x40 MLOAD DUP1 SWAP2 SUB SWAP1 RETURN JUMPDEST PUSH2 0x393 PUSH2 0xAFA JUMP JUMPDEST PUSH1 0x40 MLOAD PUSH2 0x3A0 SWAP2 SWAP1 PUSH2 0x1F2F JUMP JUMPDEST PUSH1 0x40 MLOAD DUP1 SWAP2 SUB SWAP1 RETURN JUMPDEST PUSH2 0x3B1 PUSH2 0xB0E JUMP JUMPDEST PUSH1 0x40 MLOAD PUSH2 0x3BE SWAP2 SWAP1 PUSH2 0x1F2F JUMP JUMPDEST PUSH1 0x40 MLOAD DUP1 SWAP2 SUB SWAP1 RETURN JUMPDEST PUSH2 0x3CF PUSH2 0xB32 JUMP JUMPDEST PUSH1 0x40 MLOAD PUSH2 0x3DC SWAP2 SWAP1 PUSH2 0x1D48 JUMP JUMPDEST PUSH1 0x40 MLOAD DUP1 SWAP2 SUB SWAP1 RETURN JUMPDEST PUSH2 0x3FF PUSH1 0x4 DUP1 CALLDATASIZE SUB DUP2 ADD SWAP1 PUSH2 0x3FA SWAP2 SWAP1 PUSH2 0x1DA0 JUMP JUMPDEST PUSH2 0xBC4 JUMP JUMPDEST PUSH1 0x40 MLOAD PUSH2 0x40C SWAP2 SWAP1 PUSH2 0x1D48 JUMP JUMPDEST PUSH1 0x40 MLOAD DUP1 SWAP2 SUB SWAP1 RETURN JUMPDEST PUSH2 0x42F PUSH1 0x4 DUP1 CALLDATASIZE SUB DUP2 ADD SWAP1 PUSH2 0x42A SWAP2 SWAP1 PUSH2 0x20DA JUMP JUMPDEST PUSH2 0xCD4 JUMP JUMPDEST STOP JUMPDEST PUSH2 0x44B PUSH1 0x4 DUP1 CALLDATASIZE SUB DUP2 ADD SWAP1 PUSH2 0x446 SWAP2 SWAP1 PUSH2 0x224A JUMP JUMPDEST PUSH2 0xCEA JUMP JUMPDEST STOP JUMPDEST PUSH2 0x467 PUSH1 0x4 DUP1 CALLDATASIZE SUB DUP2 ADD SWAP1 PUSH2 0x462 SWAP2 SWAP1 PUSH2 0x1DA0 JUMP JUMPDEST PUSH2 0xD4C JUMP JUMPDEST PUSH1 0x40 MLOAD PUSH2 0x474 SWAP2 SWAP1 PUSH2 0x1D48 JUMP JUMPDEST PUSH1 0x40 MLOAD DUP1 SWAP2 SUB SWAP1 RETURN JUMPDEST PUSH2 0x497 PUSH1 0x4 DUP1 CALLDATASIZE SUB DUP2 ADD SWAP1 PUSH2 0x492 SWAP2 SWAP1 PUSH2 0x236E JUMP JUMPDEST PUSH2 0xDB6 JUMP JUMPDEST STOP JUMPDEST PUSH2 0x4B3 PUSH1 0x4 DUP1 CALLDATASIZE SUB DUP2 ADD SWAP1 PUSH2 0x4AE SWAP2 SWAP1 PUSH2 0x1DA0 JUMP JUMPDEST PUSH2 0xF1D JUMP JUMPDEST STOP JUMPDEST PUSH2 0x4CF PUSH1 0x4 DUP1 CALLDATASIZE SUB DUP2 ADD SWAP1 PUSH2 0x4CA SWAP2 SWAP1 PUSH2 0x23CA JUMP JUMPDEST PUSH2 0xFBF JUMP JUMPDEST PUSH1 0x40 MLOAD PUSH2 0x4DC SWAP2 SWAP1 PUSH2 0x1C9D JUMP JUMPDEST PUSH1 0x40 MLOAD DUP1 SWAP2 SUB SWAP1 RETURN JUMPDEST PUSH1 0x0 PUSH32 0x80AC58CD00000000000000000000000000000000000000000000000000000000 PUSH28 0xFFFFFFFFFFFFFFFFFFFFFFFFFFFFFFFFFFFFFFFFFFFFFFFFFFFFFFFF NOT AND DUP3 PUSH28 0xFFFFFFFFFFFFFFFFFFFFFFFFFFFFFFFFFFFFFFFFFFFFFFFFFFFFFFFF NOT AND EQ DUP1 PUSH2 0x5B0 JUMPI POP PUSH32 0x5B5E139F00000000000000000000000000000000000000000000000000000000 PUSH28 0xFFFFFFFFFFFFFFFFFFFFFFFFFFFFFFFFFFFFFFFFFFFFFFFFFFFFFFFF NOT AND DUP3 PUSH28 0xFFFFFFFFFFFFFFFFFFFFFFFFFFFFFFFFFFFFFFFFFFFFFFFFFFFFFFFF NOT AND EQ JUMPDEST DUP1 PUSH2 0x5C0 JUMPI POP PUSH2 0x5BF DUP3 PUSH2 0x1053 JUMP JUMPDEST JUMPDEST SWAP1 POP SWAP2 SWAP1 POP JUMP JUMPDEST PUSH1 0x60 PUSH1 0x0 DUP1 SLOAD PUSH2 0x5D6 SWAP1 PUSH2 0x2439 JUMP JUMPDEST DUP1 PUSH1 0x1F ADD PUSH1 0x20 DUP1 SWAP2 DIV MUL PUSH1 0x20 ADD PUSH1 0x40 MLOAD SWAP1 DUP2 ADD PUSH1 0x40 MSTORE DUP1 SWAP3 SWAP2 SWAP1 DUP2 DUP2 MSTORE PUSH1 0x20 ADD DUP3 DUP1 SLOAD PUSH2 0x602 SWAP1 PUSH2 0x2439 JUMP JUMPDEST DUP1 ISZERO PUSH2 0x64F JUMPI DUP1 PUSH1 0x1F LT PUSH2 0x624 JUMPI PUSH2 0x100 DUP1 DUP4 SLOAD DIV MUL DUP4 MSTORE SWAP2 PUSH1 0x20 ADD SWAP2 PUSH2 0x64F JUMP JUMPDEST DUP3 ADD SWAP2 SWAP1 PUSH1 0x0 MSTORE PUSH1 0x20 PUSH1 0x0 KECCAK256 SWAP1 JUMPDEST DUP2 SLOAD DUP2 MSTORE SWAP1 PUSH1 0x1 ADD SWAP1 PUSH1 0x20 ADD DUP1 DUP4 GT PUSH2 0x632 JUMPI DUP3 SWAP1 SUB PUSH1 0x1F AND DUP3 ADD SWAP2 JUMPDEST POP POP POP POP POP SWAP1 POP SWAP1 JUMP JUMPDEST PUSH1 0x0 PUSH2 0x664 DUP3 PUSH2 0x10BD JUMP JUMPDEST PUSH1 0x4 PUSH1 0x0 DUP4 DUP2 MSTORE PUSH1 0x20 ADD SWAP1 DUP2 MSTORE PUSH1 0x20 ADD PUSH1 0x0 KECCAK256 PUSH1 0x0 SWAP1 SLOAD SWAP1 PUSH2 0x100 EXP SWAP1 DIV PUSH20 0xFFFFFFFFFFFFFFFFFFFFFFFFFFFFFFFFFFFFFFFF AND SWAP1 POP SWAP2 SWAP1 POP JUMP JUMPDEST PUSH1 0x0 PUSH2 0x6AA DUP3 PUSH2 0x97C JUMP JUMPDEST SWAP1 POP DUP1 PUSH20 0xFFFFFFFFFFFFFFFFFFFFFFFFFFFFFFFFFFFFFFFF AND DUP4 PUSH20 0xFFFFFFFFFFFFFFFFFFFFFFFFFFFFFFFFFFFFFFFF AND SUB PUSH2 0x71A JUMPI PUSH1 0x40 MLOAD PUSH32 0x8C379A000000000000000000000000000000000000000000000000000000000 DUP2 MSTORE PUSH1 0x4 ADD PUSH2 0x711 SWAP1 PUSH2 0x24DC JUMP JUMPDEST PUSH1 0x40 MLOAD DUP1 SWAP2 SUB SWAP1 REVERT JUMPDEST DUP1 PUSH20 0xFFFFFFFFFFFFFFFFFFFFFFFFFFFFFFFFFFFFFFFF AND PUSH2 0x739 PUSH2 0x1108 JUMP JUMPDEST PUSH20 0xFFFFFFFFFFFFFFFFFFFFFFFFFFFFFFFFFFFFFFFF AND EQ DUP1 PUSH2 0x768 JUMPI POP PUSH2 0x767 DUP2 PUSH2 0x762 PUSH2 0x1108 JUMP JUMPDEST PUSH2 0xFBF JUMP JUMPDEST JUMPDEST PUSH2 0x7A7 JUMPI PUSH1 0x40 MLOAD PUSH32 0x8C379A000000000000000000000000000000000000000000000000000000000 DUP2 MSTORE PUSH1 0x4 ADD PUSH2 0x79E SWAP1 PUSH2 0x256E JUMP JUMPDEST PUSH1 0x40 MLOAD DUP1 SWAP2 SUB SWAP1 REVERT JUMPDEST PUSH2 0x7B1 DUP4 DUP4 PUSH2 0x1110 JUMP JUMPDEST POP POP POP JUMP JUMPDEST PUSH1 0x0 PUSH1 0x7 PUSH1 0x0 SWAP1 SLOAD SWAP1 PUSH2 0x100 EXP SWAP1 DIV PUSH2 0xFFFF AND PUSH2 0xFFFF AND SWAP1 POP SWAP1 JUMP JUMPDEST PUSH1 0x0 DUP2 PUSH1 0x7 PUSH1 0x0 SWAP1 SLOAD SWAP1 PUSH2 0x100 EXP SWAP1 DIV PUSH2 0xFFFF AND PUSH2 0xFFFF AND DUP2 LT PUSH2 0x82B JUMPI PUSH1 0x40 MLOAD PUSH32 0x8C379A000000000000000000000000000000000000000000000000000000000 DUP2 MSTORE PUSH1 0x4 ADD PUSH2 0x822 SWAP1 PUSH2 0x25DA JUMP JUMPDEST PUSH1 0x40 MLOAD DUP1 SWAP2 SUB SWAP1 REVERT JUMPDEST PUSH1 0xA PUSH1 0x0 DUP5 DUP2 MSTORE PUSH1 0x20 ADD SWAP1 DUP2 MSTORE PUSH1 0x20 ADD PUSH1 0x0 KECCAK256 SLOAD SWAP2 POP POP SWAP2 SWAP1 POP JUMP JUMPDEST PUSH1 0x0 JUMPDEST PUSH1 0x7 PUSH1 0x0 SWAP1 SLOAD SWAP1 PUSH2 0x100 EXP SWAP1 DIV PUSH2 0xFFFF AND PUSH2 0xFFFF AND DUP2 LT ISZERO PUSH2 0x882 JUMPI PUSH2 0x86F DUP2 PUSH2 0xF1D JUMP JUMPDEST DUP1 DUP1 PUSH2 0x87A SWAP1 PUSH2 0x2629 JUMP JUMPDEST SWAP2 POP POP PUSH2 0x84A JUMP JUMPDEST POP JUMP JUMPDEST PUSH2 0x896 PUSH2 0x890 PUSH2 0x1108 JUMP JUMPDEST DUP3 PUSH2 0x11C9 JUMP JUMPDEST PUSH2 0x8D5 JUMPI PUSH1 0x40 MLOAD PUSH32 0x8C379A000000000000000000000000000000000000000000000000000000000 DUP2 MSTORE PUSH1 0x4 ADD PUSH2 0x8CC SWAP1 PUSH2 0x26E3 JUMP JUMPDEST PUSH1 0x40 MLOAD DUP1 SWAP2 SUB SWAP1 REVERT JUMPDEST PUSH2 0x8E0 DUP4 DUP4 DUP4 PUSH2 0x125E JUMP JUMPDEST POP POP POP JUMP JUMPDEST PUSH32 0x0 DUP2 JUMP JUMPDEST PUSH1 0x8 SLOAD DUP2 JUMP JUMPDEST PUSH2 0x92A DUP4 DUP4 DUP4 PUSH1 0x40 MLOAD DUP1 PUSH1 0x20 ADD PUSH1 0x40 MSTORE DUP1 PUSH1 0x0 DUP2 MSTORE POP PUSH2 0xCEA JUMP JUMPDEST POP POP POP JUMP JUMPDEST PUSH32 0x0 PUSH2 0xFFFF AND PUSH1 0x8 SLOAD TIMESTAMP PUSH2 0x962 SWAP2 SWAP1 PUSH2 0x2703 JUMP JUMPDEST GT ISZERO PUSH2 0x978 JUMPI TIMESTAMP PUSH1 0x8 DUP2 SWAP1 SSTORE POP PUSH2 0x977 PUSH2 0x847 JUMP JUMPDEST JUMPDEST POP POP JUMP JUMPDEST PUSH1 0x0 DUP1 PUSH2 0x988 DUP4 PUSH2 0x1557 JUMP JUMPDEST SWAP1 POP PUSH1 0x0 PUSH20 0xFFFFFFFFFFFFFFFFFFFFFFFFFFFFFFFFFFFFFFFF AND DUP2 PUSH20 0xFFFFFFFFFFFFFFFFFFFFFFFFFFFFFFFFFFFFFFFF AND SUB PUSH2 0x9F9 JUMPI PUSH1 0x40 MLOAD PUSH32 0x8C379A000000000000000000000000000000000000000000000000000000000 DUP2 MSTORE PUSH1 0x4 ADD PUSH2 0x9F0 SWAP1 PUSH2 0x2783 JUMP JUMPDEST PUSH1 0x40 MLOAD DUP1 SWAP2 SUB SWAP1 REVERT JUMPDEST DUP1 SWAP2 POP POP SWAP2 SWAP1 POP JUMP JUMPDEST PUSH1 0x0 PUSH1 0x60 PUSH32 0x0 PUSH2 0xFFFF AND PUSH1 0x8 SLOAD TIMESTAMP PUSH2 0xA39 SWAP2 SWAP1 PUSH2 0x2703 JUMP JUMPDEST GT SWAP2 POP SWAP3 POP SWAP3 SWAP1 POP JUMP JUMPDEST PUSH1 0x0 DUP1 PUSH20 0xFFFFFFFFFFFFFFFFFFFFFFFFFFFFFFFFFFFFFFFF AND DUP3 PUSH20 0xFFFFFFFFFFFFFFFFFFFFFFFFFFFFFFFFFFFFFFFF AND SUB PUSH2 0xAB3 JUMPI PUSH1 0x40 MLOAD PUSH32 0x8C379A000000000000000000000000000000000000000000000000000000000 DUP2 MSTORE PUSH1 0x4 ADD PUSH2 0xAAA SWAP1 PUSH2 0x2815 JUMP JUMPDEST PUSH1 0x40 MLOAD DUP1 SWAP2 SUB SWAP1 REVERT JUMPDEST PUSH1 0x3 PUSH1 0x0 DUP4 PUSH20 0xFFFFFFFFFFFFFFFFFFFFFFFFFFFFFFFFFFFFFFFF AND PUSH20 0xFFFFFFFFFFFFFFFFFFFFFFFFFFFFFFFFFFFFFFFF AND DUP2 MSTORE PUSH1 0x20 ADD SWAP1 DUP2 MSTORE PUSH1 0x20 ADD PUSH1 0x0 KECCAK256 SLOAD SWAP1 POP SWAP2 SWAP1 POP JUMP JUMPDEST PUSH1 0x7 PUSH1 0x0 SWAP1 SLOAD SWAP1 PUSH2 0x100 EXP SWAP1 DIV PUSH2 0xFFFF AND DUP2 JUMP JUMPDEST PUSH32 0x0 DUP2 JUMP JUMPDEST PUSH1 0x60 PUSH1 0x1 DUP1 SLOAD PUSH2 0xB41 SWAP1 PUSH2 0x2439 JUMP JUMPDEST DUP1 PUSH1 0x1F ADD PUSH1 0x20 DUP1 SWAP2 DIV MUL PUSH1 0x20 ADD PUSH1 0x40 MLOAD SWAP1 DUP2 ADD PUSH1 0x40 MSTORE DUP1 SWAP3 SWAP2 SWAP1 DUP2 DUP2 MSTORE PUSH1 0x20 ADD DUP3 DUP1 SLOAD PUSH2 0xB6D SWAP1 PUSH2 0x2439 JUMP JUMPDEST DUP1 ISZERO PUSH2 0xBBA JUMPI DUP1 PUSH1 0x1F LT PUSH2 0xB8F JUMPI PUSH2 0x100 DUP1 DUP4 SLOAD DIV MUL DUP4 MSTORE SWAP2 PUSH1 0x20 ADD SWAP2 PUSH2 0xBBA JUMP JUMPDEST DUP3 ADD SWAP2 SWAP1 PUSH1 0x0 MSTORE PUSH1 0x20 PUSH1 0x0 KECCAK256 SWAP1 JUMPDEST DUP2 SLOAD DUP2 MSTORE SWAP1 PUSH1 0x1 ADD SWAP1 PUSH1 0x20 ADD DUP1 DUP4 GT PUSH2 0xB9D JUMPI DUP3 SWAP1 SUB PUSH1 0x1F AND DUP3 ADD SWAP2 JUMPDEST POP POP POP POP POP SWAP1 POP SWAP1 JUMP JUMPDEST PUSH1 0x60 DUP2 PUSH1 0x7 PUSH1 0x0 SWAP1 SLOAD SWAP1 PUSH2 0x100 EXP SWAP1 DIV PUSH2 0xFFFF AND PUSH2 0xFFFF AND DUP2 LT PUSH2 0xC1D JUMPI PUSH1 0x40 MLOAD PUSH32 0x8C379A000000000000000000000000000000000000000000000000000000000 DUP2 MSTORE PUSH1 0x4 ADD PUSH2 0xC14 SWAP1 PUSH2 0x25DA JUMP JUMPDEST PUSH1 0x40 MLOAD DUP1 SWAP2 SUB SWAP1 REVERT JUMPDEST PUSH1 0xB PUSH2 0xC28 DUP5 PUSH2 0x7D2 JUMP JUMPDEST DUP2 SLOAD DUP2 LT PUSH2 0xC39 JUMPI PUSH2 0xC38 PUSH2 0x2835 JUMP JUMPDEST JUMPDEST SWAP1 PUSH1 0x0 MSTORE PUSH1 0x20 PUSH1 0x0 KECCAK256 ADD DUP1 SLOAD PUSH2 0xC4E SWAP1 PUSH2 0x2439 JUMP JUMPDEST DUP1 PUSH1 0x1F ADD PUSH1 0x20 DUP1 SWAP2 DIV MUL PUSH1 0x20 ADD PUSH1 0x40 MLOAD SWAP1 DUP2 ADD PUSH1 0x40 MSTORE DUP1 SWAP3 SWAP2 SWAP1 DUP2 DUP2 MSTORE PUSH1 0x20 ADD DUP3 DUP1 SLOAD PUSH2 0xC7A SWAP1 PUSH2 0x2439 JUMP JUMPDEST DUP1 ISZERO PUSH2 0xCC7 JUMPI DUP1 PUSH1 0x1F LT PUSH2 0xC9C JUMPI PUSH2 0x100 DUP1 DUP4 SLOAD DIV MUL DUP4 MSTORE SWAP2 PUSH1 0x20 ADD SWAP2 PUSH2 0xCC7 JUMP JUMPDEST DUP3 ADD SWAP2 SWAP1 PUSH1 0x0 MSTORE PUSH1 0x20 PUSH1 0x0 KECCAK256 SWAP1 JUMPDEST DUP2 SLOAD DUP2 MSTORE SWAP1 PUSH1 0x1 ADD SWAP1 PUSH1 0x20 ADD DUP1 DUP4 GT PUSH2 0xCAA JUMPI DUP3 SWAP1 SUB PUSH1 0x1F AND DUP3 ADD SWAP2 JUMPDEST POP POP POP POP POP SWAP2 POP POP SWAP2 SWAP1 POP JUMP JUMPDEST PUSH2 0xCE6 PUSH2 0xCDF PUSH2 0x1108 JUMP JUMPDEST DUP4 DUP4 PUSH2 0x1594 JUMP JUMPDEST POP POP JUMP JUMPDEST PUSH2 0xCFB PUSH2 0xCF5 PUSH2 0x1108 JUMP JUMPDEST DUP4 PUSH2 0x11C9 JUMP JUMPDEST PUSH2 0xD3A JUMPI PUSH1 0x40 MLOAD PUSH32 0x8C379A000000000000000000000000000000000000000000000000000000000 DUP2 MSTORE PUSH1 0x4 ADD PUSH2 0xD31 SWAP1 PUSH2 0x26E3 JUMP JUMPDEST PUSH1 0x40 MLOAD DUP1 SWAP2 SUB SWAP1 REVERT JUMPDEST PUSH2 0xD46 DUP5 DUP5 DUP5 DUP5 PUSH2 0x1700 JUMP JUMPDEST POP POP POP POP JUMP JUMPDEST PUSH1 0x60 DUP2 PUSH1 0x7 PUSH1 0x0 SWAP1 SLOAD SWAP1 PUSH2 0x100 EXP SWAP1 DIV PUSH2 0xFFFF AND PUSH2 0xFFFF AND DUP2 LT PUSH2 0xDA5 JUMPI PUSH1 0x40 MLOAD PUSH32 0x8C379A000000000000000000000000000000000000000000000000000000000 DUP2 MSTORE PUSH1 0x4 ADD PUSH2 0xD9C SWAP1 PUSH2 0x25DA JUMP JUMPDEST PUSH1 0x40 MLOAD DUP1 SWAP2 SUB SWAP1 REVERT JUMPDEST PUSH2 0xDAE DUP4 PUSH2 0xBC4 JUMP JUMPDEST SWAP2 POP POP SWAP2 SWAP1 POP JUMP JUMPDEST PUSH1 0x9 PUSH1 0x0 SWAP1 SLOAD SWAP1 PUSH2 0x100 EXP SWAP1 DIV PUSH1 0xFF AND PUSH2 0xE05 JUMPI PUSH1 0x40 MLOAD PUSH32 0x8C379A000000000000000000000000000000000000000000000000000000000 DUP2 MSTORE PUSH1 0x4 ADD PUSH2 0xDFC SWAP1 PUSH2 0x28D6 JUMP JUMPDEST PUSH1 0x40 MLOAD DUP1 SWAP2 SUB SWAP1 REVERT JUMPDEST PUSH2 0x3E8 PUSH1 0x7 PUSH1 0x0 SWAP1 SLOAD SWAP1 PUSH2 0x100 EXP SWAP1 DIV PUSH2 0xFFFF AND PUSH2 0xFFFF AND LT PUSH2 0xE5D JUMPI PUSH1 0x40 MLOAD PUSH32 0x8C379A000000000000000000000000000000000000000000000000000000000 DUP2 MSTORE PUSH1 0x4 ADD PUSH2 0xE54 SWAP1 PUSH2 0x2942 JUMP JUMPDEST PUSH1 0x40 MLOAD DUP1 SWAP2 SUB SWAP1 REVERT JUMPDEST PUSH1 0x0 PUSH1 0x9 PUSH1 0x0 PUSH2 0x100 EXP DUP2 SLOAD DUP2 PUSH1 0xFF MUL NOT AND SWAP1 DUP4 ISZERO ISZERO MUL OR SWAP1 SSTORE POP PUSH2 0xE96 DUP3 PUSH1 0x7 PUSH1 0x0 SWAP1 SLOAD SWAP1 PUSH2 0x100 EXP SWAP1 DIV PUSH2 0xFFFF AND PUSH2 0xFFFF AND PUSH2 0x175C JUMP JUMPDEST PUSH1 0x0 PUSH1 0xA PUSH1 0x0 PUSH1 0x7 PUSH1 0x0 SWAP1 SLOAD SWAP1 PUSH2 0x100 EXP SWAP1 DIV PUSH2 0xFFFF AND PUSH2 0xFFFF AND DUP2 MSTORE PUSH1 0x20 ADD SWAP1 DUP2 MSTORE PUSH1 0x20 ADD PUSH1 0x0 KECCAK256 DUP2 SWAP1 SSTORE POP PUSH1 0x7 PUSH1 0x0 DUP2 DUP2 SWAP1 SLOAD SWAP1 PUSH2 0x100 EXP SWAP1 DIV PUSH2 0xFFFF AND DUP1 SWAP3 SWAP2 SWAP1 PUSH2 0xEE3 SWAP1 PUSH2 0x2962 JUMP JUMPDEST SWAP2 SWAP1 PUSH2 0x100 EXP DUP2 SLOAD DUP2 PUSH2 0xFFFF MUL NOT AND SWAP1 DUP4 PUSH2 0xFFFF AND MUL OR SWAP1 SSTORE POP POP PUSH1 0x1 PUSH1 0x9 PUSH1 0x0 PUSH2 0x100 EXP DUP2 SLOAD DUP2 PUSH1 0xFF MUL NOT AND SWAP1 DUP4 ISZERO ISZERO MUL OR SWAP1 SSTORE POP POP POP JUMP JUMPDEST DUP1 PUSH1 0x7 PUSH1 0x0 SWAP1 SLOAD SWAP1 PUSH2 0x100 EXP SWAP1 DIV PUSH2 0xFFFF AND PUSH2 0xFFFF AND DUP2 LT PUSH2 0xF74 JUMPI PUSH1 0x40 MLOAD PUSH32 0x8C379A000000000000000000000000000000000000000000000000000000000 DUP2 MSTORE PUSH1 0x4 ADD PUSH2 0xF6B SWAP1 PUSH2 0x25DA JUMP JUMPDEST PUSH1 0x40 MLOAD DUP1 SWAP2 SUB SWAP1 REVERT JUMPDEST PUSH1 0xB DUP1 SLOAD SWAP1 POP PUSH1 0x1 PUSH1 0xA PUSH1 0x0 DUP6 DUP2 MSTORE PUSH1 0x20 ADD SWAP1 DUP2 MSTORE PUSH1 0x20 ADD PUSH1 0x0 KECCAK256 SLOAD PUSH2 0xF9A SWAP2 SWAP1 PUSH2 0x298C JUMP JUMPDEST PUSH2 0xFA4 SWAP2 SWAP1 PUSH2 0x29EF JUMP JUMPDEST PUSH1 0xA PUSH1 0x0 DUP5 DUP2 MSTORE PUSH1 0x20 ADD SWAP1 DUP2 MSTORE PUSH1 0x20 ADD PUSH1 0x0 KECCAK256 DUP2 SWAP1 SSTORE POP POP POP JUMP JUMPDEST PUSH1 0x0 PUSH1 0x5 PUSH1 0x0 DUP5 PUSH20 0xFFFFFFFFFFFFFFFFFFFFFFFFFFFFFFFFFFFFFFFF AND PUSH20 0xFFFFFFFFFFFFFFFFFFFFFFFFFFFFFFFFFFFFFFFF AND DUP2 MSTORE PUSH1 0x20 ADD SWAP1 DUP2 MSTORE PUSH1 0x20 ADD PUSH1 0x0 KECCAK256 PUSH1 0x0 DUP4 PUSH20 0xFFFFFFFFFFFFFFFFFFFFFFFFFFFFFFFFFFFFFFFF AND PUSH20 0xFFFFFFFFFFFFFFFFFFFFFFFFFFFFFFFFFFFFFFFF AND DUP2 MSTORE PUSH1 0x20 ADD SWAP1 DUP2 MSTORE PUSH1 0x20 ADD PUSH1 0x0 KECCAK256 PUSH1 0x0 SWAP1 SLOAD SWAP1 PUSH2 0x100 EXP SWAP1 DIV PUSH1 0xFF AND SWAP1 POP SWAP3 SWAP2 POP POP JUMP JUMPDEST PUSH1 0x0 PUSH32 0x1FFC9A700000000000000000000000000000000000000000000000000000000 PUSH28 0xFFFFFFFFFFFFFFFFFFFFFFFFFFFFFFFFFFFFFFFFFFFFFFFFFFFFFFFF NOT AND DUP3 PUSH28 0xFFFFFFFFFFFFFFFFFFFFFFFFFFFFFFFFFFFFFFFFFFFFFFFFFFFFFFFF NOT AND EQ SWAP1 POP SWAP2 SWAP1 POP JUMP JUMPDEST PUSH2 0x10C6 DUP2 PUSH2 0x177A JUMP JUMPDEST PUSH2 0x1105 JUMPI PUSH1 0x40 MLOAD PUSH32 0x8C379A000000000000000000000000000000000000000000000000000000000 DUP2 MSTORE PUSH1 0x4 ADD PUSH2 0x10FC SWAP1 PUSH2 0x2783 JUMP JUMPDEST PUSH1 0x40 MLOAD DUP1 SWAP2 SUB SWAP1 REVERT JUMPDEST POP JUMP JUMPDEST PUSH1 0x0 CALLER SWAP1 POP SWAP1 JUMP JUMPDEST DUP2 PUSH1 0x4 PUSH1 0x0 DUP4 DUP2 MSTORE PUSH1 0x20 ADD SWAP1 DUP2 MSTORE PUSH1 0x20 ADD PUSH1 0x0 KECCAK256 PUSH1 0x0 PUSH2 0x100 EXP DUP2 SLOAD DUP2 PUSH20 0xFFFFFFFFFFFFFFFFFFFFFFFFFFFFFFFFFFFFFFFF MUL NOT AND SWAP1 DUP4 PUSH20 0xFFFFFFFFFFFFFFFFFFFFFFFFFFFFFFFFFFFFFFFF AND MUL OR SWAP1 SSTORE POP DUP1 DUP3 PUSH20 0xFFFFFFFFFFFFFFFFFFFFFFFFFFFFFFFFFFFFFFFF AND PUSH2 0x1183 DUP4 PUSH2 0x97C JUMP JUMPDEST PUSH20 0xFFFFFFFFFFFFFFFFFFFFFFFFFFFFFFFFFFFFFFFF AND PUSH32 0x8C5BE1E5EBEC7D5BD14F71427D1E84F3DD0314C0F7B2291E5B200AC8C7C3B925 PUSH1 0x40 MLOAD PUSH1 0x40 MLOAD DUP1 SWAP2 SUB SWAP1 LOG4 POP POP JUMP JUMPDEST PUSH1 0x0 DUP1 PUSH2 0x11D5 DUP4 PUSH2 0x97C JUMP JUMPDEST SWAP1 POP DUP1 PUSH20 0xFFFFFFFFFFFFFFFFFFFFFFFFFFFFFFFFFFFFFFFF AND DUP5 PUSH20 0xFFFFFFFFFFFFFFFFFFFFFFFFFFFFFFFFFFFFFFFF AND EQ DUP1 PUSH2 0x1217 JUMPI POP PUSH2 0x1216 DUP2 DUP6 PUSH2 0xFBF JUMP JUMPDEST JUMPDEST DUP1 PUSH2 0x1255 JUMPI POP DUP4 PUSH20 0xFFFFFFFFFFFFFFFFFFFFFFFFFFFFFFFFFFFFFFFF AND PUSH2 0x123D DUP5 PUSH2 0x659 JUMP JUMPDEST PUSH20 0xFFFFFFFFFFFFFFFFFFFFFFFFFFFFFFFFFFFFFFFF AND EQ JUMPDEST SWAP2 POP POP SWAP3 SWAP2 POP POP JUMP JUMPDEST DUP3 PUSH20 0xFFFFFFFFFFFFFFFFFFFFFFFFFFFFFFFFFFFFFFFF AND PUSH2 0x127E DUP3 PUSH2 0x97C JUMP JUMPDEST PUSH20 0xFFFFFFFFFFFFFFFFFFFFFFFFFFFFFFFFFFFFFFFF AND EQ PUSH2 0x12D4 JUMPI PUSH1 0x40 MLOAD PUSH32 0x8C379A000000000000000000000000000000000000000000000000000000000 DUP2 MSTORE PUSH1 0x4 ADD PUSH2 0x12CB SWAP1 PUSH2 0x2A92 JUMP JUMPDEST PUSH1 0x40 MLOAD DUP1 SWAP2 SUB SWAP1 REVERT JUMPDEST PUSH1 0x0 PUSH20 0xFFFFFFFFFFFFFFFFFFFFFFFFFFFFFFFFFFFFFFFF AND DUP3 PUSH20 0xFFFFFFFFFFFFFFFFFFFFFFFFFFFFFFFFFFFFFFFF AND SUB PUSH2 0x1343 JUMPI PUSH1 0x40 MLOAD PUSH32 0x8C379A000000000000000000000000000000000000000000000000000000000 DUP2 MSTORE PUSH1 0x4 ADD PUSH2 0x133A SWAP1 PUSH2 0x2B24 JUMP JUMPDEST PUSH1 0x40 MLOAD DUP1 SWAP2 SUB SWAP1 REVERT JUMPDEST PUSH2 0x1350 DUP4 DUP4 DUP4 PUSH1 0x1 PUSH2 0x17BB JUMP JUMPDEST DUP3 PUSH20 0xFFFFFFFFFFFFFFFFFFFFFFFFFFFFFFFFFFFFFFFF AND PUSH2 0x1370 DUP3 PUSH2 0x97C JUMP JUMPDEST PUSH20 0xFFFFFFFFFFFFFFFFFFFFFFFFFFFFFFFFFFFFFFFF AND EQ PUSH2 0x13C6 JUMPI PUSH1 0x40 MLOAD PUSH32 0x8C379A000000000000000000000000000000000000000000000000000000000 DUP2 MSTORE PUSH1 0x4 ADD PUSH2 0x13BD SWAP1 PUSH2 0x2A92 JUMP JUMPDEST PUSH1 0x40 MLOAD DUP1 SWAP2 SUB SWAP1 REVERT JUMPDEST PUSH1 0x4 PUSH1 0x0 DUP3 DUP2 MSTORE PUSH1 0x20 ADD SWAP1 DUP2 MSTORE PUSH1 0x20 ADD PUSH1 0x0 KECCAK256 PUSH1 0x0 PUSH2 0x100 EXP DUP2 SLOAD SWAP1 PUSH20 0xFFFFFFFFFFFFFFFFFFFFFFFFFFFFFFFFFFFFFFFF MUL NOT AND SWAP1 SSTORE PUSH1 0x1 PUSH1 0x3 PUSH1 0x0 DUP6 PUSH20 0xFFFFFFFFFFFFFFFFFFFFFFFFFFFFFFFFFFFFFFFF AND PUSH20 0xFFFFFFFFFFFFFFFFFFFFFFFFFFFFFFFFFFFFFFFF AND DUP2 MSTORE PUSH1 0x20 ADD SWAP1 DUP2 MSTORE PUSH1 0x20 ADD PUSH1 0x0 KECCAK256 PUSH1 0x0 DUP3 DUP3 SLOAD SUB SWAP3 POP POP DUP2 SWAP1 SSTORE POP PUSH1 0x1 PUSH1 0x3 PUSH1 0x0 DUP5 PUSH20 0xFFFFFFFFFFFFFFFFFFFFFFFFFFFFFFFFFFFFFFFF AND PUSH20 0xFFFFFFFFFFFFFFFFFFFFFFFFFFFFFFFFFFFFFFFF AND DUP2 MSTORE PUSH1 0x20 ADD SWAP1 DUP2 MSTORE PUSH1 0x20 ADD PUSH1 0x0 KECCAK256 PUSH1 0x0 DUP3 DUP3 SLOAD ADD SWAP3 POP POP DUP2 SWAP1 SSTORE POP DUP2 PUSH1 0x2 PUSH1 0x0 DUP4 DUP2 MSTORE PUSH1 0x20 ADD SWAP1 DUP2 MSTORE PUSH1 0x20 ADD PUSH1 0x0 KECCAK256 PUSH1 0x0 PUSH2 0x100 EXP DUP2 SLOAD DUP2 PUSH20 0xFFFFFFFFFFFFFFFFFFFFFFFFFFFFFFFFFFFFFFFF MUL NOT AND SWAP1 DUP4 PUSH20 0xFFFFFFFFFFFFFFFFFFFFFFFFFFFFFFFFFFFFFFFF AND MUL OR SWAP1 SSTORE POP DUP1 DUP3 PUSH20 0xFFFFFFFFFFFFFFFFFFFFFFFFFFFFFFFFFFFFFFFF AND DUP5 PUSH20 0xFFFFFFFFFFFFFFFFFFFFFFFFFFFFFFFFFFFFFFFF AND PUSH32 0xDDF252AD1BE2C89B69C2B068FC378DAA952BA7F163C4A11628F55A4DF523B3EF PUSH1 0x40 MLOAD PUSH1 0x40 MLOAD DUP1 SWAP2 SUB SWAP1 LOG4 PUSH2 0x1552 DUP4 DUP4 DUP4 PUSH1 0x1 PUSH2 0x17C1 JUMP JUMPDEST POP POP POP JUMP JUMPDEST PUSH1 0x0 PUSH1 0x2 PUSH1 0x0 DUP4 DUP2 MSTORE PUSH1 0x20 ADD SWAP1 DUP2 MSTORE PUSH1 0x20 ADD PUSH1 0x0 KECCAK256 PUSH1 0x0 SWAP1 SLOAD SWAP1 PUSH2 0x100 EXP SWAP1 DIV PUSH20 0xFFFFFFFFFFFFFFFFFFFFFFFFFFFFFFFFFFFFFFFF AND SWAP1 POP SWAP2 SWAP1 POP JUMP JUMPDEST DUP2 PUSH20 0xFFFFFFFFFFFFFFFFFFFFFFFFFFFFFFFFFFFFFFFF AND DUP4 PUSH20 0xFFFFFFFFFFFFFFFFFFFFFFFFFFFFFFFFFFFFFFFF AND SUB PUSH2 0x1602 JUMPI PUSH1 0x40 MLOAD PUSH32 0x8C379A000000000000000000000000000000000000000000000000000000000 DUP2 MSTORE PUSH1 0x4 ADD PUSH2 0x15F9 SWAP1 PUSH2 0x2B90 JUMP JUMPDEST PUSH1 0x40 MLOAD DUP1 SWAP2 SUB SWAP1 REVERT JUMPDEST DUP1 PUSH1 0x5 PUSH1 0x0 DUP6 PUSH20 0xFFFFFFFFFFFFFFFFFFFFFFFFFFFFFFFFFFFFFFFF AND PUSH20 0xFFFFFFFFFFFFFFFFFFFFFFFFFFFFFFFFFFFFFFFF AND DUP2 MSTORE PUSH1 0x20 ADD SWAP1 DUP2 MSTORE PUSH1 0x20 ADD PUSH1 0x0 KECCAK256 PUSH1 0x0 DUP5 PUSH20 0xFFFFFFFFFFFFFFFFFFFFFFFFFFFFFFFFFFFFFFFF AND PUSH20 0xFFFFFFFFFFFFFFFFFFFFFFFFFFFFFFFFFFFFFFFF AND DUP2 MSTORE PUSH1 0x20 ADD SWAP1 DUP2 MSTORE PUSH1 0x20 ADD PUSH1 0x0 KECCAK256 PUSH1 0x0 PUSH2 0x100 EXP DUP2 SLOAD DUP2 PUSH1 0xFF MUL NOT AND SWAP1 DUP4 ISZERO ISZERO MUL OR SWAP1 SSTORE POP DUP2 PUSH20 0xFFFFFFFFFFFFFFFFFFFFFFFFFFFFFFFFFFFFFFFF AND DUP4 PUSH20 0xFFFFFFFFFFFFFFFFFFFFFFFFFFFFFFFFFFFFFFFF AND PUSH32 0x17307EAB39AB6107E8899845AD3D59BD9653F200F220920489CA2B5937696C31 DUP4 PUSH1 0x40 MLOAD PUSH2 0x16F3 SWAP2 SWAP1 PUSH2 0x1C9D JUMP JUMPDEST PUSH1 0x40 MLOAD DUP1 SWAP2 SUB SWAP1 LOG3 POP POP POP JUMP JUMPDEST PUSH2 0x170B DUP5 DUP5 DUP5 PUSH2 0x125E JUMP JUMPDEST PUSH2 0x1717 DUP5 DUP5 DUP5 DUP5 PUSH2 0x17C7 JUMP JUMPDEST PUSH2 0x1756 JUMPI PUSH1 0x40 MLOAD PUSH32 0x8C379A000000000000000000000000000000000000000000000000000000000 DUP2 MSTORE PUSH1 0x4 ADD PUSH2 0x174D SWAP1 PUSH2 0x2C22 JUMP JUMPDEST PUSH1 0x40 MLOAD DUP1 SWAP2 SUB SWAP1 REVERT JUMPDEST POP POP POP POP JUMP JUMPDEST PUSH2 0x1776 DUP3 DUP3 PUSH1 0x40 MLOAD DUP1 PUSH1 0x20 ADD PUSH1 0x40 MSTORE DUP1 PUSH1 0x0 DUP2 MSTORE POP PUSH2 0x194E JUMP JUMPDEST POP POP JUMP JUMPDEST PUSH1 0x0 DUP1 PUSH20 0xFFFFFFFFFFFFFFFFFFFFFFFFFFFFFFFFFFFFFFFF AND PUSH2 0x179C DUP4 PUSH2 0x1557 JUMP JUMPDEST PUSH20 0xFFFFFFFFFFFFFFFFFFFFFFFFFFFFFFFFFFFFFFFF AND EQ ISZERO SWAP1 POP SWAP2 SWAP1 POP JUMP JUMPDEST POP POP POP POP JUMP JUMPDEST POP POP POP POP JUMP JUMPDEST PUSH1 0x0 PUSH2 0x17E8 DUP5 PUSH20 0xFFFFFFFFFFFFFFFFFFFFFFFFFFFFFFFFFFFFFFFF AND PUSH2 0x19A9 JUMP JUMPDEST ISZERO PUSH2 0x1941 JUMPI DUP4 PUSH20 0xFFFFFFFFFFFFFFFFFFFFFFFFFFFFFFFFFFFFFFFF AND PUSH4 0x150B7A02 PUSH2 0x1811 PUSH2 0x1108 JUMP JUMPDEST DUP8 DUP7 DUP7 PUSH1 0x40 MLOAD DUP6 PUSH4 0xFFFFFFFF AND PUSH1 0xE0 SHL DUP2 MSTORE PUSH1 0x4 ADD PUSH2 0x1833 SWAP5 SWAP4 SWAP3 SWAP2 SWAP1 PUSH2 0x2C42 JUMP JUMPDEST PUSH1 0x20 PUSH1 0x40 MLOAD DUP1 DUP4 SUB DUP2 PUSH1 0x0 DUP8 GAS CALL SWAP3 POP POP POP DUP1 ISZERO PUSH2 0x186F JUMPI POP PUSH1 0x40 MLOAD RETURNDATASIZE PUSH1 0x1F NOT PUSH1 0x1F DUP3 ADD AND DUP3 ADD DUP1 PUSH1 0x40 MSTORE POP DUP2 ADD SWAP1 PUSH2 0x186C SWAP2 SWAP1 PUSH2 0x2CA3 JUMP JUMPDEST PUSH1 0x1 JUMPDEST PUSH2 0x18F1 JUMPI RETURNDATASIZE DUP1 PUSH1 0x0 DUP2 EQ PUSH2 0x189F JUMPI PUSH1 0x40 MLOAD SWAP2 POP PUSH1 0x1F NOT PUSH1 0x3F RETURNDATASIZE ADD AND DUP3 ADD PUSH1 0x40 MSTORE RETURNDATASIZE DUP3 MSTORE RETURNDATASIZE PUSH1 0x0 PUSH1 0x20 DUP5 ADD RETURNDATACOPY PUSH2 0x18A4 JUMP JUMPDEST PUSH1 0x60 SWAP2 POP JUMPDEST POP PUSH1 0x0 DUP2 MLOAD SUB PUSH2 0x18E9 JUMPI PUSH1 0x40 MLOAD PUSH32 0x8C379A000000000000000000000000000000000000000000000000000000000 DUP2 MSTORE PUSH1 0x4 ADD PUSH2 0x18E0 SWAP1 PUSH2 0x2C22 JUMP JUMPDEST PUSH1 0x40 MLOAD DUP1 SWAP2 SUB SWAP1 REVERT JUMPDEST DUP1 MLOAD DUP2 PUSH1 0x20 ADD REVERT JUMPDEST PUSH4 0x150B7A02 PUSH1 0xE0 SHL PUSH28 0xFFFFFFFFFFFFFFFFFFFFFFFFFFFFFFFFFFFFFFFFFFFFFFFFFFFFFFFF NOT AND DUP2 PUSH28 0xFFFFFFFFFFFFFFFFFFFFFFFFFFFFFFFFFFFFFFFFFFFFFFFFFFFFFFFF NOT AND EQ SWAP2 POP POP PUSH2 0x1946 JUMP JUMPDEST PUSH1 0x1 SWAP1 POP JUMPDEST SWAP5 SWAP4 POP POP POP POP JUMP JUMPDEST PUSH2 0x1958 DUP4 DUP4 PUSH2 0x19CC JUMP JUMPDEST PUSH2 0x1965 PUSH1 0x0 DUP5 DUP5 DUP5 PUSH2 0x17C7 JUMP JUMPDEST PUSH2 0x19A4 JUMPI PUSH1 0x40 MLOAD PUSH32 0x8C379A000000000000000000000000000000000000000000000000000000000 DUP2 MSTORE PUSH1 0x4 ADD PUSH2 0x199B SWAP1 PUSH2 0x2C22 JUMP JUMPDEST PUSH1 0x40 MLOAD DUP1 SWAP2 SUB SWAP1 REVERT JUMPDEST POP POP POP JUMP JUMPDEST PUSH1 0x0 DUP1 DUP3 PUSH20 0xFFFFFFFFFFFFFFFFFFFFFFFFFFFFFFFFFFFFFFFF AND EXTCODESIZE GT SWAP1 POP SWAP2 SWAP1 POP JUMP JUMPDEST PUSH1 0x0 PUSH20 0xFFFFFFFFFFFFFFFFFFFFFFFFFFFFFFFFFFFFFFFF AND DUP3 PUSH20 0xFFFFFFFFFFFFFFFFFFFFFFFFFFFFFFFFFFFFFFFF AND SUB PUSH2 0x1A3B JUMPI PUSH1 0x40 MLOAD PUSH32 0x8C379A000000000000000000000000000000000000000000000000000000000 DUP2 MSTORE PUSH1 0x4 ADD PUSH2 0x1A32 SWAP1 PUSH2 0x2D1C JUMP JUMPDEST PUSH1 0x40 MLOAD DUP1 SWAP2 SUB SWAP1 REVERT JUMPDEST PUSH2 0x1A44 DUP2 PUSH2 0x177A JUMP JUMPDEST ISZERO PUSH2 0x1A84 JUMPI PUSH1 0x40 MLOAD PUSH32 0x8C379A000000000000000000000000000000000000000000000000000000000 DUP2 MSTORE PUSH1 0x4 ADD PUSH2 0x1A7B SWAP1 PUSH2 0x2D88 JUMP JUMPDEST PUSH1 0x40 MLOAD DUP1 SWAP2 SUB SWAP1 REVERT JUMPDEST PUSH2 0x1A92 PUSH1 0x0 DUP4 DUP4 PUSH1 0x1 PUSH2 0x17BB JUMP JUMPDEST PUSH2 0x1A9B DUP2 PUSH2 0x177A JUMP JUMPDEST ISZERO PUSH2 0x1ADB JUMPI PUSH1 0x40 MLOAD PUSH32 0x8C379A000000000000000000000000000000000000000000000000000000000 DUP2 MSTORE PUSH1 0x4 ADD PUSH2 0x1AD2 SWAP1 PUSH2 0x2D88 JUMP JUMPDEST PUSH1 0x40 MLOAD DUP1 SWAP2 SUB SWAP1 REVERT JUMPDEST PUSH1 0x1 PUSH1 0x3 PUSH1 0x0 DUP5 PUSH20 0xFFFFFFFFFFFFFFFFFFFFFFFFFFFFFFFFFFFFFFFF AND PUSH20 0xFFFFFFFFFFFFFFFFFFFFFFFFFFFFFFFFFFFFFFFF AND DUP2 MSTORE PUSH1 0x20 ADD SWAP1 DUP2 MSTORE PUSH1 0x20 ADD PUSH1 0x0 KECCAK256 PUSH1 0x0 DUP3 DUP3 SLOAD ADD SWAP3 POP POP DUP2 SWAP1 SSTORE POP DUP2 PUSH1 0x2 PUSH1 0x0 DUP4 DUP2 MSTORE PUSH1 0x20 ADD SWAP1 DUP2 MSTORE PUSH1 0x20 ADD PUSH1 0x0 KECCAK256 PUSH1 0x0 PUSH2 0x100 EXP DUP2 SLOAD DUP2 PUSH20 0xFFFFFFFFFFFFFFFFFFFFFFFFFFFFFFFFFFFFFFFF MUL NOT AND SWAP1 DUP4 PUSH20 0xFFFFFFFFFFFFFFFFFFFFFFFFFFFFFFFFFFFFFFFF AND MUL OR SWAP1 SSTORE POP DUP1 DUP3 PUSH20 0xFFFFFFFFFFFFFFFFFFFFFFFFFFFFFFFFFFFFFFFF AND PUSH1 0x0 PUSH20 0xFFFFFFFFFFFFFFFFFFFFFFFFFFFFFFFFFFFFFFFF AND PUSH32 0xDDF252AD1BE2C89B69C2B068FC378DAA952BA7F163C4A11628F55A4DF523B3EF PUSH1 0x40 MLOAD PUSH1 0x40 MLOAD DUP1 SWAP2 SUB SWAP1 LOG4 PUSH2 0x1BE5 PUSH1 0x0 DUP4 DUP4 PUSH1 0x1 PUSH2 0x17C1 JUMP JUMPDEST POP POP JUMP JUMPDEST PUSH1 0x0 PUSH1 0x40 MLOAD SWAP1 POP SWAP1 JUMP JUMPDEST PUSH1 0x0 DUP1 REVERT JUMPDEST PUSH1 0x0 DUP1 REVERT JUMPDEST PUSH1 0x0 PUSH32 0xFFFFFFFF00000000000000000000000000000000000000000000000000000000 DUP3 AND SWAP1 POP SWAP2 SWAP1 POP JUMP JUMPDEST PUSH2 0x1C32 DUP2 PUSH2 0x1BFD JUMP JUMPDEST DUP2 EQ PUSH2 0x1C3D JUMPI PUSH1 0x0 DUP1 REVERT JUMPDEST POP JUMP JUMPDEST PUSH1 0x0 DUP2 CALLDATALOAD SWAP1 POP PUSH2 0x1C4F DUP2 PUSH2 0x1C29 JUMP JUMPDEST SWAP3 SWAP2 POP POP JUMP JUMPDEST PUSH1 0x0 PUSH1 0x20 DUP3 DUP5 SUB SLT ISZERO PUSH2 0x1C6B JUMPI PUSH2 0x1C6A PUSH2 0x1BF3 JUMP JUMPDEST JUMPDEST PUSH1 0x0 PUSH2 0x1C79 DUP5 DUP3 DUP6 ADD PUSH2 0x1C40 JUMP JUMPDEST SWAP2 POP POP SWAP3 SWAP2 POP POP JUMP JUMPDEST PUSH1 0x0 DUP2 ISZERO ISZERO SWAP1 POP SWAP2 SWAP1 POP JUMP JUMPDEST PUSH2 0x1C97 DUP2 PUSH2 0x1C82 JUMP JUMPDEST DUP3 MSTORE POP POP JUMP JUMPDEST PUSH1 0x0 PUSH1 0x20 DUP3 ADD SWAP1 POP PUSH2 0x1CB2 PUSH1 0x0 DUP4 ADD DUP5 PUSH2 0x1C8E JUMP JUMPDEST SWAP3 SWAP2 POP POP JUMP JUMPDEST PUSH1 0x0 DUP2 MLOAD SWAP1 POP SWAP2 SWAP1 POP JUMP JUMPDEST PUSH1 0x0 DUP3 DUP3 MSTORE PUSH1 0x20 DUP3 ADD SWAP1 POP SWAP3 SWAP2 POP POP JUMP JUMPDEST PUSH1 0x0 JUMPDEST DUP4 DUP2 LT ISZERO PUSH2 0x1CF2 JUMPI DUP1 DUP3 ADD MLOAD DUP2 DUP5 ADD MSTORE PUSH1 0x20 DUP2 ADD SWAP1 POP PUSH2 0x1CD7 JUMP JUMPDEST PUSH1 0x0 DUP5 DUP5 ADD MSTORE POP POP POP POP JUMP JUMPDEST PUSH1 0x0 PUSH1 0x1F NOT PUSH1 0x1F DUP4 ADD AND SWAP1 POP SWAP2 SWAP1 POP JUMP JUMPDEST PUSH1 0x0 PUSH2 0x1D1A DUP3 PUSH2 0x1CB8 JUMP JUMPDEST PUSH2 0x1D24 DUP2 DUP6 PUSH2 0x1CC3 JUMP JUMPDEST SWAP4 POP PUSH2 0x1D34 DUP2 DUP6 PUSH1 0x20 DUP7 ADD PUSH2 0x1CD4 JUMP JUMPDEST PUSH2 0x1D3D DUP2 PUSH2 0x1CFE JUMP JUMPDEST DUP5 ADD SWAP2 POP POP SWAP3 SWAP2 POP POP JUMP JUMPDEST PUSH1 0x0 PUSH1 0x20 DUP3 ADD SWAP1 POP DUP2 DUP2 SUB PUSH1 0x0 DUP4 ADD MSTORE PUSH2 0x1D62 DUP2 DUP5 PUSH2 0x1D0F JUMP JUMPDEST SWAP1 POP SWAP3 SWAP2 POP POP JUMP JUMPDEST PUSH1 0x0 DUP2 SWAP1 POP SWAP2 SWAP1 POP JUMP JUMPDEST PUSH2 0x1D7D DUP2 PUSH2 0x1D6A JUMP JUMPDEST DUP2 EQ PUSH2 0x1D88 JUMPI PUSH1 0x0 DUP1 REVERT JUMPDEST POP JUMP JUMPDEST PUSH1 0x0 DUP2 CALLDATALOAD SWAP1 POP PUSH2 0x1D9A DUP2 PUSH2 0x1D74 JUMP JUMPDEST SWAP3 SWAP2 POP POP JUMP JUMPDEST PUSH1 0x0 PUSH1 0x20 DUP3 DUP5 SUB SLT ISZERO PUSH2 0x1DB6 JUMPI PUSH2 0x1DB5 PUSH2 0x1BF3 JUMP JUMPDEST JUMPDEST PUSH1 0x0 PUSH2 0x1DC4 DUP5 DUP3 DUP6 ADD PUSH2 0x1D8B JUMP JUMPDEST SWAP2 POP POP SWAP3 SWAP2 POP POP JUMP JUMPDEST PUSH1 0x0 PUSH20 0xFFFFFFFFFFFFFFFFFFFFFFFFFFFFFFFFFFFFFFFF DUP3 AND SWAP1 POP SWAP2 SWAP1 POP JUMP JUMPDEST PUSH1 0x0 PUSH2 0x1DF8 DUP3 PUSH2 0x1DCD JUMP JUMPDEST SWAP1 POP SWAP2 SWAP1 POP JUMP JUMPDEST PUSH2 0x1E08 DUP2 PUSH2 0x1DED JUMP JUMPDEST DUP3 MSTORE POP POP JUMP JUMPDEST PUSH1 0x0 PUSH1 0x20 DUP3 ADD SWAP1 POP PUSH2 0x1E23 PUSH1 0x0 DUP4 ADD DUP5 PUSH2 0x1DFF JUMP JUMPDEST SWAP3 SWAP2 POP POP JUMP JUMPDEST PUSH2 0x1E32 DUP2 PUSH2 0x1DED JUMP JUMPDEST DUP2 EQ PUSH2 0x1E3D JUMPI PUSH1 0x0 DUP1 REVERT JUMPDEST POP JUMP JUMPDEST PUSH1 0x0 DUP2 CALLDATALOAD SWAP1 POP PUSH2 0x1E4F DUP2 PUSH2 0x1E29 JUMP JUMPDEST SWAP3 SWAP2 POP POP JUMP JUMPDEST PUSH1 0x0 DUP1 PUSH1 0x40 DUP4 DUP6 SUB SLT ISZERO PUSH2 0x1E6C JUMPI PUSH2 0x1E6B PUSH2 0x1BF3 JUMP JUMPDEST JUMPDEST PUSH1 0x0 PUSH2 0x1E7A DUP6 DUP3 DUP7 ADD PUSH2 0x1E40 JUMP JUMPDEST SWAP3 POP POP PUSH1 0x20 PUSH2 0x1E8B DUP6 DUP3 DUP7 ADD PUSH2 0x1D8B JUMP JUMPDEST SWAP2 POP POP SWAP3 POP SWAP3 SWAP1 POP JUMP JUMPDEST PUSH2 0x1E9E DUP2 PUSH2 0x1D6A JUMP JUMPDEST DUP3 MSTORE POP POP JUMP JUMPDEST PUSH1 0x0 PUSH1 0x20 DUP3 ADD SWAP1 POP PUSH2 0x1EB9 PUSH1 0x0 DUP4 ADD DUP5 PUSH2 0x1E95 JUMP JUMPDEST SWAP3 SWAP2 POP POP JUMP JUMPDEST PUSH1 0x0 DUP1 PUSH1 0x0 PUSH1 0x60 DUP5 DUP7 SUB SLT ISZERO PUSH2 0x1ED8 JUMPI PUSH2 0x1ED7 PUSH2 0x1BF3 JUMP JUMPDEST JUMPDEST PUSH1 0x0 PUSH2 0x1EE6 DUP7 DUP3 DUP8 ADD PUSH2 0x1E40 JUMP JUMPDEST SWAP4 POP POP PUSH1 0x20 PUSH2 0x1EF7 DUP7 DUP3 DUP8 ADD PUSH2 0x1E40 JUMP JUMPDEST SWAP3 POP POP PUSH1 0x40 PUSH2 0x1F08 DUP7 DUP3 DUP8 ADD PUSH2 0x1D8B JUMP JUMPDEST SWAP2 POP POP SWAP3 POP SWAP3 POP SWAP3 JUMP JUMPDEST PUSH1 0x0 PUSH2 0xFFFF DUP3 AND SWAP1 POP SWAP2 SWAP1 POP JUMP JUMPDEST PUSH2 0x1F29 DUP2 PUSH2 0x1F12 JUMP JUMPDEST DUP3 MSTORE POP POP JUMP JUMPDEST PUSH1 0x0 PUSH1 0x20 DUP3 ADD SWAP1 POP PUSH2 0x1F44 PUSH1 0x0 DUP4 ADD DUP5 PUSH2 0x1F20 JUMP JUMPDEST SWAP3 SWAP2 POP POP JUMP JUMPDEST PUSH1 0x0 DUP1 REVERT JUMPDEST PUSH1 0x0 DUP1 REVERT JUMPDEST PUSH1 0x0 DUP1 REVERT JUMPDEST PUSH1 0x0 DUP1 DUP4 PUSH1 0x1F DUP5 ADD SLT PUSH2 0x1F6F JUMPI PUSH2 0x1F6E PUSH2 0x1F4A JUMP JUMPDEST JUMPDEST DUP3 CALLDATALOAD SWAP1 POP PUSH8 0xFFFFFFFFFFFFFFFF DUP2 GT ISZERO PUSH2 0x1F8C JUMPI PUSH2 0x1F8B PUSH2 0x1F4F JUMP JUMPDEST JUMPDEST PUSH1 0x20 DUP4 ADD SWAP2 POP DUP4 PUSH1 0x1 DUP3 MUL DUP4 ADD GT ISZERO PUSH2 0x1FA8 JUMPI PUSH2 0x1FA7 PUSH2 0x1F54 JUMP JUMPDEST JUMPDEST SWAP3 POP SWAP3 SWAP1 POP JUMP JUMPDEST PUSH1 0x0 DUP1 PUSH1 0x20 DUP4 DUP6 SUB SLT ISZERO PUSH2 0x1FC6 JUMPI PUSH2 0x1FC5 PUSH2 0x1BF3 JUMP JUMPDEST JUMPDEST PUSH1 0x0 DUP4 ADD CALLDATALOAD PUSH8 0xFFFFFFFFFFFFFFFF DUP2 GT ISZERO PUSH2 0x1FE4 JUMPI PUSH2 0x1FE3 PUSH2 0x1BF8 JUMP JUMPDEST JUMPDEST PUSH2 0x1FF0 DUP6 DUP3 DUP7 ADD PUSH2 0x1F59 JUMP JUMPDEST SWAP3 POP SWAP3 POP POP SWAP3 POP SWAP3 SWAP1 POP JUMP JUMPDEST PUSH1 0x0 DUP2 MLOAD SWAP1 POP SWAP2 SWAP1 POP JUMP JUMPDEST PUSH1 0x0 DUP3 DUP3 MSTORE PUSH1 0x20 DUP3 ADD SWAP1 POP SWAP3 SWAP2 POP POP JUMP JUMPDEST PUSH1 0x0 PUSH2 0x2023 DUP3 PUSH2 0x1FFC JUMP JUMPDEST PUSH2 0x202D DUP2 DUP6 PUSH2 0x2007 JUMP JUMPDEST SWAP4 POP PUSH2 0x203D DUP2 DUP6 PUSH1 0x20 DUP7 ADD PUSH2 0x1CD4 JUMP JUMPDEST PUSH2 0x2046 DUP2 PUSH2 0x1CFE JUMP JUMPDEST DUP5 ADD SWAP2 POP POP SWAP3 SWAP2 POP POP JUMP JUMPDEST PUSH1 0x0 PUSH1 0x40 DUP3 ADD SWAP1 POP PUSH2 0x2066 PUSH1 0x0 DUP4 ADD DUP6 PUSH2 0x1C8E JUMP JUMPDEST DUP2 DUP2 SUB PUSH1 0x20 DUP4 ADD MSTORE PUSH2 0x2078 DUP2 DUP5 PUSH2 0x2018 JUMP JUMPDEST SWAP1 POP SWAP4 SWAP3 POP POP POP JUMP JUMPDEST PUSH1 0x0 PUSH1 0x20 DUP3 DUP5 SUB SLT ISZERO PUSH2 0x2097 JUMPI PUSH2 0x2096 PUSH2 0x1BF3 JUMP JUMPDEST JUMPDEST PUSH1 0x0 PUSH2 0x20A5 DUP5 DUP3 DUP6 ADD PUSH2 0x1E40 JUMP JUMPDEST SWAP2 POP POP SWAP3 SWAP2 POP POP JUMP JUMPDEST PUSH2 0x20B7 DUP2 PUSH2 0x1C82 JUMP JUMPDEST DUP2 EQ PUSH2 0x20C2 JUMPI PUSH1 0x0 DUP1 REVERT JUMPDEST POP JUMP JUMPDEST PUSH1 0x0 DUP2 CALLDATALOAD SWAP1 POP PUSH2 0x20D4 DUP2 PUSH2 0x20AE JUMP JUMPDEST SWAP3 SWAP2 POP POP JUMP JUMPDEST PUSH1 0x0 DUP1 PUSH1 0x40 DUP4 DUP6 SUB SLT ISZERO PUSH2 0x20F1 JUMPI PUSH2 0x20F0 PUSH2 0x1BF3 JUMP JUMPDEST JUMPDEST PUSH1 0x0 PUSH2 0x20FF DUP6 DUP3 DUP7 ADD PUSH2 0x1E40 JUMP JUMPDEST SWAP3 POP POP PUSH1 0x20 PUSH2 0x2110 DUP6 DUP3 DUP7 ADD PUSH2 0x20C5 JUMP JUMPDEST SWAP2 POP POP SWAP3 POP SWAP3 SWAP1 POP JUMP JUMPDEST PUSH1 0x0 DUP1 REVERT JUMPDEST PUSH32 0x4E487B7100000000000000000000000000000000000000000000000000000000 PUSH1 0x0 MSTORE PUSH1 0x41 PUSH1 0x4 MSTORE PUSH1 0x24 PUSH1 0x0 REVERT JUMPDEST PUSH2 0x2157 DUP3 PUSH2 0x1CFE JUMP JUMPDEST DUP2 ADD DUP2 DUP2 LT PUSH8 0xFFFFFFFFFFFFFFFF DUP3 GT OR ISZERO PUSH2 0x2176 JUMPI PUSH2 0x2175 PUSH2 0x211F JUMP JUMPDEST JUMPDEST DUP1 PUSH1 0x40 MSTORE POP POP POP JUMP JUMPDEST PUSH1 0x0 PUSH2 0x2189 PUSH2 0x1BE9 JUMP JUMPDEST SWAP1 POP PUSH2 0x2195 DUP3 DUP3 PUSH2 0x214E JUMP JUMPDEST SWAP2 SWAP1 POP JUMP JUMPDEST PUSH1 0x0 PUSH8 0xFFFFFFFFFFFFFFFF DUP3 GT ISZERO PUSH2 0x21B5 JUMPI PUSH2 0x21B4 PUSH2 0x211F JUMP JUMPDEST JUMPDEST PUSH2 0x21BE DUP3 PUSH2 0x1CFE JUMP JUMPDEST SWAP1 POP PUSH1 0x20 DUP2 ADD SWAP1 POP SWAP2 SWAP1 POP JUMP JUMPDEST DUP3 DUP2 DUP4 CALLDATACOPY PUSH1 0x0 DUP4 DUP4 ADD MSTORE POP POP POP JUMP JUMPDEST PUSH1 0x0 PUSH2 0x21ED PUSH2 0x21E8 DUP5 PUSH2 0x219A JUMP JUMPDEST PUSH2 0x217F JUMP JUMPDEST SWAP1 POP DUP3 DUP2 MSTORE PUSH1 0x20 DUP2 ADD DUP5 DUP5 DUP5 ADD GT ISZERO PUSH2 0x2209 JUMPI PUSH2 0x2208 PUSH2 0x211A JUMP JUMPDEST JUMPDEST PUSH2 0x2214 DUP5 DUP3 DUP6 PUSH2 0x21CB JUMP JUMPDEST POP SWAP4 SWAP3 POP POP POP JUMP JUMPDEST PUSH1 0x0 DUP3 PUSH1 0x1F DUP4 ADD SLT PUSH2 0x2231 JUMPI PUSH2 0x2230 PUSH2 0x1F4A JUMP JUMPDEST JUMPDEST DUP2 CALLDATALOAD PUSH2 0x2241 DUP5 DUP3 PUSH1 0x20 DUP7 ADD PUSH2 0x21DA JUMP JUMPDEST SWAP2 POP POP SWAP3 SWAP2 POP POP JUMP JUMPDEST PUSH1 0x0 DUP1 PUSH1 0x0 DUP1 PUSH1 0x80 DUP6 DUP8 SUB SLT ISZERO PUSH2 0x2264 JUMPI PUSH2 0x2263 PUSH2 0x1BF3 JUMP JUMPDEST JUMPDEST PUSH1 0x0 PUSH2 0x2272 DUP8 DUP3 DUP9 ADD PUSH2 0x1E40 JUMP JUMPDEST SWAP5 POP POP PUSH1 0x20 PUSH2 0x2283 DUP8 DUP3 DUP9 ADD PUSH2 0x1E40 JUMP JUMPDEST SWAP4 POP POP PUSH1 0x40 PUSH2 0x2294 DUP8 DUP3 DUP9 ADD PUSH2 0x1D8B JUMP JUMPDEST SWAP3 POP POP PUSH1 0x60 DUP6 ADD CALLDATALOAD PUSH8 0xFFFFFFFFFFFFFFFF DUP2 GT ISZERO PUSH2 0x22B5 JUMPI PUSH2 0x22B4 PUSH2 0x1BF8 JUMP JUMPDEST JUMPDEST PUSH2 0x22C1 DUP8 DUP3 DUP9 ADD PUSH2 0x221C JUMP JUMPDEST SWAP2 POP POP SWAP3 SWAP6 SWAP2 SWAP5 POP SWAP3 POP JUMP JUMPDEST PUSH1 0x0 PUSH8 0xFFFFFFFFFFFFFFFF DUP3 GT ISZERO PUSH2 0x22E8 JUMPI PUSH2 0x22E7 PUSH2 0x211F JUMP JUMPDEST JUMPDEST PUSH2 0x22F1 DUP3 PUSH2 0x1CFE JUMP JUMPDEST SWAP1 POP PUSH1 0x20 DUP2 ADD SWAP1 POP SWAP2 SWAP1 POP JUMP JUMPDEST PUSH1 0x0 PUSH2 0x2311 PUSH2 0x230C DUP5 PUSH2 0x22CD JUMP JUMPDEST PUSH2 0x217F JUMP JUMPDEST SWAP1 POP DUP3 DUP2 MSTORE PUSH1 0x20 DUP2 ADD DUP5 DUP5 DUP5 ADD GT ISZERO PUSH2 0x232D JUMPI PUSH2 0x232C PUSH2 0x211A JUMP JUMPDEST JUMPDEST PUSH2 0x2338 DUP5 DUP3 DUP6 PUSH2 0x21CB JUMP JUMPDEST POP SWAP4 SWAP3 POP POP POP JUMP JUMPDEST PUSH1 0x0 DUP3 PUSH1 0x1F DUP4 ADD SLT PUSH2 0x2355 JUMPI PUSH2 0x2354 PUSH2 0x1F4A JUMP JUMPDEST JUMPDEST DUP2 CALLDATALOAD PUSH2 0x2365 DUP5 DUP3 PUSH1 0x20 DUP7 ADD PUSH2 0x22FE JUMP JUMPDEST SWAP2 POP POP SWAP3 SWAP2 POP POP JUMP JUMPDEST PUSH1 0x0 DUP1 PUSH1 0x40 DUP4 DUP6 SUB SLT ISZERO PUSH2 0x2385 JUMPI PUSH2 0x2384 PUSH2 0x1BF3 JUMP JUMPDEST JUMPDEST PUSH1 0x0 PUSH2 0x2393 DUP6 DUP3 DUP7 ADD PUSH2 0x1E40 JUMP JUMPDEST SWAP3 POP POP PUSH1 0x20 DUP4 ADD CALLDATALOAD PUSH8 0xFFFFFFFFFFFFFFFF DUP2 GT ISZERO PUSH2 0x23B4 JUMPI PUSH2 0x23B3 PUSH2 0x1BF8 JUMP JUMPDEST JUMPDEST PUSH2 0x23C0 DUP6 DUP3 DUP7 ADD PUSH2 0x2340 JUMP JUMPDEST SWAP2 POP POP SWAP3 POP SWAP3 SWAP1 POP JUMP JUMPDEST PUSH1 0x0 DUP1 PUSH1 0x40 DUP4 DUP6 SUB SLT ISZERO PUSH2 0x23E1 JUMPI PUSH2 0x23E0 PUSH2 0x1BF3 JUMP JUMPDEST JUMPDEST PUSH1 0x0 PUSH2 0x23EF DUP6 DUP3 DUP7 ADD PUSH2 0x1E40 JUMP JUMPDEST SWAP3 POP POP PUSH1 0x20 PUSH2 0x2400 DUP6 DUP3 DUP7 ADD PUSH2 0x1E40 JUMP JUMPDEST SWAP2 POP POP SWAP3 POP SWAP3 SWAP1 POP JUMP JUMPDEST PUSH32 0x4E487B7100000000000000000000000000000000000000000000000000000000 PUSH1 0x0 MSTORE PUSH1 0x22 PUSH1 0x4 MSTORE PUSH1 0x24 PUSH1 0x0 REVERT JUMPDEST PUSH1 0x0 PUSH1 0x2 DUP3 DIV SWAP1 POP PUSH1 0x1 DUP3 AND DUP1 PUSH2 0x2451 JUMPI PUSH1 0x7F DUP3 AND SWAP2 POP JUMPDEST PUSH1 0x20 DUP3 LT DUP2 SUB PUSH2 0x2464 JUMPI PUSH2 0x2463 PUSH2 0x240A JUMP JUMPDEST JUMPDEST POP SWAP2 SWAP1 POP JUMP JUMPDEST PUSH32 0x4552433732313A20617070726F76616C20746F2063757272656E74206F776E65 PUSH1 0x0 DUP3 ADD MSTORE PUSH32 0x7200000000000000000000000000000000000000000000000000000000000000 PUSH1 0x20 DUP3 ADD MSTORE POP JUMP JUMPDEST PUSH1 0x0 PUSH2 0x24C6 PUSH1 0x21 DUP4 PUSH2 0x1CC3 JUMP JUMPDEST SWAP2 POP PUSH2 0x24D1 DUP3 PUSH2 0x246A JUMP JUMPDEST PUSH1 0x40 DUP3 ADD SWAP1 POP SWAP2 SWAP1 POP JUMP JUMPDEST PUSH1 0x0 PUSH1 0x20 DUP3 ADD SWAP1 POP DUP2 DUP2 SUB PUSH1 0x0 DUP4 ADD MSTORE PUSH2 0x24F5 DUP2 PUSH2 0x24B9 JUMP JUMPDEST SWAP1 POP SWAP2 SWAP1 POP JUMP JUMPDEST PUSH32 0x4552433732313A20617070726F76652063616C6C6572206973206E6F7420746F PUSH1 0x0 DUP3 ADD MSTORE PUSH32 0x6B656E206F776E6572206F7220617070726F76656420666F7220616C6C000000 PUSH1 0x20 DUP3 ADD MSTORE POP JUMP JUMPDEST PUSH1 0x0 PUSH2 0x2558 PUSH1 0x3D DUP4 PUSH2 0x1CC3 JUMP JUMPDEST SWAP2 POP PUSH2 0x2563 DUP3 PUSH2 0x24FC JUMP JUMPDEST PUSH1 0x40 DUP3 ADD SWAP1 POP SWAP2 SWAP1 POP JUMP JUMPDEST PUSH1 0x0 PUSH1 0x20 DUP3 ADD SWAP1 POP DUP2 DUP2 SUB PUSH1 0x0 DUP4 ADD MSTORE PUSH2 0x2587 DUP2 PUSH2 0x254B JUMP JUMPDEST SWAP1 POP SWAP2 SWAP1 POP JUMP JUMPDEST PUSH32 0x4572726F7220746F6B656E204944000000000000000000000000000000000000 PUSH1 0x0 DUP3 ADD MSTORE POP JUMP JUMPDEST PUSH1 0x0 PUSH2 0x25C4 PUSH1 0xE DUP4 PUSH2 0x1CC3 JUMP JUMPDEST SWAP2 POP PUSH2 0x25CF DUP3 PUSH2 0x258E JUMP JUMPDEST PUSH1 0x20 DUP3 ADD SWAP1 POP SWAP2 SWAP1 POP JUMP JUMPDEST PUSH1 0x0 PUSH1 0x20 DUP3 ADD SWAP1 POP DUP2 DUP2 SUB PUSH1 0x0 DUP4 ADD MSTORE PUSH2 0x25F3 DUP2 PUSH2 0x25B7 JUMP JUMPDEST SWAP1 POP SWAP2 SWAP1 POP JUMP JUMPDEST PUSH32 0x4E487B7100000000000000000000000000000000000000000000000000000000 PUSH1 0x0 MSTORE PUSH1 0x11 PUSH1 0x4 MSTORE PUSH1 0x24 PUSH1 0x0 REVERT JUMPDEST PUSH1 0x0 PUSH2 0x2634 DUP3 PUSH2 0x1D6A JUMP JUMPDEST SWAP2 POP PUSH32 0xFFFFFFFFFFFFFFFFFFFFFFFFFFFFFFFFFFFFFFFFFFFFFFFFFFFFFFFFFFFFFFFF DUP3 SUB PUSH2 0x2666 JUMPI PUSH2 0x2665 PUSH2 0x25FA JUMP JUMPDEST JUMPDEST PUSH1 0x1 DUP3 ADD SWAP1 POP SWAP2 SWAP1 POP JUMP JUMPDEST PUSH32 0x4552433732313A2063616C6C6572206973206E6F7420746F6B656E206F776E65 PUSH1 0x0 DUP3 ADD MSTORE PUSH32 0x72206F7220617070726F76656400000000000000000000000000000000000000 PUSH1 0x20 DUP3 ADD MSTORE POP JUMP JUMPDEST PUSH1 0x0 PUSH2 0x26CD PUSH1 0x2D DUP4 PUSH2 0x1CC3 JUMP JUMPDEST SWAP2 POP PUSH2 0x26D8 DUP3 PUSH2 0x2671 JUMP JUMPDEST PUSH1 0x40 DUP3 ADD SWAP1 POP SWAP2 SWAP1 POP JUMP JUMPDEST PUSH1 0x0 PUSH1 0x20 DUP3 ADD SWAP1 POP DUP2 DUP2 SUB PUSH1 0x0 DUP4 ADD MSTORE PUSH2 0x26FC DUP2 PUSH2 0x26C0 JUMP JUMPDEST SWAP1 POP SWAP2 SWAP1 POP JUMP JUMPDEST PUSH1 0x0 PUSH2 0x270E DUP3 PUSH2 0x1D6A JUMP JUMPDEST SWAP2 POP PUSH2 0x2719 DUP4 PUSH2 0x1D6A JUMP JUMPDEST SWAP3 POP DUP3 DUP3 SUB SWAP1 POP DUP2 DUP2 GT ISZERO PUSH2 0x2731 JUMPI PUSH2 0x2730 PUSH2 0x25FA JUMP JUMPDEST JUMPDEST SWAP3 SWAP2 POP POP JUMP JUMPDEST PUSH32 0x4552433732313A20696E76616C696420746F6B656E2049440000000000000000 PUSH1 0x0 DUP3 ADD MSTORE POP JUMP JUMPDEST PUSH1 0x0 PUSH2 0x276D PUSH1 0x18 DUP4 PUSH2 0x1CC3 JUMP JUMPDEST SWAP2 POP PUSH2 0x2778 DUP3 PUSH2 0x2737 JUMP JUMPDEST PUSH1 0x20 DUP3 ADD SWAP1 POP SWAP2 SWAP1 POP JUMP JUMPDEST PUSH1 0x0 PUSH1 0x20 DUP3 ADD SWAP1 POP DUP2 DUP2 SUB PUSH1 0x0 DUP4 ADD MSTORE PUSH2 0x279C DUP2 PUSH2 0x2760 JUMP JUMPDEST SWAP1 POP SWAP2 SWAP1 POP JUMP JUMPDEST PUSH32 0x4552433732313A2061646472657373207A65726F206973206E6F742061207661 PUSH1 0x0 DUP3 ADD MSTORE PUSH32 0x6C6964206F776E65720000000000000000000000000000000000000000000000 PUSH1 0x20 DUP3 ADD MSTORE POP JUMP JUMPDEST PUSH1 0x0 PUSH2 0x27FF PUSH1 0x29 DUP4 PUSH2 0x1CC3 JUMP JUMPDEST SWAP2 POP PUSH2 0x280A DUP3 PUSH2 0x27A3 JUMP JUMPDEST PUSH1 0x40 DUP3 ADD SWAP1 POP SWAP2 SWAP1 POP JUMP JUMPDEST PUSH1 0x0 PUSH1 0x20 DUP3 ADD SWAP1 POP DUP2 DUP2 SUB PUSH1 0x0 DUP4 ADD MSTORE PUSH2 0x282E DUP2 PUSH2 0x27F2 JUMP JUMPDEST SWAP1 POP SWAP2 SWAP1 POP JUMP JUMPDEST PUSH32 0x4E487B7100000000000000000000000000000000000000000000000000000000 PUSH1 0x0 MSTORE PUSH1 0x32 PUSH1 0x4 MSTORE PUSH1 0x24 PUSH1 0x0 REVERT JUMPDEST PUSH32 0x526564206D757920636F6E637572726964612C20696E74656E746520656E2075 PUSH1 0x0 DUP3 ADD MSTORE PUSH32 0x6E207261746F0000000000000000000000000000000000000000000000000000 PUSH1 0x20 DUP3 ADD MSTORE POP JUMP JUMPDEST PUSH1 0x0 PUSH2 0x28C0 PUSH1 0x26 DUP4 PUSH2 0x1CC3 JUMP JUMPDEST SWAP2 POP PUSH2 0x28CB DUP3 PUSH2 0x2864 JUMP JUMPDEST PUSH1 0x40 DUP3 ADD SWAP1 POP SWAP2 SWAP1 POP JUMP JUMPDEST PUSH1 0x0 PUSH1 0x20 DUP3 ADD SWAP1 POP DUP2 DUP2 SUB PUSH1 0x0 DUP4 ADD MSTORE PUSH2 0x28EF DUP2 PUSH2 0x28B3 JUMP JUMPDEST SWAP1 POP SWAP2 SWAP1 POP JUMP JUMPDEST PUSH32 0x4E6F2073652070756564656E206D696E74656172206D6173204E465400000000 PUSH1 0x0 DUP3 ADD MSTORE POP JUMP JUMPDEST PUSH1 0x0 PUSH2 0x292C PUSH1 0x1C DUP4 PUSH2 0x1CC3 JUMP JUMPDEST SWAP2 POP PUSH2 0x2937 DUP3 PUSH2 0x28F6 JUMP JUMPDEST PUSH1 0x20 DUP3 ADD SWAP1 POP SWAP2 SWAP1 POP JUMP JUMPDEST PUSH1 0x0 PUSH1 0x20 DUP3 ADD SWAP1 POP DUP2 DUP2 SUB PUSH1 0x0 DUP4 ADD MSTORE PUSH2 0x295B DUP2 PUSH2 0x291F JUMP JUMPDEST SWAP1 POP SWAP2 SWAP1 POP JUMP JUMPDEST PUSH1 0x0 PUSH2 0x296D DUP3 PUSH2 0x1F12 JUMP JUMPDEST SWAP2 POP PUSH2 0xFFFF DUP3 SUB PUSH2 0x2981 JUMPI PUSH2 0x2980 PUSH2 0x25FA JUMP JUMPDEST JUMPDEST PUSH1 0x1 DUP3 ADD SWAP1 POP SWAP2 SWAP1 POP JUMP JUMPDEST PUSH1 0x0 PUSH2 0x2997 DUP3 PUSH2 0x1D6A JUMP JUMPDEST SWAP2 POP PUSH2 0x29A2 DUP4 PUSH2 0x1D6A JUMP JUMPDEST SWAP3 POP DUP3 DUP3 ADD SWAP1 POP DUP1 DUP3 GT ISZERO PUSH2 0x29BA JUMPI PUSH2 0x29B9 PUSH2 0x25FA JUMP JUMPDEST JUMPDEST SWAP3 SWAP2 POP POP JUMP JUMPDEST PUSH32 0x4E487B7100000000000000000000000000000000000000000000000000000000 PUSH1 0x0 MSTORE PUSH1 0x12 PUSH1 0x4 MSTORE PUSH1 0x24 PUSH1 0x0 REVERT JUMPDEST PUSH1 0x0 PUSH2 0x29FA DUP3 PUSH2 0x1D6A JUMP JUMPDEST SWAP2 POP PUSH2 0x2A05 DUP4 PUSH2 0x1D6A JUMP JUMPDEST SWAP3 POP DUP3 PUSH2 0x2A15 JUMPI PUSH2 0x2A14 PUSH2 0x29C0 JUMP JUMPDEST JUMPDEST DUP3 DUP3 MOD SWAP1 POP SWAP3 SWAP2 POP POP JUMP JUMPDEST PUSH32 0x4552433732313A207472616E736665722066726F6D20696E636F727265637420 PUSH1 0x0 DUP3 ADD MSTORE PUSH32 0x6F776E6572000000000000000000000000000000000000000000000000000000 PUSH1 0x20 DUP3 ADD MSTORE POP JUMP JUMPDEST PUSH1 0x0 PUSH2 0x2A7C PUSH1 0x25 DUP4 PUSH2 0x1CC3 JUMP JUMPDEST SWAP2 POP PUSH2 0x2A87 DUP3 PUSH2 0x2A20 JUMP JUMPDEST PUSH1 0x40 DUP3 ADD SWAP1 POP SWAP2 SWAP1 POP JUMP JUMPDEST PUSH1 0x0 PUSH1 0x20 DUP3 ADD SWAP1 POP DUP2 DUP2 SUB PUSH1 0x0 DUP4 ADD MSTORE PUSH2 0x2AAB DUP2 PUSH2 0x2A6F JUMP JUMPDEST SWAP1 POP SWAP2 SWAP1 POP JUMP JUMPDEST PUSH32 0x4552433732313A207472616E7366657220746F20746865207A65726F20616464 PUSH1 0x0 DUP3 ADD MSTORE PUSH32 0x7265737300000000000000000000000000000000000000000000000000000000 PUSH1 0x20 DUP3 ADD MSTORE POP JUMP JUMPDEST PUSH1 0x0 PUSH2 0x2B0E PUSH1 0x24 DUP4 PUSH2 0x1CC3 JUMP JUMPDEST SWAP2 POP PUSH2 0x2B19 DUP3 PUSH2 0x2AB2 JUMP JUMPDEST PUSH1 0x40 DUP3 ADD SWAP1 POP SWAP2 SWAP1 POP JUMP JUMPDEST PUSH1 0x0 PUSH1 0x20 DUP3 ADD SWAP1 POP DUP2 DUP2 SUB PUSH1 0x0 DUP4 ADD MSTORE PUSH2 0x2B3D DUP2 PUSH2 0x2B01 JUMP JUMPDEST SWAP1 POP SWAP2 SWAP1 POP JUMP JUMPDEST PUSH32 0x4552433732313A20617070726F766520746F2063616C6C657200000000000000 PUSH1 0x0 DUP3 ADD MSTORE POP JUMP JUMPDEST PUSH1 0x0 PUSH2 0x2B7A PUSH1 0x19 DUP4 PUSH2 0x1CC3 JUMP JUMPDEST SWAP2 POP PUSH2 0x2B85 DUP3 PUSH2 0x2B44 JUMP JUMPDEST PUSH1 0x20 DUP3 ADD SWAP1 POP SWAP2 SWAP1 POP JUMP JUMPDEST PUSH1 0x0 PUSH1 0x20 DUP3 ADD SWAP1 POP DUP2 DUP2 SUB PUSH1 0x0 DUP4 ADD MSTORE PUSH2 0x2BA9 DUP2 PUSH2 0x2B6D JUMP JUMPDEST SWAP1 POP SWAP2 SWAP1 POP JUMP JUMPDEST PUSH32 0x4552433732313A207472616E7366657220746F206E6F6E204552433732315265 PUSH1 0x0 DUP3 ADD MSTORE PUSH32 0x63656976657220696D706C656D656E7465720000000000000000000000000000 PUSH1 0x20 DUP3 ADD MSTORE POP JUMP JUMPDEST PUSH1 0x0 PUSH2 0x2C0C PUSH1 0x32 DUP4 PUSH2 0x1CC3 JUMP JUMPDEST SWAP2 POP PUSH2 0x2C17 DUP3 PUSH2 0x2BB0 JUMP JUMPDEST PUSH1 0x40 DUP3 ADD SWAP1 POP SWAP2 SWAP1 POP JUMP JUMPDEST PUSH1 0x0 PUSH1 0x20 DUP3 ADD SWAP1 POP DUP2 DUP2 SUB PUSH1 0x0 DUP4 ADD MSTORE PUSH2 0x2C3B DUP2 PUSH2 0x2BFF JUMP JUMPDEST SWAP1 POP SWAP2 SWAP1 POP JUMP JUMPDEST PUSH1 0x0 PUSH1 0x80 DUP3 ADD SWAP1 POP PUSH2 0x2C57 PUSH1 0x0 DUP4 ADD DUP8 PUSH2 0x1DFF JUMP JUMPDEST PUSH2 0x2C64 PUSH1 0x20 DUP4 ADD DUP7 PUSH2 0x1DFF JUMP JUMPDEST PUSH2 0x2C71 PUSH1 0x40 DUP4 ADD DUP6 PUSH2 0x1E95 JUMP JUMPDEST DUP2 DUP2 SUB PUSH1 0x60 DUP4 ADD MSTORE PUSH2 0x2C83 DUP2 DUP5 PUSH2 0x2018 JUMP JUMPDEST SWAP1 POP SWAP6 SWAP5 POP POP POP POP POP JUMP JUMPDEST PUSH1 0x0 DUP2 MLOAD SWAP1 POP PUSH2 0x2C9D DUP2 PUSH2 0x1C29 JUMP JUMPDEST SWAP3 SWAP2 POP POP JUMP JUMPDEST PUSH1 0x0 PUSH1 0x20 DUP3 DUP5 SUB SLT ISZERO PUSH2 0x2CB9 JUMPI PUSH2 0x2CB8 PUSH2 0x1BF3 JUMP JUMPDEST JUMPDEST PUSH1 0x0 PUSH2 0x2CC7 DUP5 DUP3 DUP6 ADD PUSH2 0x2C8E JUMP JUMPDEST SWAP2 POP POP SWAP3 SWAP2 POP POP JUMP JUMPDEST PUSH32 0x4552433732313A206D696E7420746F20746865207A65726F2061646472657373 PUSH1 0x0 DUP3 ADD MSTORE POP JUMP JUMPDEST PUSH1 0x0 PUSH2 0x2D06 PUSH1 0x20 DUP4 PUSH2 0x1CC3 JUMP JUMPDEST SWAP2 POP PUSH2 0x2D11 DUP3 PUSH2 0x2CD0 JUMP JUMPDEST PUSH1 0x20 DUP3 ADD SWAP1 POP SWAP2 SWAP1 POP JUMP JUMPDEST PUSH1 0x0 PUSH1 0x20 DUP3 ADD SWAP1 POP DUP2 DUP2 SUB PUSH1 0x0 DUP4 ADD MSTORE PUSH2 0x2D35 DUP2 PUSH2 0x2CF9 JUMP JUMPDEST SWAP1 POP SWAP2 SWAP1 POP JUMP JUMPDEST PUSH32 0x4552433732313A20746F6B656E20616C7265616479206D696E74656400000000 PUSH1 0x0 DUP3 ADD MSTORE POP JUMP JUMPDEST PUSH1 0x0 PUSH2 0x2D72 PUSH1 0x1C DUP4 PUSH2 0x1CC3 JUMP JUMPDEST SWAP2 POP PUSH2 0x2D7D DUP3 PUSH2 0x2D3C JUMP JUMPDEST PUSH1 0x20 DUP3 ADD SWAP1 POP SWAP2 SWAP1 POP JUMP JUMPDEST PUSH1 0x0 PUSH1 0x20 DUP3 ADD SWAP1 POP DUP2 DUP2 SUB PUSH1 0x0 DUP4 ADD MSTORE PUSH2 0x2DA1 DUP2 PUSH2 0x2D65 JUMP JUMPDEST SWAP1 POP SWAP2 SWAP1 POP JUMP INVALID LOG2 PUSH5 0x6970667358 0x22 SLT KECCAK256 ADDMOD LT OR 0xD2 SWAP2 SWAP6 DUP11 0xC2 SSTORE MULMOD GASPRICE 0xEC PUSH26 0xF4E039DE6C947ED369A9ECE204BAB575DA3C7664736F6C634300 ADDMOD SLT STOP CALLER PUSH9 0x747470733A2F2F6970 PUSH7 0x732E696F2F6970 PUSH7 0x732F516D57584A PUSH20 0x54656A5034363838645A66657248523437357555 POP PUSH12 0x3161584632334D4A4C5A5355 POP PUSH11 0x6876634B2F73746174655F ADDRESS 0x2E PUSH11 0x736F6E68747470733A2F2F PUSH10 0x7066732E696F2F697066 PUSH20 0x2F516D57584A7354656A5034363838645A666572 BASEFEE MSTORE CALLVALUE CALLDATACOPY CALLDATALOAD PUSH22 0x55506B3161584632334D4A4C5A5355506A6876634B2F PUSH20 0x746174655F322E6A736F6E68747470733A2F2F69 PUSH17 0x66732E696F2F697066732F516D57584A73 SLOAD PUSH6 0x6A5034363838 PUSH5 0x5A66657248 MSTORE CALLVALUE CALLDATACOPY CALLDATALOAD PUSH22 0x55506B3161584632334D4A4C5A5355506A6876634B2F PUSH20 0x746174655F312E6A736F6E000000000000000000 "
		},
		"gasEstimates": {
			"creation": {
				"codeDepositCost": "2348400",
				"executionCost": "infinite",
				"totalCost": "infinite"
			},
			"external": {
				"_tokenIdCounter()": "2560",
				"approve(address,uint256)": "infinite",
				"balanceOf(address)": "2943",
				"checkUpkeep(bytes)": "infinite",
				"gerUriById(uint256)": "infinite",
				"getApproved(uint256)": "5300",
				"getNFTStaus(uint256)": "infinite",
				"getTotalMinted()": "2591",
				"interval()": "infinite",
				"isApprovedForAll(address,address)": "infinite",
				"lastTimeStamp()": "2518",
				"maxMintableNFTs()": "infinite",
				"name()": "infinite",
				"ownerOf(uint256)": "3022",
				"performUpkeep(bytes)": "infinite",
				"safeMint(address,string)": "infinite",
				"safeTransferFrom(address,address,uint256)": "infinite",
				"safeTransferFrom(address,address,uint256,bytes)": "infinite",
				"setApprovalForAll(address,bool)": "infinite",
				"supportsInterface(bytes4)": "797",
				"symbol()": "infinite",
				"tokenURI(uint256)": "infinite",
				"transferFrom(address,address,uint256)": "infinite",
				"updateAllStatus()": "infinite",
				"updateStatus(uint256)": "infinite"
			},
			"internal": {
				"_burn(uint256)": "infinite"
			}
		},
		"methodIdentifiers": {
			"_tokenIdCounter()": "84c4bd4b",
			"approve(address,uint256)": "095ea7b3",
			"balanceOf(address)": "70a08231",
			"checkUpkeep(bytes)": "6e04ff0d",
			"gerUriById(uint256)": "997e97ee",
			"getApproved(uint256)": "081812fc",
			"getNFTStaus(uint256)": "18661731",
			"getTotalMinted()": "0ca1c5c9",
			"interval()": "947a36fb",
			"isApprovedForAll(address,address)": "e985e9c5",
			"lastTimeStamp()": "3f3b3b27",
			"maxMintableNFTs()": "38641d6a",
			"name()": "06fdde03",
			"ownerOf(uint256)": "6352211e",
			"performUpkeep(bytes)": "4585e33b",
			"safeMint(address,string)": "d204c45e",
			"safeTransferFrom(address,address,uint256)": "42842e0e",
			"safeTransferFrom(address,address,uint256,bytes)": "b88d4fde",
			"setApprovalForAll(address,bool)": "a22cb465",
			"supportsInterface(bytes4)": "01ffc9a7",
			"symbol()": "95d89b41",
			"tokenURI(uint256)": "c87b56dd",
			"transferFrom(address,address,uint256)": "23b872dd",
			"updateAllStatus()": "2074d35c",
			"updateStatus(uint256)": "d61e7201"
		}
	},
	"abi": [
		{
			"inputs": [
				{
					"internalType": "uint16",
					"name": "_interval",
					"type": "uint16"
				},
				{
					"internalType": "uint16",
					"name": "_maxMintableNFTs",
					"type": "uint16"
				}
			],
			"stateMutability": "nonpayable",
			"type": "constructor"
		},
		{
			"anonymous": false,
			"inputs": [
				{
					"indexed": true,
					"internalType": "address",
					"name": "owner",
					"type": "address"
				},
				{
					"indexed": true,
					"internalType": "address",
					"name": "approved",
					"type": "address"
				},
				{
					"indexed": true,
					"internalType": "uint256",
					"name": "tokenId",
					"type": "uint256"
				}
			],
			"name": "Approval",
			"type": "event"
		},
		{
			"anonymous": false,
			"inputs": [
				{
					"indexed": true,
					"internalType": "address",
					"name": "owner",
					"type": "address"
				},
				{
					"indexed": true,
					"internalType": "address",
					"name": "operator",
					"type": "address"
				},
				{
					"indexed": false,
					"internalType": "bool",
					"name": "approved",
					"type": "bool"
				}
			],
			"name": "ApprovalForAll",
			"type": "event"
		},
		{
			"anonymous": false,
			"inputs": [
				{
					"indexed": true,
					"internalType": "address",
					"name": "from",
					"type": "address"
				},
				{
					"indexed": true,
					"internalType": "address",
					"name": "to",
					"type": "address"
				},
				{
					"indexed": true,
					"internalType": "uint256",
					"name": "tokenId",
					"type": "uint256"
				}
			],
			"name": "Transfer",
			"type": "event"
		},
		{
			"inputs": [],
			"name": "_tokenIdCounter",
			"outputs": [
				{
					"internalType": "uint16",
					"name": "",
					"type": "uint16"
				}
			],
			"stateMutability": "view",
			"type": "function"
		},
		{
			"inputs": [
				{
					"internalType": "address",
					"name": "to",
					"type": "address"
				},
				{
					"internalType": "uint256",
					"name": "tokenId",
					"type": "uint256"
				}
			],
			"name": "approve",
			"outputs": [],
			"stateMutability": "nonpayable",
			"type": "function"
		},
		{
			"inputs": [
				{
					"internalType": "address",
					"name": "owner",
					"type": "address"
				}
			],
			"name": "balanceOf",
			"outputs": [
				{
					"internalType": "uint256",
					"name": "",
					"type": "uint256"
				}
			],
			"stateMutability": "view",
			"type": "function"
		},
		{
			"inputs": [
				{
					"internalType": "bytes",
					"name": "",
					"type": "bytes"
				}
			],
			"name": "checkUpkeep",
			"outputs": [
				{
					"internalType": "bool",
					"name": "upkeepNeeded",
					"type": "bool"
				},
				{
					"internalType": "bytes",
					"name": "",
					"type": "bytes"
				}
			],
			"stateMutability": "view",
			"type": "function"
		},
		{
			"inputs": [
				{
					"internalType": "uint256",
					"name": "_tokenId",
					"type": "uint256"
				}
			],
			"name": "gerUriById",
			"outputs": [
				{
					"internalType": "string",
					"name": "",
					"type": "string"
				}
			],
			"stateMutability": "view",
			"type": "function"
		},
		{
			"inputs": [
				{
					"internalType": "uint256",
					"name": "tokenId",
					"type": "uint256"
				}
			],
			"name": "getApproved",
			"outputs": [
				{
					"internalType": "address",
					"name": "",
					"type": "address"
				}
			],
			"stateMutability": "view",
			"type": "function"
		},
		{
			"inputs": [
				{
					"internalType": "uint256",
					"name": "_tokenId",
					"type": "uint256"
				}
			],
			"name": "getNFTStaus",
			"outputs": [
				{
					"internalType": "uint256",
					"name": "",
					"type": "uint256"
				}
			],
			"stateMutability": "view",
			"type": "function"
		},
		{
			"inputs": [],
			"name": "getTotalMinted",
			"outputs": [
				{
					"internalType": "uint256",
					"name": "",
					"type": "uint256"
				}
			],
			"stateMutability": "view",
			"type": "function"
		},
		{
			"inputs": [],
			"name": "interval",
			"outputs": [
				{
					"internalType": "uint16",
					"name": "",
					"type": "uint16"
				}
			],
			"stateMutability": "view",
			"type": "function"
		},
		{
			"inputs": [
				{
					"internalType": "address",
					"name": "owner",
					"type": "address"
				},
				{
					"internalType": "address",
					"name": "operator",
					"type": "address"
				}
			],
			"name": "isApprovedForAll",
			"outputs": [
				{
					"internalType": "bool",
					"name": "",
					"type": "bool"
				}
			],
			"stateMutability": "view",
			"type": "function"
		},
		{
			"inputs": [],
			"name": "lastTimeStamp",
			"outputs": [
				{
					"internalType": "uint256",
					"name": "",
					"type": "uint256"
				}
			],
			"stateMutability": "view",
			"type": "function"
		},
		{
			"inputs": [],
			"name": "maxMintableNFTs",
			"outputs": [
				{
					"internalType": "uint16",
					"name": "",
					"type": "uint16"
				}
			],
			"stateMutability": "view",
			"type": "function"
		},
		{
			"inputs": [],
			"name": "name",
			"outputs": [
				{
					"internalType": "string",
					"name": "",
					"type": "string"
				}
			],
			"stateMutability": "view",
			"type": "function"
		},
		{
			"inputs": [
				{
					"internalType": "uint256",
					"name": "tokenId",
					"type": "uint256"
				}
			],
			"name": "ownerOf",
			"outputs": [
				{
					"internalType": "address",
					"name": "",
					"type": "address"
				}
			],
			"stateMutability": "view",
			"type": "function"
		},
		{
			"inputs": [
				{
					"internalType": "bytes",
					"name": "",
					"type": "bytes"
				}
			],
			"name": "performUpkeep",
			"outputs": [],
			"stateMutability": "nonpayable",
			"type": "function"
		},
		{
			"inputs": [
				{
					"internalType": "address",
					"name": "to",
					"type": "address"
				},
				{
					"internalType": "string",
					"name": "",
					"type": "string"
				}
			],
			"name": "safeMint",
			"outputs": [],
			"stateMutability": "nonpayable",
			"type": "function"
		},
		{
			"inputs": [
				{
					"internalType": "address",
					"name": "from",
					"type": "address"
				},
				{
					"internalType": "address",
					"name": "to",
					"type": "address"
				},
				{
					"internalType": "uint256",
					"name": "tokenId",
					"type": "uint256"
				}
			],
			"name": "safeTransferFrom",
			"outputs": [],
			"stateMutability": "nonpayable",
			"type": "function"
		},
		{
			"inputs": [
				{
					"internalType": "address",
					"name": "from",
					"type": "address"
				},
				{
					"internalType": "address",
					"name": "to",
					"type": "address"
				},
				{
					"internalType": "uint256",
					"name": "tokenId",
					"type": "uint256"
				},
				{
					"internalType": "bytes",
					"name": "data",
					"type": "bytes"
				}
			],
			"name": "safeTransferFrom",
			"outputs": [],
			"stateMutability": "nonpayable",
			"type": "function"
		},
		{
			"inputs": [
				{
					"internalType": "address",
					"name": "operator",
					"type": "address"
				},
				{
					"internalType": "bool",
					"name": "approved",
					"type": "bool"
				}
			],
			"name": "setApprovalForAll",
			"outputs": [],
			"stateMutability": "nonpayable",
			"type": "function"
		},
		{
			"inputs": [
				{
					"internalType": "bytes4",
					"name": "interfaceId",
					"type": "bytes4"
				}
			],
			"name": "supportsInterface",
			"outputs": [
				{
					"internalType": "bool",
					"name": "",
					"type": "bool"
				}
			],
			"stateMutability": "view",
			"type": "function"
		},
		{
			"inputs": [],
			"name": "symbol",
			"outputs": [
				{
					"internalType": "string",
					"name": "",
					"type": "string"
				}
			],
			"stateMutability": "view",
			"type": "function"
		},
		{
			"inputs": [
				{
					"internalType": "uint256",
					"name": "_tokenId",
					"type": "uint256"
				}
			],
			"name": "tokenURI",
			"outputs": [
				{
					"internalType": "string",
					"name": "",
					"type": "string"
				}
			],
			"stateMutability": "view",
			"type": "function"
		},
		{
			"inputs": [
				{
					"internalType": "address",
					"name": "from",
					"type": "address"
				},
				{
					"internalType": "address",
					"name": "to",
					"type": "address"
				},
				{
					"internalType": "uint256",
					"name": "tokenId",
					"type": "uint256"
				}
			],
			"name": "transferFrom",
			"outputs": [],
			"stateMutability": "nonpayable",
			"type": "function"
		},
		{
			"inputs": [],
			"name": "updateAllStatus",
			"outputs": [],
			"stateMutability": "nonpayable",
			"type": "function"
		},
		{
			"inputs": [
				{
					"internalType": "uint256",
					"name": "_tokenId",
					"type": "uint256"
				}
			],
			"name": "updateStatus",
			"outputs": [],
			"stateMutability": "nonpayable",
			"type": "function"
		}
	]
}