{
	"data": {
		"bytecode": {
			"linkReferences": {},
			"object": "60a060405260405180606001604052806040518060800160405280604f81526020016200311b604f913981526020016040518060800160405280604f81526020016200316a604f913981526020016040518060800160405280604f8152602001620030cc604f9139815250600b9060036200007c92919062000160565b503480156200008a57600080fd5b50604051620031b9380380620031b98339818101604052810190620000b091906200028d565b6040518060400160405280600481526020017f644e4654000000000000000000000000000000000000000000000000000000008152506040518060400160405280600381526020017f415249000000000000000000000000000000000000000000000000000000000081525081600090816200012d91906200052f565b5080600190816200013f91906200052f565b50505080608081815250504260098190555060006008819055505062000616565b828054828255906000526020600020908101928215620001ad579160200282015b82811115620001ac5782518290816200019b91906200052f565b509160200191906001019062000181565b5b509050620001bc9190620001c0565b5090565b5b80821115620001e45760008181620001da9190620001e8565b50600101620001c1565b5090565b508054620001f69062000328565b6000825580601f106200020a57506200022b565b601f0160209004906000526020600020908101906200022a91906200022e565b5b50565b5b80821115620002495760008160009055506001016200022f565b5090565b600080fd5b6000819050919050565b620002678162000252565b81146200027357600080fd5b50565b60008151905062000287816200025c565b92915050565b600060208284031215620002a657620002a56200024d565b5b6000620002b68482850162000276565b91505092915050565b600081519050919050565b7f4e487b7100000000000000000000000000000000000000000000000000000000600052604160045260246000fd5b7f4e487b7100000000000000000000000000000000000000000000000000000000600052602260045260246000fd5b600060028204905060018216806200034157607f821691505b602082108103620003575762000356620002f9565b5b50919050565b60008190508160005260206000209050919050565b60006020601f8301049050919050565b600082821b905092915050565b600060088302620003c17fffffffffffffffffffffffffffffffffffffffffffffffffffffffffffffffff8262000382565b620003cd868362000382565b95508019841693508086168417925050509392505050565b6000819050919050565b6000620004106200040a620004048462000252565b620003e5565b62000252565b9050919050565b6000819050919050565b6200042c83620003ef565b620004446200043b8262000417565b8484546200038f565b825550505050565b600090565b6200045b6200044c565b6200046881848462000421565b505050565b5b8181101562000490576200048460008262000451565b6001810190506200046e565b5050565b601f821115620004df57620004a9816200035d565b620004b48462000372565b81016020851015620004c4578190505b620004dc620004d38562000372565b8301826200046d565b50505b505050565b600082821c905092915050565b60006200050460001984600802620004e4565b1980831691505092915050565b60006200051f8383620004f1565b9150826002028217905092915050565b6200053a82620002bf565b67ffffffffffffffff811115620005565762000555620002ca565b5b62000562825462000328565b6200056f82828562000494565b600060209050601f831160018114620005a7576000841562000592578287015190505b6200059e858262000511565b8655506200060e565b601f198416620005b7866200035d565b60005b82811015620005e157848901518255600182019150602085019450602081019050620005ba565b86831015620006015784890151620005fd601f891682620004f1565b8355505b6001600288020188555050505b505050505050565b608051612a8c6200064060003960008181610879015281816109520152610a420152612a8c6000f3fe608060405234801561001057600080fd5b506004361061014d5760003560e01c80636352211e116100c3578063a22cb4651161007c578063a22cb465146103b3578063b88d4fde146103cf578063c87b56dd146103eb578063d204c45e1461041b578063d61e720114610437578063e985e9c5146104535761014d565b80636352211e146102b65780636e04ff0d146102e657806370a0823114610317578063947a36fb1461034757806395d89b4114610365578063997e97ee146103835761014d565b80632074d35c116101155780632074d35c1461021c57806323b872dd146102265780633f3b3b271461024257806342842e0e146102605780634585e33b1461027c57806361bc221a146102985761014d565b806301ffc9a71461015257806306fdde0314610182578063081812fc146101a0578063095ea7b3146101d057806318661731146101ec575b600080fd5b61016c60048036038101906101679190611a63565b610483565b6040516101799190611aab565b60405180910390f35b61018a610565565b6040516101979190611b56565b60405180910390f35b6101ba60048036038101906101b59190611bae565b6105f7565b6040516101c79190611c1c565b60405180910390f35b6101ea60048036038101906101e59190611c63565b61063d565b005b61020660048036038101906102019190611bae565b610754565b6040516102139190611cb2565b60405180910390f35b6102246107be565b005b610240600480360381019061023b9190611ccd565b6107f1565b005b61024a610851565b6040516102579190611cb2565b60405180910390f35b61027a60048036038101906102759190611ccd565b610857565b005b61029660048036038101906102919190611d85565b610877565b005b6102a06108c0565b6040516102ad9190611cb2565b60405180910390f35b6102d060048036038101906102cb9190611bae565b6108c6565b6040516102dd9190611c1c565b60405180910390f35b61030060048036038101906102fb9190611d85565b61094c565b60405161030e929190611e27565b60405180910390f35b610331600480360381019061032c9190611e57565b610989565b60405161033e9190611cb2565b60405180910390f35b61034f610a40565b60405161035c9190611cb2565b60405180910390f35b61036d610a64565b60405161037a9190611b56565b60405180910390f35b61039d60048036038101906103989190611bae565b610af6565b6040516103aa9190611b56565b60405180910390f35b6103cd60048036038101906103c89190611eb0565b610bfb565b005b6103e960048036038101906103e49190612020565b610c11565b005b61040560048036038101906104009190611bae565b610c73565b6040516104129190611b56565b60405180910390f35b61043560048036038101906104309190612144565b610cd2565b005b610451600480360381019061044c9190611bae565b610d12565b005b61046d600480360381019061046891906121a0565b610da9565b60405161047a9190611aab565b60405180910390f35b60007f80ac58cd000000000000000000000000000000000000000000000000000000007bffffffffffffffffffffffffffffffffffffffffffffffffffffffff1916827bffffffffffffffffffffffffffffffffffffffffffffffffffffffff1916148061054e57507f5b5e139f000000000000000000000000000000000000000000000000000000007bffffffffffffffffffffffffffffffffffffffffffffffffffffffff1916827bffffffffffffffffffffffffffffffffffffffffffffffffffffffff1916145b8061055e575061055d82610e3d565b5b9050919050565b6060600080546105749061220f565b80601f01602080910402602001604051908101604052809291908181526020018280546105a09061220f565b80156105ed5780601f106105c2576101008083540402835291602001916105ed565b820191906000526020600020905b8154815290600101906020018083116105d057829003601f168201915b5050505050905090565b600061060282610ea7565b6004600083815260200190815260200160002060009054906101000a900473ffffffffffffffffffffffffffffffffffffffff169050919050565b6000610648826108c6565b90508073ffffffffffffffffffffffffffffffffffffffff168373ffffffffffffffffffffffffffffffffffffffff16036106b8576040517f08c379a00000000000000000000000000000000000000000000000000000000081526004016106af906122b2565b60405180910390fd5b8073ffffffffffffffffffffffffffffffffffffffff166106d7610ef2565b73ffffffffffffffffffffffffffffffffffffffff161480610706575061070581610700610ef2565b610da9565b5b610745576040517f08c379a000000000000000000000000000000000000000000000000000000000815260040161073c90612344565b60405180910390fd5b61074f8383610efa565b505050565b6000816107616007610fb3565b81106107a2576040517f08c379a0000000000000000000000000000000000000000000000000000000008152600401610799906123b0565b60405180910390fd5b600a600084815260200190815260200160002054915050919050565b60005b6107cb6007610fb3565b8110156107ee576107db81610d12565b80806107e6906123ff565b9150506107c1565b50565b6108026107fc610ef2565b82610fc1565b610841576040517f08c379a0000000000000000000000000000000000000000000000000000000008152600401610838906124b9565b60405180910390fd5b61084c838383611056565b505050565b60095481565b61087283838360405180602001604052806000815250610c11565b505050565b7f0000000000000000000000000000000000000000000000000000000000000000600954426108a691906124d9565b11156108bc57426009819055506108bb6107be565b5b5050565b60085481565b6000806108d28361134f565b9050600073ffffffffffffffffffffffffffffffffffffffff168173ffffffffffffffffffffffffffffffffffffffff1603610943576040517f08c379a000000000000000000000000000000000000000000000000000000000815260040161093a90612559565b60405180910390fd5b80915050919050565b600060607f00000000000000000000000000000000000000000000000000000000000000006009544261097f91906124d9565b1191509250929050565b60008073ffffffffffffffffffffffffffffffffffffffff168273ffffffffffffffffffffffffffffffffffffffff16036109f9576040517f08c379a00000000000000000000000000000000000000000000000000000000081526004016109f0906125eb565b60405180910390fd5b600360008373ffffffffffffffffffffffffffffffffffffffff1673ffffffffffffffffffffffffffffffffffffffff168152602001908152602001600020549050919050565b7f000000000000000000000000000000000000000000000000000000000000000081565b606060018054610a739061220f565b80601f0160208091040260200160405190810160405280929190818152602001828054610a9f9061220f565b8015610aec5780601f10610ac157610100808354040283529160200191610aec565b820191906000526020600020905b815481529060010190602001808311610acf57829003601f168201915b5050505050905090565b606081610b036007610fb3565b8110610b44576040517f08c379a0000000000000000000000000000000000000000000000000000000008152600401610b3b906123b0565b60405180910390fd5b600b610b4f84610754565b81548110610b6057610b5f61260b565b5b906000526020600020018054610b759061220f565b80601f0160208091040260200160405190810160405280929190818152602001828054610ba19061220f565b8015610bee5780601f10610bc357610100808354040283529160200191610bee565b820191906000526020600020905b815481529060010190602001808311610bd157829003601f168201915b5050505050915050919050565b610c0d610c06610ef2565b838361138c565b5050565b610c22610c1c610ef2565b83610fc1565b610c61576040517f08c379a0000000000000000000000000000000000000000000000000000000008152600401610c58906124b9565b60405180910390fd5b610c6d848484846114f8565b50505050565b606081610c806007610fb3565b8110610cc1576040517f08c379a0000000000000000000000000000000000000000000000000000000008152600401610cb8906123b0565b60405180910390fd5b610cca83610af6565b915050919050565b6000610cde6007610fb3565b9050610cea6007611554565b610cf4838261156a565b6000600a600083815260200190815260200160002081905550505050565b80610d1d6007610fb3565b8110610d5e576040517f08c379a0000000000000000000000000000000000000000000000000000000008152600401610d55906123b0565b60405180910390fd5b600b805490506001600a600085815260200190815260200160002054610d84919061263a565b610d8e919061269d565b600a6000848152602001908152602001600020819055505050565b6000600560008473ffffffffffffffffffffffffffffffffffffffff1673ffffffffffffffffffffffffffffffffffffffff16815260200190815260200160002060008373ffffffffffffffffffffffffffffffffffffffff1673ffffffffffffffffffffffffffffffffffffffff16815260200190815260200160002060009054906101000a900460ff16905092915050565b60007f01ffc9a7000000000000000000000000000000000000000000000000000000007bffffffffffffffffffffffffffffffffffffffffffffffffffffffff1916827bffffffffffffffffffffffffffffffffffffffffffffffffffffffff1916149050919050565b610eb081611588565b610eef576040517f08c379a0000000000000000000000000000000000000000000000000000000008152600401610ee690612559565b60405180910390fd5b50565b600033905090565b816004600083815260200190815260200160002060006101000a81548173ffffffffffffffffffffffffffffffffffffffff021916908373ffffffffffffffffffffffffffffffffffffffff160217905550808273ffffffffffffffffffffffffffffffffffffffff16610f6d836108c6565b73ffffffffffffffffffffffffffffffffffffffff167f8c5be1e5ebec7d5bd14f71427d1e84f3dd0314c0f7b2291e5b200ac8c7c3b92560405160405180910390a45050565b600081600001549050919050565b600080610fcd836108c6565b90508073ffffffffffffffffffffffffffffffffffffffff168473ffffffffffffffffffffffffffffffffffffffff16148061100f575061100e8185610da9565b5b8061104d57508373ffffffffffffffffffffffffffffffffffffffff16611035846105f7565b73ffffffffffffffffffffffffffffffffffffffff16145b91505092915050565b8273ffffffffffffffffffffffffffffffffffffffff16611076826108c6565b73ffffffffffffffffffffffffffffffffffffffff16146110cc576040517f08c379a00000000000000000000000000000000000000000000000000000000081526004016110c390612740565b60405180910390fd5b600073ffffffffffffffffffffffffffffffffffffffff168273ffffffffffffffffffffffffffffffffffffffff160361113b576040517f08c379a0000000000000000000000000000000000000000000000000000000008152600401611132906127d2565b60405180910390fd5b61114883838360016115c9565b8273ffffffffffffffffffffffffffffffffffffffff16611168826108c6565b73ffffffffffffffffffffffffffffffffffffffff16146111be576040517f08c379a00000000000000000000000000000000000000000000000000000000081526004016111b590612740565b60405180910390fd5b6004600082815260200190815260200160002060006101000a81549073ffffffffffffffffffffffffffffffffffffffff02191690556001600360008573ffffffffffffffffffffffffffffffffffffffff1673ffffffffffffffffffffffffffffffffffffffff168152602001908152602001600020600082825403925050819055506001600360008473ffffffffffffffffffffffffffffffffffffffff1673ffffffffffffffffffffffffffffffffffffffff16815260200190815260200160002060008282540192505081905550816002600083815260200190815260200160002060006101000a81548173ffffffffffffffffffffffffffffffffffffffff021916908373ffffffffffffffffffffffffffffffffffffffff160217905550808273ffffffffffffffffffffffffffffffffffffffff168473ffffffffffffffffffffffffffffffffffffffff167fddf252ad1be2c89b69c2b068fc378daa952ba7f163c4a11628f55a4df523b3ef60405160405180910390a461134a83838360016115cf565b505050565b60006002600083815260200190815260200160002060009054906101000a900473ffffffffffffffffffffffffffffffffffffffff169050919050565b8173ffffffffffffffffffffffffffffffffffffffff168373ffffffffffffffffffffffffffffffffffffffff16036113fa576040517f08c379a00000000000000000000000000000000000000000000000000000000081526004016113f19061283e565b60405180910390fd5b80600560008573ffffffffffffffffffffffffffffffffffffffff1673ffffffffffffffffffffffffffffffffffffffff16815260200190815260200160002060008473ffffffffffffffffffffffffffffffffffffffff1673ffffffffffffffffffffffffffffffffffffffff16815260200190815260200160002060006101000a81548160ff0219169083151502179055508173ffffffffffffffffffffffffffffffffffffffff168373ffffffffffffffffffffffffffffffffffffffff167f17307eab39ab6107e8899845ad3d59bd9653f200f220920489ca2b5937696c31836040516114eb9190611aab565b60405180910390a3505050565b611503848484611056565b61150f848484846115d5565b61154e576040517f08c379a0000000000000000000000000000000000000000000000000000000008152600401611545906128d0565b60405180910390fd5b50505050565b6001816000016000828254019250508190555050565b61158482826040518060200160405280600081525061175c565b5050565b60008073ffffffffffffffffffffffffffffffffffffffff166115aa8361134f565b73ffffffffffffffffffffffffffffffffffffffff1614159050919050565b50505050565b50505050565b60006115f68473ffffffffffffffffffffffffffffffffffffffff166117b7565b1561174f578373ffffffffffffffffffffffffffffffffffffffff1663150b7a0261161f610ef2565b8786866040518563ffffffff1660e01b815260040161164194939291906128f0565b6020604051808303816000875af192505050801561167d57506040513d601f19601f8201168201806040525081019061167a9190612951565b60015b6116ff573d80600081146116ad576040519150601f19603f3d011682016040523d82523d6000602084013e6116b2565b606091505b5060008151036116f7576040517f08c379a00000000000000000000000000000000000000000000000000000000081526004016116ee906128d0565b60405180910390fd5b805181602001fd5b63150b7a0260e01b7bffffffffffffffffffffffffffffffffffffffffffffffffffffffff1916817bffffffffffffffffffffffffffffffffffffffffffffffffffffffff191614915050611754565b600190505b949350505050565b61176683836117da565b61177360008484846115d5565b6117b2576040517f08c379a00000000000000000000000000000000000000000000000000000000081526004016117a9906128d0565b60405180910390fd5b505050565b6000808273ffffffffffffffffffffffffffffffffffffffff163b119050919050565b600073ffffffffffffffffffffffffffffffffffffffff168273ffffffffffffffffffffffffffffffffffffffff1603611849576040517f08c379a0000000000000000000000000000000000000000000000000000000008152600401611840906129ca565b60405180910390fd5b61185281611588565b15611892576040517f08c379a000000000000000000000000000000000000000000000000000000000815260040161188990612a36565b60405180910390fd5b6118a06000838360016115c9565b6118a981611588565b156118e9576040517f08c379a00000000000000000000000000000000000000000000000000000000081526004016118e090612a36565b60405180910390fd5b6001600360008473ffffffffffffffffffffffffffffffffffffffff1673ffffffffffffffffffffffffffffffffffffffff16815260200190815260200160002060008282540192505081905550816002600083815260200190815260200160002060006101000a81548173ffffffffffffffffffffffffffffffffffffffff021916908373ffffffffffffffffffffffffffffffffffffffff160217905550808273ffffffffffffffffffffffffffffffffffffffff16600073ffffffffffffffffffffffffffffffffffffffff167fddf252ad1be2c89b69c2b068fc378daa952ba7f163c4a11628f55a4df523b3ef60405160405180910390a46119f36000838360016115cf565b5050565b6000604051905090565b600080fd5b600080fd5b60007fffffffff0000000000000000000000000000000000000000000000000000000082169050919050565b611a4081611a0b565b8114611a4b57600080fd5b50565b600081359050611a5d81611a37565b92915050565b600060208284031215611a7957611a78611a01565b5b6000611a8784828501611a4e565b91505092915050565b60008115159050919050565b611aa581611a90565b82525050565b6000602082019050611ac06000830184611a9c565b92915050565b600081519050919050565b600082825260208201905092915050565b60005b83811015611b00578082015181840152602081019050611ae5565b60008484015250505050565b6000601f19601f8301169050919050565b6000611b2882611ac6565b611b328185611ad1565b9350611b42818560208601611ae2565b611b4b81611b0c565b840191505092915050565b60006020820190508181036000830152611b708184611b1d565b905092915050565b6000819050919050565b611b8b81611b78565b8114611b9657600080fd5b50565b600081359050611ba881611b82565b92915050565b600060208284031215611bc457611bc3611a01565b5b6000611bd284828501611b99565b91505092915050565b600073ffffffffffffffffffffffffffffffffffffffff82169050919050565b6000611c0682611bdb565b9050919050565b611c1681611bfb565b82525050565b6000602082019050611c316000830184611c0d565b92915050565b611c4081611bfb565b8114611c4b57600080fd5b50565b600081359050611c5d81611c37565b92915050565b60008060408385031215611c7a57611c79611a01565b5b6000611c8885828601611c4e565b9250506020611c9985828601611b99565b9150509250929050565b611cac81611b78565b82525050565b6000602082019050611cc76000830184611ca3565b92915050565b600080600060608486031215611ce657611ce5611a01565b5b6000611cf486828701611c4e565b9350506020611d0586828701611c4e565b9250506040611d1686828701611b99565b9150509250925092565b600080fd5b600080fd5b600080fd5b60008083601f840112611d4557611d44611d20565b5b8235905067ffffffffffffffff811115611d6257611d61611d25565b5b602083019150836001820283011115611d7e57611d7d611d2a565b5b9250929050565b60008060208385031215611d9c57611d9b611a01565b5b600083013567ffffffffffffffff811115611dba57611db9611a06565b5b611dc685828601611d2f565b92509250509250929050565b600081519050919050565b600082825260208201905092915050565b6000611df982611dd2565b611e038185611ddd565b9350611e13818560208601611ae2565b611e1c81611b0c565b840191505092915050565b6000604082019050611e3c6000830185611a9c565b8181036020830152611e4e8184611dee565b90509392505050565b600060208284031215611e6d57611e6c611a01565b5b6000611e7b84828501611c4e565b91505092915050565b611e8d81611a90565b8114611e9857600080fd5b50565b600081359050611eaa81611e84565b92915050565b60008060408385031215611ec757611ec6611a01565b5b6000611ed585828601611c4e565b9250506020611ee685828601611e9b565b9150509250929050565b600080fd5b7f4e487b7100000000000000000000000000000000000000000000000000000000600052604160045260246000fd5b611f2d82611b0c565b810181811067ffffffffffffffff82111715611f4c57611f4b611ef5565b5b80604052505050565b6000611f5f6119f7565b9050611f6b8282611f24565b919050565b600067ffffffffffffffff821115611f8b57611f8a611ef5565b5b611f9482611b0c565b9050602081019050919050565b82818337600083830152505050565b6000611fc3611fbe84611f70565b611f55565b905082815260208101848484011115611fdf57611fde611ef0565b5b611fea848285611fa1565b509392505050565b600082601f83011261200757612006611d20565b5b8135612017848260208601611fb0565b91505092915050565b6000806000806080858703121561203a57612039611a01565b5b600061204887828801611c4e565b945050602061205987828801611c4e565b935050604061206a87828801611b99565b925050606085013567ffffffffffffffff81111561208b5761208a611a06565b5b61209787828801611ff2565b91505092959194509250565b600067ffffffffffffffff8211156120be576120bd611ef5565b5b6120c782611b0c565b9050602081019050919050565b60006120e76120e2846120a3565b611f55565b90508281526020810184848401111561210357612102611ef0565b5b61210e848285611fa1565b509392505050565b600082601f83011261212b5761212a611d20565b5b813561213b8482602086016120d4565b91505092915050565b6000806040838503121561215b5761215a611a01565b5b600061216985828601611c4e565b925050602083013567ffffffffffffffff81111561218a57612189611a06565b5b61219685828601612116565b9150509250929050565b600080604083850312156121b7576121b6611a01565b5b60006121c585828601611c4e565b92505060206121d685828601611c4e565b9150509250929050565b7f4e487b7100000000000000000000000000000000000000000000000000000000600052602260045260246000fd5b6000600282049050600182168061222757607f821691505b60208210810361223a576122396121e0565b5b50919050565b7f4552433732313a20617070726f76616c20746f2063757272656e74206f776e6560008201527f7200000000000000000000000000000000000000000000000000000000000000602082015250565b600061229c602183611ad1565b91506122a782612240565b604082019050919050565b600060208201905081810360008301526122cb8161228f565b9050919050565b7f4552433732313a20617070726f76652063616c6c6572206973206e6f7420746f60008201527f6b656e206f776e6572206f7220617070726f76656420666f7220616c6c000000602082015250565b600061232e603d83611ad1565b9150612339826122d2565b604082019050919050565b6000602082019050818103600083015261235d81612321565b9050919050565b7f4572726f7220746f6b656e204944000000000000000000000000000000000000600082015250565b600061239a600e83611ad1565b91506123a582612364565b602082019050919050565b600060208201905081810360008301526123c98161238d565b9050919050565b7f4e487b7100000000000000000000000000000000000000000000000000000000600052601160045260246000fd5b600061240a82611b78565b91507fffffffffffffffffffffffffffffffffffffffffffffffffffffffffffffffff820361243c5761243b6123d0565b5b600182019050919050565b7f4552433732313a2063616c6c6572206973206e6f7420746f6b656e206f776e6560008201527f72206f7220617070726f76656400000000000000000000000000000000000000602082015250565b60006124a3602d83611ad1565b91506124ae82612447565b604082019050919050565b600060208201905081810360008301526124d281612496565b9050919050565b60006124e482611b78565b91506124ef83611b78565b9250828203905081811115612507576125066123d0565b5b92915050565b7f4552433732313a20696e76616c696420746f6b656e2049440000000000000000600082015250565b6000612543601883611ad1565b915061254e8261250d565b602082019050919050565b6000602082019050818103600083015261257281612536565b9050919050565b7f4552433732313a2061646472657373207a65726f206973206e6f74206120766160008201527f6c6964206f776e65720000000000000000000000000000000000000000000000602082015250565b60006125d5602983611ad1565b91506125e082612579565b604082019050919050565b60006020820190508181036000830152612604816125c8565b9050919050565b7f4e487b7100000000000000000000000000000000000000000000000000000000600052603260045260246000fd5b600061264582611b78565b915061265083611b78565b9250828201905080821115612668576126676123d0565b5b92915050565b7f4e487b7100000000000000000000000000000000000000000000000000000000600052601260045260246000fd5b60006126a882611b78565b91506126b383611b78565b9250826126c3576126c261266e565b5b828206905092915050565b7f4552433732313a207472616e736665722066726f6d20696e636f72726563742060008201527f6f776e6572000000000000000000000000000000000000000000000000000000602082015250565b600061272a602583611ad1565b9150612735826126ce565b604082019050919050565b600060208201905081810360008301526127598161271d565b9050919050565b7f4552433732313a207472616e7366657220746f20746865207a65726f2061646460008201527f7265737300000000000000000000000000000000000000000000000000000000602082015250565b60006127bc602483611ad1565b91506127c782612760565b604082019050919050565b600060208201905081810360008301526127eb816127af565b9050919050565b7f4552433732313a20617070726f766520746f2063616c6c657200000000000000600082015250565b6000612828601983611ad1565b9150612833826127f2565b602082019050919050565b600060208201905081810360008301526128578161281b565b9050919050565b7f4552433732313a207472616e7366657220746f206e6f6e20455243373231526560008201527f63656976657220696d706c656d656e7465720000000000000000000000000000602082015250565b60006128ba603283611ad1565b91506128c58261285e565b604082019050919050565b600060208201905081810360008301526128e9816128ad565b9050919050565b60006080820190506129056000830187611c0d565b6129126020830186611c0d565b61291f6040830185611ca3565b81810360608301526129318184611dee565b905095945050505050565b60008151905061294b81611a37565b92915050565b60006020828403121561296757612966611a01565b5b60006129758482850161293c565b91505092915050565b7f4552433732313a206d696e7420746f20746865207a65726f2061646472657373600082015250565b60006129b4602083611ad1565b91506129bf8261297e565b602082019050919050565b600060208201905081810360008301526129e3816129a7565b9050919050565b7f4552433732313a20746f6b656e20616c7265616479206d696e74656400000000600082015250565b6000612a20601c83611ad1565b9150612a2b826129ea565b602082019050919050565b60006020820190508181036000830152612a4f81612a13565b905091905056fea2646970667358221220087e02ab80dcce59b90bbcb4ab728fd3674e2bfa7c7679aaff5c4ae08815e1e764736f6c6343000812003368747470733a2f2f697066732e696f2f697066732f516d52384c7a79786e62443432466b555650757a5457794e7a6933634e34427134376e68626f53677935624b77562f73746174655f322e6a706768747470733a2f2f697066732e696f2f697066732f516d52384c7a79786e62443432466b555650757a5457794e7a6933634e34427134376e68626f53677935624b77562f73746174655f302e6a706768747470733a2f2f697066732e696f2f697066732f516d52384c7a79786e62443432466b555650757a5457794e7a6933634e34427134376e68626f53677935624b77562f73746174655f312e6a7067",
			"opcodes": "PUSH1 0xA0 PUSH1 0x40 MSTORE PUSH1 0x40 MLOAD DUP1 PUSH1 0x60 ADD PUSH1 0x40 MSTORE DUP1 PUSH1 0x40 MLOAD DUP1 PUSH1 0x80 ADD PUSH1 0x40 MSTORE DUP1 PUSH1 0x4F DUP2 MSTORE PUSH1 0x20 ADD PUSH3 0x311B PUSH1 0x4F SWAP2 CODECOPY DUP2 MSTORE PUSH1 0x20 ADD PUSH1 0x40 MLOAD DUP1 PUSH1 0x80 ADD PUSH1 0x40 MSTORE DUP1 PUSH1 0x4F DUP2 MSTORE PUSH1 0x20 ADD PUSH3 0x316A PUSH1 0x4F SWAP2 CODECOPY DUP2 MSTORE PUSH1 0x20 ADD PUSH1 0x40 MLOAD DUP1 PUSH1 0x80 ADD PUSH1 0x40 MSTORE DUP1 PUSH1 0x4F DUP2 MSTORE PUSH1 0x20 ADD PUSH3 0x30CC PUSH1 0x4F SWAP2 CODECOPY DUP2 MSTORE POP PUSH1 0xB SWAP1 PUSH1 0x3 PUSH3 0x7C SWAP3 SWAP2 SWAP1 PUSH3 0x160 JUMP JUMPDEST POP CALLVALUE DUP1 ISZERO PUSH3 0x8A JUMPI PUSH1 0x0 DUP1 REVERT JUMPDEST POP PUSH1 0x40 MLOAD PUSH3 0x31B9 CODESIZE SUB DUP1 PUSH3 0x31B9 DUP4 CODECOPY DUP2 DUP2 ADD PUSH1 0x40 MSTORE DUP2 ADD SWAP1 PUSH3 0xB0 SWAP2 SWAP1 PUSH3 0x28D JUMP JUMPDEST PUSH1 0x40 MLOAD DUP1 PUSH1 0x40 ADD PUSH1 0x40 MSTORE DUP1 PUSH1 0x4 DUP2 MSTORE PUSH1 0x20 ADD PUSH32 0x644E465400000000000000000000000000000000000000000000000000000000 DUP2 MSTORE POP PUSH1 0x40 MLOAD DUP1 PUSH1 0x40 ADD PUSH1 0x40 MSTORE DUP1 PUSH1 0x3 DUP2 MSTORE PUSH1 0x20 ADD PUSH32 0x4152490000000000000000000000000000000000000000000000000000000000 DUP2 MSTORE POP DUP2 PUSH1 0x0 SWAP1 DUP2 PUSH3 0x12D SWAP2 SWAP1 PUSH3 0x52F JUMP JUMPDEST POP DUP1 PUSH1 0x1 SWAP1 DUP2 PUSH3 0x13F SWAP2 SWAP1 PUSH3 0x52F JUMP JUMPDEST POP POP POP DUP1 PUSH1 0x80 DUP2 DUP2 MSTORE POP POP TIMESTAMP PUSH1 0x9 DUP2 SWAP1 SSTORE POP PUSH1 0x0 PUSH1 0x8 DUP2 SWAP1 SSTORE POP POP PUSH3 0x616 JUMP JUMPDEST DUP3 DUP1 SLOAD DUP3 DUP3 SSTORE SWAP1 PUSH1 0x0 MSTORE PUSH1 0x20 PUSH1 0x0 KECCAK256 SWAP1 DUP2 ADD SWAP3 DUP3 ISZERO PUSH3 0x1AD JUMPI SWAP2 PUSH1 0x20 MUL DUP3 ADD JUMPDEST DUP3 DUP2 GT ISZERO PUSH3 0x1AC JUMPI DUP3 MLOAD DUP3 SWAP1 DUP2 PUSH3 0x19B SWAP2 SWAP1 PUSH3 0x52F JUMP JUMPDEST POP SWAP2 PUSH1 0x20 ADD SWAP2 SWAP1 PUSH1 0x1 ADD SWAP1 PUSH3 0x181 JUMP JUMPDEST JUMPDEST POP SWAP1 POP PUSH3 0x1BC SWAP2 SWAP1 PUSH3 0x1C0 JUMP JUMPDEST POP SWAP1 JUMP JUMPDEST JUMPDEST DUP1 DUP3 GT ISZERO PUSH3 0x1E4 JUMPI PUSH1 0x0 DUP2 DUP2 PUSH3 0x1DA SWAP2 SWAP1 PUSH3 0x1E8 JUMP JUMPDEST POP PUSH1 0x1 ADD PUSH3 0x1C1 JUMP JUMPDEST POP SWAP1 JUMP JUMPDEST POP DUP1 SLOAD PUSH3 0x1F6 SWAP1 PUSH3 0x328 JUMP JUMPDEST PUSH1 0x0 DUP3 SSTORE DUP1 PUSH1 0x1F LT PUSH3 0x20A JUMPI POP PUSH3 0x22B JUMP JUMPDEST PUSH1 0x1F ADD PUSH1 0x20 SWAP1 DIV SWAP1 PUSH1 0x0 MSTORE PUSH1 0x20 PUSH1 0x0 KECCAK256 SWAP1 DUP2 ADD SWAP1 PUSH3 0x22A SWAP2 SWAP1 PUSH3 0x22E JUMP JUMPDEST JUMPDEST POP JUMP JUMPDEST JUMPDEST DUP1 DUP3 GT ISZERO PUSH3 0x249 JUMPI PUSH1 0x0 DUP2 PUSH1 0x0 SWAP1 SSTORE POP PUSH1 0x1 ADD PUSH3 0x22F JUMP JUMPDEST POP SWAP1 JUMP JUMPDEST PUSH1 0x0 DUP1 REVERT JUMPDEST PUSH1 0x0 DUP2 SWAP1 POP SWAP2 SWAP1 POP JUMP JUMPDEST PUSH3 0x267 DUP2 PUSH3 0x252 JUMP JUMPDEST DUP2 EQ PUSH3 0x273 JUMPI PUSH1 0x0 DUP1 REVERT JUMPDEST POP JUMP JUMPDEST PUSH1 0x0 DUP2 MLOAD SWAP1 POP PUSH3 0x287 DUP2 PUSH3 0x25C JUMP JUMPDEST SWAP3 SWAP2 POP POP JUMP JUMPDEST PUSH1 0x0 PUSH1 0x20 DUP3 DUP5 SUB SLT ISZERO PUSH3 0x2A6 JUMPI PUSH3 0x2A5 PUSH3 0x24D JUMP JUMPDEST JUMPDEST PUSH1 0x0 PUSH3 0x2B6 DUP5 DUP3 DUP6 ADD PUSH3 0x276 JUMP JUMPDEST SWAP2 POP POP SWAP3 SWAP2 POP POP JUMP JUMPDEST PUSH1 0x0 DUP2 MLOAD SWAP1 POP SWAP2 SWAP1 POP JUMP JUMPDEST PUSH32 0x4E487B7100000000000000000000000000000000000000000000000000000000 PUSH1 0x0 MSTORE PUSH1 0x41 PUSH1 0x4 MSTORE PUSH1 0x24 PUSH1 0x0 REVERT JUMPDEST PUSH32 0x4E487B7100000000000000000000000000000000000000000000000000000000 PUSH1 0x0 MSTORE PUSH1 0x22 PUSH1 0x4 MSTORE PUSH1 0x24 PUSH1 0x0 REVERT JUMPDEST PUSH1 0x0 PUSH1 0x2 DUP3 DIV SWAP1 POP PUSH1 0x1 DUP3 AND DUP1 PUSH3 0x341 JUMPI PUSH1 0x7F DUP3 AND SWAP2 POP JUMPDEST PUSH1 0x20 DUP3 LT DUP2 SUB PUSH3 0x357 JUMPI PUSH3 0x356 PUSH3 0x2F9 JUMP JUMPDEST JUMPDEST POP SWAP2 SWAP1 POP JUMP JUMPDEST PUSH1 0x0 DUP2 SWAP1 POP DUP2 PUSH1 0x0 MSTORE PUSH1 0x20 PUSH1 0x0 KECCAK256 SWAP1 POP SWAP2 SWAP1 POP JUMP JUMPDEST PUSH1 0x0 PUSH1 0x20 PUSH1 0x1F DUP4 ADD DIV SWAP1 POP SWAP2 SWAP1 POP JUMP JUMPDEST PUSH1 0x0 DUP3 DUP3 SHL SWAP1 POP SWAP3 SWAP2 POP POP JUMP JUMPDEST PUSH1 0x0 PUSH1 0x8 DUP4 MUL PUSH3 0x3C1 PUSH32 0xFFFFFFFFFFFFFFFFFFFFFFFFFFFFFFFFFFFFFFFFFFFFFFFFFFFFFFFFFFFFFFFF DUP3 PUSH3 0x382 JUMP JUMPDEST PUSH3 0x3CD DUP7 DUP4 PUSH3 0x382 JUMP JUMPDEST SWAP6 POP DUP1 NOT DUP5 AND SWAP4 POP DUP1 DUP7 AND DUP5 OR SWAP3 POP POP POP SWAP4 SWAP3 POP POP POP JUMP JUMPDEST PUSH1 0x0 DUP2 SWAP1 POP SWAP2 SWAP1 POP JUMP JUMPDEST PUSH1 0x0 PUSH3 0x410 PUSH3 0x40A PUSH3 0x404 DUP5 PUSH3 0x252 JUMP JUMPDEST PUSH3 0x3E5 JUMP JUMPDEST PUSH3 0x252 JUMP JUMPDEST SWAP1 POP SWAP2 SWAP1 POP JUMP JUMPDEST PUSH1 0x0 DUP2 SWAP1 POP SWAP2 SWAP1 POP JUMP JUMPDEST PUSH3 0x42C DUP4 PUSH3 0x3EF JUMP JUMPDEST PUSH3 0x444 PUSH3 0x43B DUP3 PUSH3 0x417 JUMP JUMPDEST DUP5 DUP5 SLOAD PUSH3 0x38F JUMP JUMPDEST DUP3 SSTORE POP POP POP POP JUMP JUMPDEST PUSH1 0x0 SWAP1 JUMP JUMPDEST PUSH3 0x45B PUSH3 0x44C JUMP JUMPDEST PUSH3 0x468 DUP2 DUP5 DUP5 PUSH3 0x421 JUMP JUMPDEST POP POP POP JUMP JUMPDEST JUMPDEST DUP2 DUP2 LT ISZERO PUSH3 0x490 JUMPI PUSH3 0x484 PUSH1 0x0 DUP3 PUSH3 0x451 JUMP JUMPDEST PUSH1 0x1 DUP2 ADD SWAP1 POP PUSH3 0x46E JUMP JUMPDEST POP POP JUMP JUMPDEST PUSH1 0x1F DUP3 GT ISZERO PUSH3 0x4DF JUMPI PUSH3 0x4A9 DUP2 PUSH3 0x35D JUMP JUMPDEST PUSH3 0x4B4 DUP5 PUSH3 0x372 JUMP JUMPDEST DUP2 ADD PUSH1 0x20 DUP6 LT ISZERO PUSH3 0x4C4 JUMPI DUP2 SWAP1 POP JUMPDEST PUSH3 0x4DC PUSH3 0x4D3 DUP6 PUSH3 0x372 JUMP JUMPDEST DUP4 ADD DUP3 PUSH3 0x46D JUMP JUMPDEST POP POP JUMPDEST POP POP POP JUMP JUMPDEST PUSH1 0x0 DUP3 DUP3 SHR SWAP1 POP SWAP3 SWAP2 POP POP JUMP JUMPDEST PUSH1 0x0 PUSH3 0x504 PUSH1 0x0 NOT DUP5 PUSH1 0x8 MUL PUSH3 0x4E4 JUMP JUMPDEST NOT DUP1 DUP4 AND SWAP2 POP POP SWAP3 SWAP2 POP POP JUMP JUMPDEST PUSH1 0x0 PUSH3 0x51F DUP4 DUP4 PUSH3 0x4F1 JUMP JUMPDEST SWAP2 POP DUP3 PUSH1 0x2 MUL DUP3 OR SWAP1 POP SWAP3 SWAP2 POP POP JUMP JUMPDEST PUSH3 0x53A DUP3 PUSH3 0x2BF JUMP JUMPDEST PUSH8 0xFFFFFFFFFFFFFFFF DUP2 GT ISZERO PUSH3 0x556 JUMPI PUSH3 0x555 PUSH3 0x2CA JUMP JUMPDEST JUMPDEST PUSH3 0x562 DUP3 SLOAD PUSH3 0x328 JUMP JUMPDEST PUSH3 0x56F DUP3 DUP3 DUP6 PUSH3 0x494 JUMP JUMPDEST PUSH1 0x0 PUSH1 0x20 SWAP1 POP PUSH1 0x1F DUP4 GT PUSH1 0x1 DUP2 EQ PUSH3 0x5A7 JUMPI PUSH1 0x0 DUP5 ISZERO PUSH3 0x592 JUMPI DUP3 DUP8 ADD MLOAD SWAP1 POP JUMPDEST PUSH3 0x59E DUP6 DUP3 PUSH3 0x511 JUMP JUMPDEST DUP7 SSTORE POP PUSH3 0x60E JUMP JUMPDEST PUSH1 0x1F NOT DUP5 AND PUSH3 0x5B7 DUP7 PUSH3 0x35D JUMP JUMPDEST PUSH1 0x0 JUMPDEST DUP3 DUP2 LT ISZERO PUSH3 0x5E1 JUMPI DUP5 DUP10 ADD MLOAD DUP3 SSTORE PUSH1 0x1 DUP3 ADD SWAP2 POP PUSH1 0x20 DUP6 ADD SWAP5 POP PUSH1 0x20 DUP2 ADD SWAP1 POP PUSH3 0x5BA JUMP JUMPDEST DUP7 DUP4 LT ISZERO PUSH3 0x601 JUMPI DUP5 DUP10 ADD MLOAD PUSH3 0x5FD PUSH1 0x1F DUP10 AND DUP3 PUSH3 0x4F1 JUMP JUMPDEST DUP4 SSTORE POP JUMPDEST PUSH1 0x1 PUSH1 0x2 DUP9 MUL ADD DUP9 SSTORE POP POP POP JUMPDEST POP POP POP POP POP POP JUMP JUMPDEST PUSH1 0x80 MLOAD PUSH2 0x2A8C PUSH3 0x640 PUSH1 0x0 CODECOPY PUSH1 0x0 DUP2 DUP2 PUSH2 0x879 ADD MSTORE DUP2 DUP2 PUSH2 0x952 ADD MSTORE PUSH2 0xA42 ADD MSTORE PUSH2 0x2A8C PUSH1 0x0 RETURN INVALID PUSH1 0x80 PUSH1 0x40 MSTORE CALLVALUE DUP1 ISZERO PUSH2 0x10 JUMPI PUSH1 0x0 DUP1 REVERT JUMPDEST POP PUSH1 0x4 CALLDATASIZE LT PUSH2 0x14D JUMPI PUSH1 0x0 CALLDATALOAD PUSH1 0xE0 SHR DUP1 PUSH4 0x6352211E GT PUSH2 0xC3 JUMPI DUP1 PUSH4 0xA22CB465 GT PUSH2 0x7C JUMPI DUP1 PUSH4 0xA22CB465 EQ PUSH2 0x3B3 JUMPI DUP1 PUSH4 0xB88D4FDE EQ PUSH2 0x3CF JUMPI DUP1 PUSH4 0xC87B56DD EQ PUSH2 0x3EB JUMPI DUP1 PUSH4 0xD204C45E EQ PUSH2 0x41B JUMPI DUP1 PUSH4 0xD61E7201 EQ PUSH2 0x437 JUMPI DUP1 PUSH4 0xE985E9C5 EQ PUSH2 0x453 JUMPI PUSH2 0x14D JUMP JUMPDEST DUP1 PUSH4 0x6352211E EQ PUSH2 0x2B6 JUMPI DUP1 PUSH4 0x6E04FF0D EQ PUSH2 0x2E6 JUMPI DUP1 PUSH4 0x70A08231 EQ PUSH2 0x317 JUMPI DUP1 PUSH4 0x947A36FB EQ PUSH2 0x347 JUMPI DUP1 PUSH4 0x95D89B41 EQ PUSH2 0x365 JUMPI DUP1 PUSH4 0x997E97EE EQ PUSH2 0x383 JUMPI PUSH2 0x14D JUMP JUMPDEST DUP1 PUSH4 0x2074D35C GT PUSH2 0x115 JUMPI DUP1 PUSH4 0x2074D35C EQ PUSH2 0x21C JUMPI DUP1 PUSH4 0x23B872DD EQ PUSH2 0x226 JUMPI DUP1 PUSH4 0x3F3B3B27 EQ PUSH2 0x242 JUMPI DUP1 PUSH4 0x42842E0E EQ PUSH2 0x260 JUMPI DUP1 PUSH4 0x4585E33B EQ PUSH2 0x27C JUMPI DUP1 PUSH4 0x61BC221A EQ PUSH2 0x298 JUMPI PUSH2 0x14D JUMP JUMPDEST DUP1 PUSH4 0x1FFC9A7 EQ PUSH2 0x152 JUMPI DUP1 PUSH4 0x6FDDE03 EQ PUSH2 0x182 JUMPI DUP1 PUSH4 0x81812FC EQ PUSH2 0x1A0 JUMPI DUP1 PUSH4 0x95EA7B3 EQ PUSH2 0x1D0 JUMPI DUP1 PUSH4 0x18661731 EQ PUSH2 0x1EC JUMPI JUMPDEST PUSH1 0x0 DUP1 REVERT JUMPDEST PUSH2 0x16C PUSH1 0x4 DUP1 CALLDATASIZE SUB DUP2 ADD SWAP1 PUSH2 0x167 SWAP2 SWAP1 PUSH2 0x1A63 JUMP JUMPDEST PUSH2 0x483 JUMP JUMPDEST PUSH1 0x40 MLOAD PUSH2 0x179 SWAP2 SWAP1 PUSH2 0x1AAB JUMP JUMPDEST PUSH1 0x40 MLOAD DUP1 SWAP2 SUB SWAP1 RETURN JUMPDEST PUSH2 0x18A PUSH2 0x565 JUMP JUMPDEST PUSH1 0x40 MLOAD PUSH2 0x197 SWAP2 SWAP1 PUSH2 0x1B56 JUMP JUMPDEST PUSH1 0x40 MLOAD DUP1 SWAP2 SUB SWAP1 RETURN JUMPDEST PUSH2 0x1BA PUSH1 0x4 DUP1 CALLDATASIZE SUB DUP2 ADD SWAP1 PUSH2 0x1B5 SWAP2 SWAP1 PUSH2 0x1BAE JUMP JUMPDEST PUSH2 0x5F7 JUMP JUMPDEST PUSH1 0x40 MLOAD PUSH2 0x1C7 SWAP2 SWAP1 PUSH2 0x1C1C JUMP JUMPDEST PUSH1 0x40 MLOAD DUP1 SWAP2 SUB SWAP1 RETURN JUMPDEST PUSH2 0x1EA PUSH1 0x4 DUP1 CALLDATASIZE SUB DUP2 ADD SWAP1 PUSH2 0x1E5 SWAP2 SWAP1 PUSH2 0x1C63 JUMP JUMPDEST PUSH2 0x63D JUMP JUMPDEST STOP JUMPDEST PUSH2 0x206 PUSH1 0x4 DUP1 CALLDATASIZE SUB DUP2 ADD SWAP1 PUSH2 0x201 SWAP2 SWAP1 PUSH2 0x1BAE JUMP JUMPDEST PUSH2 0x754 JUMP JUMPDEST PUSH1 0x40 MLOAD PUSH2 0x213 SWAP2 SWAP1 PUSH2 0x1CB2 JUMP JUMPDEST PUSH1 0x40 MLOAD DUP1 SWAP2 SUB SWAP1 RETURN JUMPDEST PUSH2 0x224 PUSH2 0x7BE JUMP JUMPDEST STOP JUMPDEST PUSH2 0x240 PUSH1 0x4 DUP1 CALLDATASIZE SUB DUP2 ADD SWAP1 PUSH2 0x23B SWAP2 SWAP1 PUSH2 0x1CCD JUMP JUMPDEST PUSH2 0x7F1 JUMP JUMPDEST STOP JUMPDEST PUSH2 0x24A PUSH2 0x851 JUMP JUMPDEST PUSH1 0x40 MLOAD PUSH2 0x257 SWAP2 SWAP1 PUSH2 0x1CB2 JUMP JUMPDEST PUSH1 0x40 MLOAD DUP1 SWAP2 SUB SWAP1 RETURN JUMPDEST PUSH2 0x27A PUSH1 0x4 DUP1 CALLDATASIZE SUB DUP2 ADD SWAP1 PUSH2 0x275 SWAP2 SWAP1 PUSH2 0x1CCD JUMP JUMPDEST PUSH2 0x857 JUMP JUMPDEST STOP JUMPDEST PUSH2 0x296 PUSH1 0x4 DUP1 CALLDATASIZE SUB DUP2 ADD SWAP1 PUSH2 0x291 SWAP2 SWAP1 PUSH2 0x1D85 JUMP JUMPDEST PUSH2 0x877 JUMP JUMPDEST STOP JUMPDEST PUSH2 0x2A0 PUSH2 0x8C0 JUMP JUMPDEST PUSH1 0x40 MLOAD PUSH2 0x2AD SWAP2 SWAP1 PUSH2 0x1CB2 JUMP JUMPDEST PUSH1 0x40 MLOAD DUP1 SWAP2 SUB SWAP1 RETURN JUMPDEST PUSH2 0x2D0 PUSH1 0x4 DUP1 CALLDATASIZE SUB DUP2 ADD SWAP1 PUSH2 0x2CB SWAP2 SWAP1 PUSH2 0x1BAE JUMP JUMPDEST PUSH2 0x8C6 JUMP JUMPDEST PUSH1 0x40 MLOAD PUSH2 0x2DD SWAP2 SWAP1 PUSH2 0x1C1C JUMP JUMPDEST PUSH1 0x40 MLOAD DUP1 SWAP2 SUB SWAP1 RETURN JUMPDEST PUSH2 0x300 PUSH1 0x4 DUP1 CALLDATASIZE SUB DUP2 ADD SWAP1 PUSH2 0x2FB SWAP2 SWAP1 PUSH2 0x1D85 JUMP JUMPDEST PUSH2 0x94C JUMP JUMPDEST PUSH1 0x40 MLOAD PUSH2 0x30E SWAP3 SWAP2 SWAP1 PUSH2 0x1E27 JUMP JUMPDEST PUSH1 0x40 MLOAD DUP1 SWAP2 SUB SWAP1 RETURN JUMPDEST PUSH2 0x331 PUSH1 0x4 DUP1 CALLDATASIZE SUB DUP2 ADD SWAP1 PUSH2 0x32C SWAP2 SWAP1 PUSH2 0x1E57 JUMP JUMPDEST PUSH2 0x989 JUMP JUMPDEST PUSH1 0x40 MLOAD PUSH2 0x33E SWAP2 SWAP1 PUSH2 0x1CB2 JUMP JUMPDEST PUSH1 0x40 MLOAD DUP1 SWAP2 SUB SWAP1 RETURN JUMPDEST PUSH2 0x34F PUSH2 0xA40 JUMP JUMPDEST PUSH1 0x40 MLOAD PUSH2 0x35C SWAP2 SWAP1 PUSH2 0x1CB2 JUMP JUMPDEST PUSH1 0x40 MLOAD DUP1 SWAP2 SUB SWAP1 RETURN JUMPDEST PUSH2 0x36D PUSH2 0xA64 JUMP JUMPDEST PUSH1 0x40 MLOAD PUSH2 0x37A SWAP2 SWAP1 PUSH2 0x1B56 JUMP JUMPDEST PUSH1 0x40 MLOAD DUP1 SWAP2 SUB SWAP1 RETURN JUMPDEST PUSH2 0x39D PUSH1 0x4 DUP1 CALLDATASIZE SUB DUP2 ADD SWAP1 PUSH2 0x398 SWAP2 SWAP1 PUSH2 0x1BAE JUMP JUMPDEST PUSH2 0xAF6 JUMP JUMPDEST PUSH1 0x40 MLOAD PUSH2 0x3AA SWAP2 SWAP1 PUSH2 0x1B56 JUMP JUMPDEST PUSH1 0x40 MLOAD DUP1 SWAP2 SUB SWAP1 RETURN JUMPDEST PUSH2 0x3CD PUSH1 0x4 DUP1 CALLDATASIZE SUB DUP2 ADD SWAP1 PUSH2 0x3C8 SWAP2 SWAP1 PUSH2 0x1EB0 JUMP JUMPDEST PUSH2 0xBFB JUMP JUMPDEST STOP JUMPDEST PUSH2 0x3E9 PUSH1 0x4 DUP1 CALLDATASIZE SUB DUP2 ADD SWAP1 PUSH2 0x3E4 SWAP2 SWAP1 PUSH2 0x2020 JUMP JUMPDEST PUSH2 0xC11 JUMP JUMPDEST STOP JUMPDEST PUSH2 0x405 PUSH1 0x4 DUP1 CALLDATASIZE SUB DUP2 ADD SWAP1 PUSH2 0x400 SWAP2 SWAP1 PUSH2 0x1BAE JUMP JUMPDEST PUSH2 0xC73 JUMP JUMPDEST PUSH1 0x40 MLOAD PUSH2 0x412 SWAP2 SWAP1 PUSH2 0x1B56 JUMP JUMPDEST PUSH1 0x40 MLOAD DUP1 SWAP2 SUB SWAP1 RETURN JUMPDEST PUSH2 0x435 PUSH1 0x4 DUP1 CALLDATASIZE SUB DUP2 ADD SWAP1 PUSH2 0x430 SWAP2 SWAP1 PUSH2 0x2144 JUMP JUMPDEST PUSH2 0xCD2 JUMP JUMPDEST STOP JUMPDEST PUSH2 0x451 PUSH1 0x4 DUP1 CALLDATASIZE SUB DUP2 ADD SWAP1 PUSH2 0x44C SWAP2 SWAP1 PUSH2 0x1BAE JUMP JUMPDEST PUSH2 0xD12 JUMP JUMPDEST STOP JUMPDEST PUSH2 0x46D PUSH1 0x4 DUP1 CALLDATASIZE SUB DUP2 ADD SWAP1 PUSH2 0x468 SWAP2 SWAP1 PUSH2 0x21A0 JUMP JUMPDEST PUSH2 0xDA9 JUMP JUMPDEST PUSH1 0x40 MLOAD PUSH2 0x47A SWAP2 SWAP1 PUSH2 0x1AAB JUMP JUMPDEST PUSH1 0x40 MLOAD DUP1 SWAP2 SUB SWAP1 RETURN JUMPDEST PUSH1 0x0 PUSH32 0x80AC58CD00000000000000000000000000000000000000000000000000000000 PUSH28 0xFFFFFFFFFFFFFFFFFFFFFFFFFFFFFFFFFFFFFFFFFFFFFFFFFFFFFFFF NOT AND DUP3 PUSH28 0xFFFFFFFFFFFFFFFFFFFFFFFFFFFFFFFFFFFFFFFFFFFFFFFFFFFFFFFF NOT AND EQ DUP1 PUSH2 0x54E JUMPI POP PUSH32 0x5B5E139F00000000000000000000000000000000000000000000000000000000 PUSH28 0xFFFFFFFFFFFFFFFFFFFFFFFFFFFFFFFFFFFFFFFFFFFFFFFFFFFFFFFF NOT AND DUP3 PUSH28 0xFFFFFFFFFFFFFFFFFFFFFFFFFFFFFFFFFFFFFFFFFFFFFFFFFFFFFFFF NOT AND EQ JUMPDEST DUP1 PUSH2 0x55E JUMPI POP PUSH2 0x55D DUP3 PUSH2 0xE3D JUMP JUMPDEST JUMPDEST SWAP1 POP SWAP2 SWAP1 POP JUMP JUMPDEST PUSH1 0x60 PUSH1 0x0 DUP1 SLOAD PUSH2 0x574 SWAP1 PUSH2 0x220F JUMP JUMPDEST DUP1 PUSH1 0x1F ADD PUSH1 0x20 DUP1 SWAP2 DIV MUL PUSH1 0x20 ADD PUSH1 0x40 MLOAD SWAP1 DUP2 ADD PUSH1 0x40 MSTORE DUP1 SWAP3 SWAP2 SWAP1 DUP2 DUP2 MSTORE PUSH1 0x20 ADD DUP3 DUP1 SLOAD PUSH2 0x5A0 SWAP1 PUSH2 0x220F JUMP JUMPDEST DUP1 ISZERO PUSH2 0x5ED JUMPI DUP1 PUSH1 0x1F LT PUSH2 0x5C2 JUMPI PUSH2 0x100 DUP1 DUP4 SLOAD DIV MUL DUP4 MSTORE SWAP2 PUSH1 0x20 ADD SWAP2 PUSH2 0x5ED JUMP JUMPDEST DUP3 ADD SWAP2 SWAP1 PUSH1 0x0 MSTORE PUSH1 0x20 PUSH1 0x0 KECCAK256 SWAP1 JUMPDEST DUP2 SLOAD DUP2 MSTORE SWAP1 PUSH1 0x1 ADD SWAP1 PUSH1 0x20 ADD DUP1 DUP4 GT PUSH2 0x5D0 JUMPI DUP3 SWAP1 SUB PUSH1 0x1F AND DUP3 ADD SWAP2 JUMPDEST POP POP POP POP POP SWAP1 POP SWAP1 JUMP JUMPDEST PUSH1 0x0 PUSH2 0x602 DUP3 PUSH2 0xEA7 JUMP JUMPDEST PUSH1 0x4 PUSH1 0x0 DUP4 DUP2 MSTORE PUSH1 0x20 ADD SWAP1 DUP2 MSTORE PUSH1 0x20 ADD PUSH1 0x0 KECCAK256 PUSH1 0x0 SWAP1 SLOAD SWAP1 PUSH2 0x100 EXP SWAP1 DIV PUSH20 0xFFFFFFFFFFFFFFFFFFFFFFFFFFFFFFFFFFFFFFFF AND SWAP1 POP SWAP2 SWAP1 POP JUMP JUMPDEST PUSH1 0x0 PUSH2 0x648 DUP3 PUSH2 0x8C6 JUMP JUMPDEST SWAP1 POP DUP1 PUSH20 0xFFFFFFFFFFFFFFFFFFFFFFFFFFFFFFFFFFFFFFFF AND DUP4 PUSH20 0xFFFFFFFFFFFFFFFFFFFFFFFFFFFFFFFFFFFFFFFF AND SUB PUSH2 0x6B8 JUMPI PUSH1 0x40 MLOAD PUSH32 0x8C379A000000000000000000000000000000000000000000000000000000000 DUP2 MSTORE PUSH1 0x4 ADD PUSH2 0x6AF SWAP1 PUSH2 0x22B2 JUMP JUMPDEST PUSH1 0x40 MLOAD DUP1 SWAP2 SUB SWAP1 REVERT JUMPDEST DUP1 PUSH20 0xFFFFFFFFFFFFFFFFFFFFFFFFFFFFFFFFFFFFFFFF AND PUSH2 0x6D7 PUSH2 0xEF2 JUMP JUMPDEST PUSH20 0xFFFFFFFFFFFFFFFFFFFFFFFFFFFFFFFFFFFFFFFF AND EQ DUP1 PUSH2 0x706 JUMPI POP PUSH2 0x705 DUP2 PUSH2 0x700 PUSH2 0xEF2 JUMP JUMPDEST PUSH2 0xDA9 JUMP JUMPDEST JUMPDEST PUSH2 0x745 JUMPI PUSH1 0x40 MLOAD PUSH32 0x8C379A000000000000000000000000000000000000000000000000000000000 DUP2 MSTORE PUSH1 0x4 ADD PUSH2 0x73C SWAP1 PUSH2 0x2344 JUMP JUMPDEST PUSH1 0x40 MLOAD DUP1 SWAP2 SUB SWAP1 REVERT JUMPDEST PUSH2 0x74F DUP4 DUP4 PUSH2 0xEFA JUMP JUMPDEST POP POP POP JUMP JUMPDEST PUSH1 0x0 DUP2 PUSH2 0x761 PUSH1 0x7 PUSH2 0xFB3 JUMP JUMPDEST DUP2 LT PUSH2 0x7A2 JUMPI PUSH1 0x40 MLOAD PUSH32 0x8C379A000000000000000000000000000000000000000000000000000000000 DUP2 MSTORE PUSH1 0x4 ADD PUSH2 0x799 SWAP1 PUSH2 0x23B0 JUMP JUMPDEST PUSH1 0x40 MLOAD DUP1 SWAP2 SUB SWAP1 REVERT JUMPDEST PUSH1 0xA PUSH1 0x0 DUP5 DUP2 MSTORE PUSH1 0x20 ADD SWAP1 DUP2 MSTORE PUSH1 0x20 ADD PUSH1 0x0 KECCAK256 SLOAD SWAP2 POP POP SWAP2 SWAP1 POP JUMP JUMPDEST PUSH1 0x0 JUMPDEST PUSH2 0x7CB PUSH1 0x7 PUSH2 0xFB3 JUMP JUMPDEST DUP2 LT ISZERO PUSH2 0x7EE JUMPI PUSH2 0x7DB DUP2 PUSH2 0xD12 JUMP JUMPDEST DUP1 DUP1 PUSH2 0x7E6 SWAP1 PUSH2 0x23FF JUMP JUMPDEST SWAP2 POP POP PUSH2 0x7C1 JUMP JUMPDEST POP JUMP JUMPDEST PUSH2 0x802 PUSH2 0x7FC PUSH2 0xEF2 JUMP JUMPDEST DUP3 PUSH2 0xFC1 JUMP JUMPDEST PUSH2 0x841 JUMPI PUSH1 0x40 MLOAD PUSH32 0x8C379A000000000000000000000000000000000000000000000000000000000 DUP2 MSTORE PUSH1 0x4 ADD PUSH2 0x838 SWAP1 PUSH2 0x24B9 JUMP JUMPDEST PUSH1 0x40 MLOAD DUP1 SWAP2 SUB SWAP1 REVERT JUMPDEST PUSH2 0x84C DUP4 DUP4 DUP4 PUSH2 0x1056 JUMP JUMPDEST POP POP POP JUMP JUMPDEST PUSH1 0x9 SLOAD DUP2 JUMP JUMPDEST PUSH2 0x872 DUP4 DUP4 DUP4 PUSH1 0x40 MLOAD DUP1 PUSH1 0x20 ADD PUSH1 0x40 MSTORE DUP1 PUSH1 0x0 DUP2 MSTORE POP PUSH2 0xC11 JUMP JUMPDEST POP POP POP JUMP JUMPDEST PUSH32 0x0 PUSH1 0x9 SLOAD TIMESTAMP PUSH2 0x8A6 SWAP2 SWAP1 PUSH2 0x24D9 JUMP JUMPDEST GT ISZERO PUSH2 0x8BC JUMPI TIMESTAMP PUSH1 0x9 DUP2 SWAP1 SSTORE POP PUSH2 0x8BB PUSH2 0x7BE JUMP JUMPDEST JUMPDEST POP POP JUMP JUMPDEST PUSH1 0x8 SLOAD DUP2 JUMP JUMPDEST PUSH1 0x0 DUP1 PUSH2 0x8D2 DUP4 PUSH2 0x134F JUMP JUMPDEST SWAP1 POP PUSH1 0x0 PUSH20 0xFFFFFFFFFFFFFFFFFFFFFFFFFFFFFFFFFFFFFFFF AND DUP2 PUSH20 0xFFFFFFFFFFFFFFFFFFFFFFFFFFFFFFFFFFFFFFFF AND SUB PUSH2 0x943 JUMPI PUSH1 0x40 MLOAD PUSH32 0x8C379A000000000000000000000000000000000000000000000000000000000 DUP2 MSTORE PUSH1 0x4 ADD PUSH2 0x93A SWAP1 PUSH2 0x2559 JUMP JUMPDEST PUSH1 0x40 MLOAD DUP1 SWAP2 SUB SWAP1 REVERT JUMPDEST DUP1 SWAP2 POP POP SWAP2 SWAP1 POP JUMP JUMPDEST PUSH1 0x0 PUSH1 0x60 PUSH32 0x0 PUSH1 0x9 SLOAD TIMESTAMP PUSH2 0x97F SWAP2 SWAP1 PUSH2 0x24D9 JUMP JUMPDEST GT SWAP2 POP SWAP3 POP SWAP3 SWAP1 POP JUMP JUMPDEST PUSH1 0x0 DUP1 PUSH20 0xFFFFFFFFFFFFFFFFFFFFFFFFFFFFFFFFFFFFFFFF AND DUP3 PUSH20 0xFFFFFFFFFFFFFFFFFFFFFFFFFFFFFFFFFFFFFFFF AND SUB PUSH2 0x9F9 JUMPI PUSH1 0x40 MLOAD PUSH32 0x8C379A000000000000000000000000000000000000000000000000000000000 DUP2 MSTORE PUSH1 0x4 ADD PUSH2 0x9F0 SWAP1 PUSH2 0x25EB JUMP JUMPDEST PUSH1 0x40 MLOAD DUP1 SWAP2 SUB SWAP1 REVERT JUMPDEST PUSH1 0x3 PUSH1 0x0 DUP4 PUSH20 0xFFFFFFFFFFFFFFFFFFFFFFFFFFFFFFFFFFFFFFFF AND PUSH20 0xFFFFFFFFFFFFFFFFFFFFFFFFFFFFFFFFFFFFFFFF AND DUP2 MSTORE PUSH1 0x20 ADD SWAP1 DUP2 MSTORE PUSH1 0x20 ADD PUSH1 0x0 KECCAK256 SLOAD SWAP1 POP SWAP2 SWAP1 POP JUMP JUMPDEST PUSH32 0x0 DUP2 JUMP JUMPDEST PUSH1 0x60 PUSH1 0x1 DUP1 SLOAD PUSH2 0xA73 SWAP1 PUSH2 0x220F JUMP JUMPDEST DUP1 PUSH1 0x1F ADD PUSH1 0x20 DUP1 SWAP2 DIV MUL PUSH1 0x20 ADD PUSH1 0x40 MLOAD SWAP1 DUP2 ADD PUSH1 0x40 MSTORE DUP1 SWAP3 SWAP2 SWAP1 DUP2 DUP2 MSTORE PUSH1 0x20 ADD DUP3 DUP1 SLOAD PUSH2 0xA9F SWAP1 PUSH2 0x220F JUMP JUMPDEST DUP1 ISZERO PUSH2 0xAEC JUMPI DUP1 PUSH1 0x1F LT PUSH2 0xAC1 JUMPI PUSH2 0x100 DUP1 DUP4 SLOAD DIV MUL DUP4 MSTORE SWAP2 PUSH1 0x20 ADD SWAP2 PUSH2 0xAEC JUMP JUMPDEST DUP3 ADD SWAP2 SWAP1 PUSH1 0x0 MSTORE PUSH1 0x20 PUSH1 0x0 KECCAK256 SWAP1 JUMPDEST DUP2 SLOAD DUP2 MSTORE SWAP1 PUSH1 0x1 ADD SWAP1 PUSH1 0x20 ADD DUP1 DUP4 GT PUSH2 0xACF JUMPI DUP3 SWAP1 SUB PUSH1 0x1F AND DUP3 ADD SWAP2 JUMPDEST POP POP POP POP POP SWAP1 POP SWAP1 JUMP JUMPDEST PUSH1 0x60 DUP2 PUSH2 0xB03 PUSH1 0x7 PUSH2 0xFB3 JUMP JUMPDEST DUP2 LT PUSH2 0xB44 JUMPI PUSH1 0x40 MLOAD PUSH32 0x8C379A000000000000000000000000000000000000000000000000000000000 DUP2 MSTORE PUSH1 0x4 ADD PUSH2 0xB3B SWAP1 PUSH2 0x23B0 JUMP JUMPDEST PUSH1 0x40 MLOAD DUP1 SWAP2 SUB SWAP1 REVERT JUMPDEST PUSH1 0xB PUSH2 0xB4F DUP5 PUSH2 0x754 JUMP JUMPDEST DUP2 SLOAD DUP2 LT PUSH2 0xB60 JUMPI PUSH2 0xB5F PUSH2 0x260B JUMP JUMPDEST JUMPDEST SWAP1 PUSH1 0x0 MSTORE PUSH1 0x20 PUSH1 0x0 KECCAK256 ADD DUP1 SLOAD PUSH2 0xB75 SWAP1 PUSH2 0x220F JUMP JUMPDEST DUP1 PUSH1 0x1F ADD PUSH1 0x20 DUP1 SWAP2 DIV MUL PUSH1 0x20 ADD PUSH1 0x40 MLOAD SWAP1 DUP2 ADD PUSH1 0x40 MSTORE DUP1 SWAP3 SWAP2 SWAP1 DUP2 DUP2 MSTORE PUSH1 0x20 ADD DUP3 DUP1 SLOAD PUSH2 0xBA1 SWAP1 PUSH2 0x220F JUMP JUMPDEST DUP1 ISZERO PUSH2 0xBEE JUMPI DUP1 PUSH1 0x1F LT PUSH2 0xBC3 JUMPI PUSH2 0x100 DUP1 DUP4 SLOAD DIV MUL DUP4 MSTORE SWAP2 PUSH1 0x20 ADD SWAP2 PUSH2 0xBEE JUMP JUMPDEST DUP3 ADD SWAP2 SWAP1 PUSH1 0x0 MSTORE PUSH1 0x20 PUSH1 0x0 KECCAK256 SWAP1 JUMPDEST DUP2 SLOAD DUP2 MSTORE SWAP1 PUSH1 0x1 ADD SWAP1 PUSH1 0x20 ADD DUP1 DUP4 GT PUSH2 0xBD1 JUMPI DUP3 SWAP1 SUB PUSH1 0x1F AND DUP3 ADD SWAP2 JUMPDEST POP POP POP POP POP SWAP2 POP POP SWAP2 SWAP1 POP JUMP JUMPDEST PUSH2 0xC0D PUSH2 0xC06 PUSH2 0xEF2 JUMP JUMPDEST DUP4 DUP4 PUSH2 0x138C JUMP JUMPDEST POP POP JUMP JUMPDEST PUSH2 0xC22 PUSH2 0xC1C PUSH2 0xEF2 JUMP JUMPDEST DUP4 PUSH2 0xFC1 JUMP JUMPDEST PUSH2 0xC61 JUMPI PUSH1 0x40 MLOAD PUSH32 0x8C379A000000000000000000000000000000000000000000000000000000000 DUP2 MSTORE PUSH1 0x4 ADD PUSH2 0xC58 SWAP1 PUSH2 0x24B9 JUMP JUMPDEST PUSH1 0x40 MLOAD DUP1 SWAP2 SUB SWAP1 REVERT JUMPDEST PUSH2 0xC6D DUP5 DUP5 DUP5 DUP5 PUSH2 0x14F8 JUMP JUMPDEST POP POP POP POP JUMP JUMPDEST PUSH1 0x60 DUP2 PUSH2 0xC80 PUSH1 0x7 PUSH2 0xFB3 JUMP JUMPDEST DUP2 LT PUSH2 0xCC1 JUMPI PUSH1 0x40 MLOAD PUSH32 0x8C379A000000000000000000000000000000000000000000000000000000000 DUP2 MSTORE PUSH1 0x4 ADD PUSH2 0xCB8 SWAP1 PUSH2 0x23B0 JUMP JUMPDEST PUSH1 0x40 MLOAD DUP1 SWAP2 SUB SWAP1 REVERT JUMPDEST PUSH2 0xCCA DUP4 PUSH2 0xAF6 JUMP JUMPDEST SWAP2 POP POP SWAP2 SWAP1 POP JUMP JUMPDEST PUSH1 0x0 PUSH2 0xCDE PUSH1 0x7 PUSH2 0xFB3 JUMP JUMPDEST SWAP1 POP PUSH2 0xCEA PUSH1 0x7 PUSH2 0x1554 JUMP JUMPDEST PUSH2 0xCF4 DUP4 DUP3 PUSH2 0x156A JUMP JUMPDEST PUSH1 0x0 PUSH1 0xA PUSH1 0x0 DUP4 DUP2 MSTORE PUSH1 0x20 ADD SWAP1 DUP2 MSTORE PUSH1 0x20 ADD PUSH1 0x0 KECCAK256 DUP2 SWAP1 SSTORE POP POP POP POP JUMP JUMPDEST DUP1 PUSH2 0xD1D PUSH1 0x7 PUSH2 0xFB3 JUMP JUMPDEST DUP2 LT PUSH2 0xD5E JUMPI PUSH1 0x40 MLOAD PUSH32 0x8C379A000000000000000000000000000000000000000000000000000000000 DUP2 MSTORE PUSH1 0x4 ADD PUSH2 0xD55 SWAP1 PUSH2 0x23B0 JUMP JUMPDEST PUSH1 0x40 MLOAD DUP1 SWAP2 SUB SWAP1 REVERT JUMPDEST PUSH1 0xB DUP1 SLOAD SWAP1 POP PUSH1 0x1 PUSH1 0xA PUSH1 0x0 DUP6 DUP2 MSTORE PUSH1 0x20 ADD SWAP1 DUP2 MSTORE PUSH1 0x20 ADD PUSH1 0x0 KECCAK256 SLOAD PUSH2 0xD84 SWAP2 SWAP1 PUSH2 0x263A JUMP JUMPDEST PUSH2 0xD8E SWAP2 SWAP1 PUSH2 0x269D JUMP JUMPDEST PUSH1 0xA PUSH1 0x0 DUP5 DUP2 MSTORE PUSH1 0x20 ADD SWAP1 DUP2 MSTORE PUSH1 0x20 ADD PUSH1 0x0 KECCAK256 DUP2 SWAP1 SSTORE POP POP POP JUMP JUMPDEST PUSH1 0x0 PUSH1 0x5 PUSH1 0x0 DUP5 PUSH20 0xFFFFFFFFFFFFFFFFFFFFFFFFFFFFFFFFFFFFFFFF AND PUSH20 0xFFFFFFFFFFFFFFFFFFFFFFFFFFFFFFFFFFFFFFFF AND DUP2 MSTORE PUSH1 0x20 ADD SWAP1 DUP2 MSTORE PUSH1 0x20 ADD PUSH1 0x0 KECCAK256 PUSH1 0x0 DUP4 PUSH20 0xFFFFFFFFFFFFFFFFFFFFFFFFFFFFFFFFFFFFFFFF AND PUSH20 0xFFFFFFFFFFFFFFFFFFFFFFFFFFFFFFFFFFFFFFFF AND DUP2 MSTORE PUSH1 0x20 ADD SWAP1 DUP2 MSTORE PUSH1 0x20 ADD PUSH1 0x0 KECCAK256 PUSH1 0x0 SWAP1 SLOAD SWAP1 PUSH2 0x100 EXP SWAP1 DIV PUSH1 0xFF AND SWAP1 POP SWAP3 SWAP2 POP POP JUMP JUMPDEST PUSH1 0x0 PUSH32 0x1FFC9A700000000000000000000000000000000000000000000000000000000 PUSH28 0xFFFFFFFFFFFFFFFFFFFFFFFFFFFFFFFFFFFFFFFFFFFFFFFFFFFFFFFF NOT AND DUP3 PUSH28 0xFFFFFFFFFFFFFFFFFFFFFFFFFFFFFFFFFFFFFFFFFFFFFFFFFFFFFFFF NOT AND EQ SWAP1 POP SWAP2 SWAP1 POP JUMP JUMPDEST PUSH2 0xEB0 DUP2 PUSH2 0x1588 JUMP JUMPDEST PUSH2 0xEEF JUMPI PUSH1 0x40 MLOAD PUSH32 0x8C379A000000000000000000000000000000000000000000000000000000000 DUP2 MSTORE PUSH1 0x4 ADD PUSH2 0xEE6 SWAP1 PUSH2 0x2559 JUMP JUMPDEST PUSH1 0x40 MLOAD DUP1 SWAP2 SUB SWAP1 REVERT JUMPDEST POP JUMP JUMPDEST PUSH1 0x0 CALLER SWAP1 POP SWAP1 JUMP JUMPDEST DUP2 PUSH1 0x4 PUSH1 0x0 DUP4 DUP2 MSTORE PUSH1 0x20 ADD SWAP1 DUP2 MSTORE PUSH1 0x20 ADD PUSH1 0x0 KECCAK256 PUSH1 0x0 PUSH2 0x100 EXP DUP2 SLOAD DUP2 PUSH20 0xFFFFFFFFFFFFFFFFFFFFFFFFFFFFFFFFFFFFFFFF MUL NOT AND SWAP1 DUP4 PUSH20 0xFFFFFFFFFFFFFFFFFFFFFFFFFFFFFFFFFFFFFFFF AND MUL OR SWAP1 SSTORE POP DUP1 DUP3 PUSH20 0xFFFFFFFFFFFFFFFFFFFFFFFFFFFFFFFFFFFFFFFF AND PUSH2 0xF6D DUP4 PUSH2 0x8C6 JUMP JUMPDEST PUSH20 0xFFFFFFFFFFFFFFFFFFFFFFFFFFFFFFFFFFFFFFFF AND PUSH32 0x8C5BE1E5EBEC7D5BD14F71427D1E84F3DD0314C0F7B2291E5B200AC8C7C3B925 PUSH1 0x40 MLOAD PUSH1 0x40 MLOAD DUP1 SWAP2 SUB SWAP1 LOG4 POP POP JUMP JUMPDEST PUSH1 0x0 DUP2 PUSH1 0x0 ADD SLOAD SWAP1 POP SWAP2 SWAP1 POP JUMP JUMPDEST PUSH1 0x0 DUP1 PUSH2 0xFCD DUP4 PUSH2 0x8C6 JUMP JUMPDEST SWAP1 POP DUP1 PUSH20 0xFFFFFFFFFFFFFFFFFFFFFFFFFFFFFFFFFFFFFFFF AND DUP5 PUSH20 0xFFFFFFFFFFFFFFFFFFFFFFFFFFFFFFFFFFFFFFFF AND EQ DUP1 PUSH2 0x100F JUMPI POP PUSH2 0x100E DUP2 DUP6 PUSH2 0xDA9 JUMP JUMPDEST JUMPDEST DUP1 PUSH2 0x104D JUMPI POP DUP4 PUSH20 0xFFFFFFFFFFFFFFFFFFFFFFFFFFFFFFFFFFFFFFFF AND PUSH2 0x1035 DUP5 PUSH2 0x5F7 JUMP JUMPDEST PUSH20 0xFFFFFFFFFFFFFFFFFFFFFFFFFFFFFFFFFFFFFFFF AND EQ JUMPDEST SWAP2 POP POP SWAP3 SWAP2 POP POP JUMP JUMPDEST DUP3 PUSH20 0xFFFFFFFFFFFFFFFFFFFFFFFFFFFFFFFFFFFFFFFF AND PUSH2 0x1076 DUP3 PUSH2 0x8C6 JUMP JUMPDEST PUSH20 0xFFFFFFFFFFFFFFFFFFFFFFFFFFFFFFFFFFFFFFFF AND EQ PUSH2 0x10CC JUMPI PUSH1 0x40 MLOAD PUSH32 0x8C379A000000000000000000000000000000000000000000000000000000000 DUP2 MSTORE PUSH1 0x4 ADD PUSH2 0x10C3 SWAP1 PUSH2 0x2740 JUMP JUMPDEST PUSH1 0x40 MLOAD DUP1 SWAP2 SUB SWAP1 REVERT JUMPDEST PUSH1 0x0 PUSH20 0xFFFFFFFFFFFFFFFFFFFFFFFFFFFFFFFFFFFFFFFF AND DUP3 PUSH20 0xFFFFFFFFFFFFFFFFFFFFFFFFFFFFFFFFFFFFFFFF AND SUB PUSH2 0x113B JUMPI PUSH1 0x40 MLOAD PUSH32 0x8C379A000000000000000000000000000000000000000000000000000000000 DUP2 MSTORE PUSH1 0x4 ADD PUSH2 0x1132 SWAP1 PUSH2 0x27D2 JUMP JUMPDEST PUSH1 0x40 MLOAD DUP1 SWAP2 SUB SWAP1 REVERT JUMPDEST PUSH2 0x1148 DUP4 DUP4 DUP4 PUSH1 0x1 PUSH2 0x15C9 JUMP JUMPDEST DUP3 PUSH20 0xFFFFFFFFFFFFFFFFFFFFFFFFFFFFFFFFFFFFFFFF AND PUSH2 0x1168 DUP3 PUSH2 0x8C6 JUMP JUMPDEST PUSH20 0xFFFFFFFFFFFFFFFFFFFFFFFFFFFFFFFFFFFFFFFF AND EQ PUSH2 0x11BE JUMPI PUSH1 0x40 MLOAD PUSH32 0x8C379A000000000000000000000000000000000000000000000000000000000 DUP2 MSTORE PUSH1 0x4 ADD PUSH2 0x11B5 SWAP1 PUSH2 0x2740 JUMP JUMPDEST PUSH1 0x40 MLOAD DUP1 SWAP2 SUB SWAP1 REVERT JUMPDEST PUSH1 0x4 PUSH1 0x0 DUP3 DUP2 MSTORE PUSH1 0x20 ADD SWAP1 DUP2 MSTORE PUSH1 0x20 ADD PUSH1 0x0 KECCAK256 PUSH1 0x0 PUSH2 0x100 EXP DUP2 SLOAD SWAP1 PUSH20 0xFFFFFFFFFFFFFFFFFFFFFFFFFFFFFFFFFFFFFFFF MUL NOT AND SWAP1 SSTORE PUSH1 0x1 PUSH1 0x3 PUSH1 0x0 DUP6 PUSH20 0xFFFFFFFFFFFFFFFFFFFFFFFFFFFFFFFFFFFFFFFF AND PUSH20 0xFFFFFFFFFFFFFFFFFFFFFFFFFFFFFFFFFFFFFFFF AND DUP2 MSTORE PUSH1 0x20 ADD SWAP1 DUP2 MSTORE PUSH1 0x20 ADD PUSH1 0x0 KECCAK256 PUSH1 0x0 DUP3 DUP3 SLOAD SUB SWAP3 POP POP DUP2 SWAP1 SSTORE POP PUSH1 0x1 PUSH1 0x3 PUSH1 0x0 DUP5 PUSH20 0xFFFFFFFFFFFFFFFFFFFFFFFFFFFFFFFFFFFFFFFF AND PUSH20 0xFFFFFFFFFFFFFFFFFFFFFFFFFFFFFFFFFFFFFFFF AND DUP2 MSTORE PUSH1 0x20 ADD SWAP1 DUP2 MSTORE PUSH1 0x20 ADD PUSH1 0x0 KECCAK256 PUSH1 0x0 DUP3 DUP3 SLOAD ADD SWAP3 POP POP DUP2 SWAP1 SSTORE POP DUP2 PUSH1 0x2 PUSH1 0x0 DUP4 DUP2 MSTORE PUSH1 0x20 ADD SWAP1 DUP2 MSTORE PUSH1 0x20 ADD PUSH1 0x0 KECCAK256 PUSH1 0x0 PUSH2 0x100 EXP DUP2 SLOAD DUP2 PUSH20 0xFFFFFFFFFFFFFFFFFFFFFFFFFFFFFFFFFFFFFFFF MUL NOT AND SWAP1 DUP4 PUSH20 0xFFFFFFFFFFFFFFFFFFFFFFFFFFFFFFFFFFFFFFFF AND MUL OR SWAP1 SSTORE POP DUP1 DUP3 PUSH20 0xFFFFFFFFFFFFFFFFFFFFFFFFFFFFFFFFFFFFFFFF AND DUP5 PUSH20 0xFFFFFFFFFFFFFFFFFFFFFFFFFFFFFFFFFFFFFFFF AND PUSH32 0xDDF252AD1BE2C89B69C2B068FC378DAA952BA7F163C4A11628F55A4DF523B3EF PUSH1 0x40 MLOAD PUSH1 0x40 MLOAD DUP1 SWAP2 SUB SWAP1 LOG4 PUSH2 0x134A DUP4 DUP4 DUP4 PUSH1 0x1 PUSH2 0x15CF JUMP JUMPDEST POP POP POP JUMP JUMPDEST PUSH1 0x0 PUSH1 0x2 PUSH1 0x0 DUP4 DUP2 MSTORE PUSH1 0x20 ADD SWAP1 DUP2 MSTORE PUSH1 0x20 ADD PUSH1 0x0 KECCAK256 PUSH1 0x0 SWAP1 SLOAD SWAP1 PUSH2 0x100 EXP SWAP1 DIV PUSH20 0xFFFFFFFFFFFFFFFFFFFFFFFFFFFFFFFFFFFFFFFF AND SWAP1 POP SWAP2 SWAP1 POP JUMP JUMPDEST DUP2 PUSH20 0xFFFFFFFFFFFFFFFFFFFFFFFFFFFFFFFFFFFFFFFF AND DUP4 PUSH20 0xFFFFFFFFFFFFFFFFFFFFFFFFFFFFFFFFFFFFFFFF AND SUB PUSH2 0x13FA JUMPI PUSH1 0x40 MLOAD PUSH32 0x8C379A000000000000000000000000000000000000000000000000000000000 DUP2 MSTORE PUSH1 0x4 ADD PUSH2 0x13F1 SWAP1 PUSH2 0x283E JUMP JUMPDEST PUSH1 0x40 MLOAD DUP1 SWAP2 SUB SWAP1 REVERT JUMPDEST DUP1 PUSH1 0x5 PUSH1 0x0 DUP6 PUSH20 0xFFFFFFFFFFFFFFFFFFFFFFFFFFFFFFFFFFFFFFFF AND PUSH20 0xFFFFFFFFFFFFFFFFFFFFFFFFFFFFFFFFFFFFFFFF AND DUP2 MSTORE PUSH1 0x20 ADD SWAP1 DUP2 MSTORE PUSH1 0x20 ADD PUSH1 0x0 KECCAK256 PUSH1 0x0 DUP5 PUSH20 0xFFFFFFFFFFFFFFFFFFFFFFFFFFFFFFFFFFFFFFFF AND PUSH20 0xFFFFFFFFFFFFFFFFFFFFFFFFFFFFFFFFFFFFFFFF AND DUP2 MSTORE PUSH1 0x20 ADD SWAP1 DUP2 MSTORE PUSH1 0x20 ADD PUSH1 0x0 KECCAK256 PUSH1 0x0 PUSH2 0x100 EXP DUP2 SLOAD DUP2 PUSH1 0xFF MUL NOT AND SWAP1 DUP4 ISZERO ISZERO MUL OR SWAP1 SSTORE POP DUP2 PUSH20 0xFFFFFFFFFFFFFFFFFFFFFFFFFFFFFFFFFFFFFFFF AND DUP4 PUSH20 0xFFFFFFFFFFFFFFFFFFFFFFFFFFFFFFFFFFFFFFFF AND PUSH32 0x17307EAB39AB6107E8899845AD3D59BD9653F200F220920489CA2B5937696C31 DUP4 PUSH1 0x40 MLOAD PUSH2 0x14EB SWAP2 SWAP1 PUSH2 0x1AAB JUMP JUMPDEST PUSH1 0x40 MLOAD DUP1 SWAP2 SUB SWAP1 LOG3 POP POP POP JUMP JUMPDEST PUSH2 0x1503 DUP5 DUP5 DUP5 PUSH2 0x1056 JUMP JUMPDEST PUSH2 0x150F DUP5 DUP5 DUP5 DUP5 PUSH2 0x15D5 JUMP JUMPDEST PUSH2 0x154E JUMPI PUSH1 0x40 MLOAD PUSH32 0x8C379A000000000000000000000000000000000000000000000000000000000 DUP2 MSTORE PUSH1 0x4 ADD PUSH2 0x1545 SWAP1 PUSH2 0x28D0 JUMP JUMPDEST PUSH1 0x40 MLOAD DUP1 SWAP2 SUB SWAP1 REVERT JUMPDEST POP POP POP POP JUMP JUMPDEST PUSH1 0x1 DUP2 PUSH1 0x0 ADD PUSH1 0x0 DUP3 DUP3 SLOAD ADD SWAP3 POP POP DUP2 SWAP1 SSTORE POP POP JUMP JUMPDEST PUSH2 0x1584 DUP3 DUP3 PUSH1 0x40 MLOAD DUP1 PUSH1 0x20 ADD PUSH1 0x40 MSTORE DUP1 PUSH1 0x0 DUP2 MSTORE POP PUSH2 0x175C JUMP JUMPDEST POP POP JUMP JUMPDEST PUSH1 0x0 DUP1 PUSH20 0xFFFFFFFFFFFFFFFFFFFFFFFFFFFFFFFFFFFFFFFF AND PUSH2 0x15AA DUP4 PUSH2 0x134F JUMP JUMPDEST PUSH20 0xFFFFFFFFFFFFFFFFFFFFFFFFFFFFFFFFFFFFFFFF AND EQ ISZERO SWAP1 POP SWAP2 SWAP1 POP JUMP JUMPDEST POP POP POP POP JUMP JUMPDEST POP POP POP POP JUMP JUMPDEST PUSH1 0x0 PUSH2 0x15F6 DUP5 PUSH20 0xFFFFFFFFFFFFFFFFFFFFFFFFFFFFFFFFFFFFFFFF AND PUSH2 0x17B7 JUMP JUMPDEST ISZERO PUSH2 0x174F JUMPI DUP4 PUSH20 0xFFFFFFFFFFFFFFFFFFFFFFFFFFFFFFFFFFFFFFFF AND PUSH4 0x150B7A02 PUSH2 0x161F PUSH2 0xEF2 JUMP JUMPDEST DUP8 DUP7 DUP7 PUSH1 0x40 MLOAD DUP6 PUSH4 0xFFFFFFFF AND PUSH1 0xE0 SHL DUP2 MSTORE PUSH1 0x4 ADD PUSH2 0x1641 SWAP5 SWAP4 SWAP3 SWAP2 SWAP1 PUSH2 0x28F0 JUMP JUMPDEST PUSH1 0x20 PUSH1 0x40 MLOAD DUP1 DUP4 SUB DUP2 PUSH1 0x0 DUP8 GAS CALL SWAP3 POP POP POP DUP1 ISZERO PUSH2 0x167D JUMPI POP PUSH1 0x40 MLOAD RETURNDATASIZE PUSH1 0x1F NOT PUSH1 0x1F DUP3 ADD AND DUP3 ADD DUP1 PUSH1 0x40 MSTORE POP DUP2 ADD SWAP1 PUSH2 0x167A SWAP2 SWAP1 PUSH2 0x2951 JUMP JUMPDEST PUSH1 0x1 JUMPDEST PUSH2 0x16FF JUMPI RETURNDATASIZE DUP1 PUSH1 0x0 DUP2 EQ PUSH2 0x16AD JUMPI PUSH1 0x40 MLOAD SWAP2 POP PUSH1 0x1F NOT PUSH1 0x3F RETURNDATASIZE ADD AND DUP3 ADD PUSH1 0x40 MSTORE RETURNDATASIZE DUP3 MSTORE RETURNDATASIZE PUSH1 0x0 PUSH1 0x20 DUP5 ADD RETURNDATACOPY PUSH2 0x16B2 JUMP JUMPDEST PUSH1 0x60 SWAP2 POP JUMPDEST POP PUSH1 0x0 DUP2 MLOAD SUB PUSH2 0x16F7 JUMPI PUSH1 0x40 MLOAD PUSH32 0x8C379A000000000000000000000000000000000000000000000000000000000 DUP2 MSTORE PUSH1 0x4 ADD PUSH2 0x16EE SWAP1 PUSH2 0x28D0 JUMP JUMPDEST PUSH1 0x40 MLOAD DUP1 SWAP2 SUB SWAP1 REVERT JUMPDEST DUP1 MLOAD DUP2 PUSH1 0x20 ADD REVERT JUMPDEST PUSH4 0x150B7A02 PUSH1 0xE0 SHL PUSH28 0xFFFFFFFFFFFFFFFFFFFFFFFFFFFFFFFFFFFFFFFFFFFFFFFFFFFFFFFF NOT AND DUP2 PUSH28 0xFFFFFFFFFFFFFFFFFFFFFFFFFFFFFFFFFFFFFFFFFFFFFFFFFFFFFFFF NOT AND EQ SWAP2 POP POP PUSH2 0x1754 JUMP JUMPDEST PUSH1 0x1 SWAP1 POP JUMPDEST SWAP5 SWAP4 POP POP POP POP JUMP JUMPDEST PUSH2 0x1766 DUP4 DUP4 PUSH2 0x17DA JUMP JUMPDEST PUSH2 0x1773 PUSH1 0x0 DUP5 DUP5 DUP5 PUSH2 0x15D5 JUMP JUMPDEST PUSH2 0x17B2 JUMPI PUSH1 0x40 MLOAD PUSH32 0x8C379A000000000000000000000000000000000000000000000000000000000 DUP2 MSTORE PUSH1 0x4 ADD PUSH2 0x17A9 SWAP1 PUSH2 0x28D0 JUMP JUMPDEST PUSH1 0x40 MLOAD DUP1 SWAP2 SUB SWAP1 REVERT JUMPDEST POP POP POP JUMP JUMPDEST PUSH1 0x0 DUP1 DUP3 PUSH20 0xFFFFFFFFFFFFFFFFFFFFFFFFFFFFFFFFFFFFFFFF AND EXTCODESIZE GT SWAP1 POP SWAP2 SWAP1 POP JUMP JUMPDEST PUSH1 0x0 PUSH20 0xFFFFFFFFFFFFFFFFFFFFFFFFFFFFFFFFFFFFFFFF AND DUP3 PUSH20 0xFFFFFFFFFFFFFFFFFFFFFFFFFFFFFFFFFFFFFFFF AND SUB PUSH2 0x1849 JUMPI PUSH1 0x40 MLOAD PUSH32 0x8C379A000000000000000000000000000000000000000000000000000000000 DUP2 MSTORE PUSH1 0x4 ADD PUSH2 0x1840 SWAP1 PUSH2 0x29CA JUMP JUMPDEST PUSH1 0x40 MLOAD DUP1 SWAP2 SUB SWAP1 REVERT JUMPDEST PUSH2 0x1852 DUP2 PUSH2 0x1588 JUMP JUMPDEST ISZERO PUSH2 0x1892 JUMPI PUSH1 0x40 MLOAD PUSH32 0x8C379A000000000000000000000000000000000000000000000000000000000 DUP2 MSTORE PUSH1 0x4 ADD PUSH2 0x1889 SWAP1 PUSH2 0x2A36 JUMP JUMPDEST PUSH1 0x40 MLOAD DUP1 SWAP2 SUB SWAP1 REVERT JUMPDEST PUSH2 0x18A0 PUSH1 0x0 DUP4 DUP4 PUSH1 0x1 PUSH2 0x15C9 JUMP JUMPDEST PUSH2 0x18A9 DUP2 PUSH2 0x1588 JUMP JUMPDEST ISZERO PUSH2 0x18E9 JUMPI PUSH1 0x40 MLOAD PUSH32 0x8C379A000000000000000000000000000000000000000000000000000000000 DUP2 MSTORE PUSH1 0x4 ADD PUSH2 0x18E0 SWAP1 PUSH2 0x2A36 JUMP JUMPDEST PUSH1 0x40 MLOAD DUP1 SWAP2 SUB SWAP1 REVERT JUMPDEST PUSH1 0x1 PUSH1 0x3 PUSH1 0x0 DUP5 PUSH20 0xFFFFFFFFFFFFFFFFFFFFFFFFFFFFFFFFFFFFFFFF AND PUSH20 0xFFFFFFFFFFFFFFFFFFFFFFFFFFFFFFFFFFFFFFFF AND DUP2 MSTORE PUSH1 0x20 ADD SWAP1 DUP2 MSTORE PUSH1 0x20 ADD PUSH1 0x0 KECCAK256 PUSH1 0x0 DUP3 DUP3 SLOAD ADD SWAP3 POP POP DUP2 SWAP1 SSTORE POP DUP2 PUSH1 0x2 PUSH1 0x0 DUP4 DUP2 MSTORE PUSH1 0x20 ADD SWAP1 DUP2 MSTORE PUSH1 0x20 ADD PUSH1 0x0 KECCAK256 PUSH1 0x0 PUSH2 0x100 EXP DUP2 SLOAD DUP2 PUSH20 0xFFFFFFFFFFFFFFFFFFFFFFFFFFFFFFFFFFFFFFFF MUL NOT AND SWAP1 DUP4 PUSH20 0xFFFFFFFFFFFFFFFFFFFFFFFFFFFFFFFFFFFFFFFF AND MUL OR SWAP1 SSTORE POP DUP1 DUP3 PUSH20 0xFFFFFFFFFFFFFFFFFFFFFFFFFFFFFFFFFFFFFFFF AND PUSH1 0x0 PUSH20 0xFFFFFFFFFFFFFFFFFFFFFFFFFFFFFFFFFFFFFFFF AND PUSH32 0xDDF252AD1BE2C89B69C2B068FC378DAA952BA7F163C4A11628F55A4DF523B3EF PUSH1 0x40 MLOAD PUSH1 0x40 MLOAD DUP1 SWAP2 SUB SWAP1 LOG4 PUSH2 0x19F3 PUSH1 0x0 DUP4 DUP4 PUSH1 0x1 PUSH2 0x15CF JUMP JUMPDEST POP POP JUMP JUMPDEST PUSH1 0x0 PUSH1 0x40 MLOAD SWAP1 POP SWAP1 JUMP JUMPDEST PUSH1 0x0 DUP1 REVERT JUMPDEST PUSH1 0x0 DUP1 REVERT JUMPDEST PUSH1 0x0 PUSH32 0xFFFFFFFF00000000000000000000000000000000000000000000000000000000 DUP3 AND SWAP1 POP SWAP2 SWAP1 POP JUMP JUMPDEST PUSH2 0x1A40 DUP2 PUSH2 0x1A0B JUMP JUMPDEST DUP2 EQ PUSH2 0x1A4B JUMPI PUSH1 0x0 DUP1 REVERT JUMPDEST POP JUMP JUMPDEST PUSH1 0x0 DUP2 CALLDATALOAD SWAP1 POP PUSH2 0x1A5D DUP2 PUSH2 0x1A37 JUMP JUMPDEST SWAP3 SWAP2 POP POP JUMP JUMPDEST PUSH1 0x0 PUSH1 0x20 DUP3 DUP5 SUB SLT ISZERO PUSH2 0x1A79 JUMPI PUSH2 0x1A78 PUSH2 0x1A01 JUMP JUMPDEST JUMPDEST PUSH1 0x0 PUSH2 0x1A87 DUP5 DUP3 DUP6 ADD PUSH2 0x1A4E JUMP JUMPDEST SWAP2 POP POP SWAP3 SWAP2 POP POP JUMP JUMPDEST PUSH1 0x0 DUP2 ISZERO ISZERO SWAP1 POP SWAP2 SWAP1 POP JUMP JUMPDEST PUSH2 0x1AA5 DUP2 PUSH2 0x1A90 JUMP JUMPDEST DUP3 MSTORE POP POP JUMP JUMPDEST PUSH1 0x0 PUSH1 0x20 DUP3 ADD SWAP1 POP PUSH2 0x1AC0 PUSH1 0x0 DUP4 ADD DUP5 PUSH2 0x1A9C JUMP JUMPDEST SWAP3 SWAP2 POP POP JUMP JUMPDEST PUSH1 0x0 DUP2 MLOAD SWAP1 POP SWAP2 SWAP1 POP JUMP JUMPDEST PUSH1 0x0 DUP3 DUP3 MSTORE PUSH1 0x20 DUP3 ADD SWAP1 POP SWAP3 SWAP2 POP POP JUMP JUMPDEST PUSH1 0x0 JUMPDEST DUP4 DUP2 LT ISZERO PUSH2 0x1B00 JUMPI DUP1 DUP3 ADD MLOAD DUP2 DUP5 ADD MSTORE PUSH1 0x20 DUP2 ADD SWAP1 POP PUSH2 0x1AE5 JUMP JUMPDEST PUSH1 0x0 DUP5 DUP5 ADD MSTORE POP POP POP POP JUMP JUMPDEST PUSH1 0x0 PUSH1 0x1F NOT PUSH1 0x1F DUP4 ADD AND SWAP1 POP SWAP2 SWAP1 POP JUMP JUMPDEST PUSH1 0x0 PUSH2 0x1B28 DUP3 PUSH2 0x1AC6 JUMP JUMPDEST PUSH2 0x1B32 DUP2 DUP6 PUSH2 0x1AD1 JUMP JUMPDEST SWAP4 POP PUSH2 0x1B42 DUP2 DUP6 PUSH1 0x20 DUP7 ADD PUSH2 0x1AE2 JUMP JUMPDEST PUSH2 0x1B4B DUP2 PUSH2 0x1B0C JUMP JUMPDEST DUP5 ADD SWAP2 POP POP SWAP3 SWAP2 POP POP JUMP JUMPDEST PUSH1 0x0 PUSH1 0x20 DUP3 ADD SWAP1 POP DUP2 DUP2 SUB PUSH1 0x0 DUP4 ADD MSTORE PUSH2 0x1B70 DUP2 DUP5 PUSH2 0x1B1D JUMP JUMPDEST SWAP1 POP SWAP3 SWAP2 POP POP JUMP JUMPDEST PUSH1 0x0 DUP2 SWAP1 POP SWAP2 SWAP1 POP JUMP JUMPDEST PUSH2 0x1B8B DUP2 PUSH2 0x1B78 JUMP JUMPDEST DUP2 EQ PUSH2 0x1B96 JUMPI PUSH1 0x0 DUP1 REVERT JUMPDEST POP JUMP JUMPDEST PUSH1 0x0 DUP2 CALLDATALOAD SWAP1 POP PUSH2 0x1BA8 DUP2 PUSH2 0x1B82 JUMP JUMPDEST SWAP3 SWAP2 POP POP JUMP JUMPDEST PUSH1 0x0 PUSH1 0x20 DUP3 DUP5 SUB SLT ISZERO PUSH2 0x1BC4 JUMPI PUSH2 0x1BC3 PUSH2 0x1A01 JUMP JUMPDEST JUMPDEST PUSH1 0x0 PUSH2 0x1BD2 DUP5 DUP3 DUP6 ADD PUSH2 0x1B99 JUMP JUMPDEST SWAP2 POP POP SWAP3 SWAP2 POP POP JUMP JUMPDEST PUSH1 0x0 PUSH20 0xFFFFFFFFFFFFFFFFFFFFFFFFFFFFFFFFFFFFFFFF DUP3 AND SWAP1 POP SWAP2 SWAP1 POP JUMP JUMPDEST PUSH1 0x0 PUSH2 0x1C06 DUP3 PUSH2 0x1BDB JUMP JUMPDEST SWAP1 POP SWAP2 SWAP1 POP JUMP JUMPDEST PUSH2 0x1C16 DUP2 PUSH2 0x1BFB JUMP JUMPDEST DUP3 MSTORE POP POP JUMP JUMPDEST PUSH1 0x0 PUSH1 0x20 DUP3 ADD SWAP1 POP PUSH2 0x1C31 PUSH1 0x0 DUP4 ADD DUP5 PUSH2 0x1C0D JUMP JUMPDEST SWAP3 SWAP2 POP POP JUMP JUMPDEST PUSH2 0x1C40 DUP2 PUSH2 0x1BFB JUMP JUMPDEST DUP2 EQ PUSH2 0x1C4B JUMPI PUSH1 0x0 DUP1 REVERT JUMPDEST POP JUMP JUMPDEST PUSH1 0x0 DUP2 CALLDATALOAD SWAP1 POP PUSH2 0x1C5D DUP2 PUSH2 0x1C37 JUMP JUMPDEST SWAP3 SWAP2 POP POP JUMP JUMPDEST PUSH1 0x0 DUP1 PUSH1 0x40 DUP4 DUP6 SUB SLT ISZERO PUSH2 0x1C7A JUMPI PUSH2 0x1C79 PUSH2 0x1A01 JUMP JUMPDEST JUMPDEST PUSH1 0x0 PUSH2 0x1C88 DUP6 DUP3 DUP7 ADD PUSH2 0x1C4E JUMP JUMPDEST SWAP3 POP POP PUSH1 0x20 PUSH2 0x1C99 DUP6 DUP3 DUP7 ADD PUSH2 0x1B99 JUMP JUMPDEST SWAP2 POP POP SWAP3 POP SWAP3 SWAP1 POP JUMP JUMPDEST PUSH2 0x1CAC DUP2 PUSH2 0x1B78 JUMP JUMPDEST DUP3 MSTORE POP POP JUMP JUMPDEST PUSH1 0x0 PUSH1 0x20 DUP3 ADD SWAP1 POP PUSH2 0x1CC7 PUSH1 0x0 DUP4 ADD DUP5 PUSH2 0x1CA3 JUMP JUMPDEST SWAP3 SWAP2 POP POP JUMP JUMPDEST PUSH1 0x0 DUP1 PUSH1 0x0 PUSH1 0x60 DUP5 DUP7 SUB SLT ISZERO PUSH2 0x1CE6 JUMPI PUSH2 0x1CE5 PUSH2 0x1A01 JUMP JUMPDEST JUMPDEST PUSH1 0x0 PUSH2 0x1CF4 DUP7 DUP3 DUP8 ADD PUSH2 0x1C4E JUMP JUMPDEST SWAP4 POP POP PUSH1 0x20 PUSH2 0x1D05 DUP7 DUP3 DUP8 ADD PUSH2 0x1C4E JUMP JUMPDEST SWAP3 POP POP PUSH1 0x40 PUSH2 0x1D16 DUP7 DUP3 DUP8 ADD PUSH2 0x1B99 JUMP JUMPDEST SWAP2 POP POP SWAP3 POP SWAP3 POP SWAP3 JUMP JUMPDEST PUSH1 0x0 DUP1 REVERT JUMPDEST PUSH1 0x0 DUP1 REVERT JUMPDEST PUSH1 0x0 DUP1 REVERT JUMPDEST PUSH1 0x0 DUP1 DUP4 PUSH1 0x1F DUP5 ADD SLT PUSH2 0x1D45 JUMPI PUSH2 0x1D44 PUSH2 0x1D20 JUMP JUMPDEST JUMPDEST DUP3 CALLDATALOAD SWAP1 POP PUSH8 0xFFFFFFFFFFFFFFFF DUP2 GT ISZERO PUSH2 0x1D62 JUMPI PUSH2 0x1D61 PUSH2 0x1D25 JUMP JUMPDEST JUMPDEST PUSH1 0x20 DUP4 ADD SWAP2 POP DUP4 PUSH1 0x1 DUP3 MUL DUP4 ADD GT ISZERO PUSH2 0x1D7E JUMPI PUSH2 0x1D7D PUSH2 0x1D2A JUMP JUMPDEST JUMPDEST SWAP3 POP SWAP3 SWAP1 POP JUMP JUMPDEST PUSH1 0x0 DUP1 PUSH1 0x20 DUP4 DUP6 SUB SLT ISZERO PUSH2 0x1D9C JUMPI PUSH2 0x1D9B PUSH2 0x1A01 JUMP JUMPDEST JUMPDEST PUSH1 0x0 DUP4 ADD CALLDATALOAD PUSH8 0xFFFFFFFFFFFFFFFF DUP2 GT ISZERO PUSH2 0x1DBA JUMPI PUSH2 0x1DB9 PUSH2 0x1A06 JUMP JUMPDEST JUMPDEST PUSH2 0x1DC6 DUP6 DUP3 DUP7 ADD PUSH2 0x1D2F JUMP JUMPDEST SWAP3 POP SWAP3 POP POP SWAP3 POP SWAP3 SWAP1 POP JUMP JUMPDEST PUSH1 0x0 DUP2 MLOAD SWAP1 POP SWAP2 SWAP1 POP JUMP JUMPDEST PUSH1 0x0 DUP3 DUP3 MSTORE PUSH1 0x20 DUP3 ADD SWAP1 POP SWAP3 SWAP2 POP POP JUMP JUMPDEST PUSH1 0x0 PUSH2 0x1DF9 DUP3 PUSH2 0x1DD2 JUMP JUMPDEST PUSH2 0x1E03 DUP2 DUP6 PUSH2 0x1DDD JUMP JUMPDEST SWAP4 POP PUSH2 0x1E13 DUP2 DUP6 PUSH1 0x20 DUP7 ADD PUSH2 0x1AE2 JUMP JUMPDEST PUSH2 0x1E1C DUP2 PUSH2 0x1B0C JUMP JUMPDEST DUP5 ADD SWAP2 POP POP SWAP3 SWAP2 POP POP JUMP JUMPDEST PUSH1 0x0 PUSH1 0x40 DUP3 ADD SWAP1 POP PUSH2 0x1E3C PUSH1 0x0 DUP4 ADD DUP6 PUSH2 0x1A9C JUMP JUMPDEST DUP2 DUP2 SUB PUSH1 0x20 DUP4 ADD MSTORE PUSH2 0x1E4E DUP2 DUP5 PUSH2 0x1DEE JUMP JUMPDEST SWAP1 POP SWAP4 SWAP3 POP POP POP JUMP JUMPDEST PUSH1 0x0 PUSH1 0x20 DUP3 DUP5 SUB SLT ISZERO PUSH2 0x1E6D JUMPI PUSH2 0x1E6C PUSH2 0x1A01 JUMP JUMPDEST JUMPDEST PUSH1 0x0 PUSH2 0x1E7B DUP5 DUP3 DUP6 ADD PUSH2 0x1C4E JUMP JUMPDEST SWAP2 POP POP SWAP3 SWAP2 POP POP JUMP JUMPDEST PUSH2 0x1E8D DUP2 PUSH2 0x1A90 JUMP JUMPDEST DUP2 EQ PUSH2 0x1E98 JUMPI PUSH1 0x0 DUP1 REVERT JUMPDEST POP JUMP JUMPDEST PUSH1 0x0 DUP2 CALLDATALOAD SWAP1 POP PUSH2 0x1EAA DUP2 PUSH2 0x1E84 JUMP JUMPDEST SWAP3 SWAP2 POP POP JUMP JUMPDEST PUSH1 0x0 DUP1 PUSH1 0x40 DUP4 DUP6 SUB SLT ISZERO PUSH2 0x1EC7 JUMPI PUSH2 0x1EC6 PUSH2 0x1A01 JUMP JUMPDEST JUMPDEST PUSH1 0x0 PUSH2 0x1ED5 DUP6 DUP3 DUP7 ADD PUSH2 0x1C4E JUMP JUMPDEST SWAP3 POP POP PUSH1 0x20 PUSH2 0x1EE6 DUP6 DUP3 DUP7 ADD PUSH2 0x1E9B JUMP JUMPDEST SWAP2 POP POP SWAP3 POP SWAP3 SWAP1 POP JUMP JUMPDEST PUSH1 0x0 DUP1 REVERT JUMPDEST PUSH32 0x4E487B7100000000000000000000000000000000000000000000000000000000 PUSH1 0x0 MSTORE PUSH1 0x41 PUSH1 0x4 MSTORE PUSH1 0x24 PUSH1 0x0 REVERT JUMPDEST PUSH2 0x1F2D DUP3 PUSH2 0x1B0C JUMP JUMPDEST DUP2 ADD DUP2 DUP2 LT PUSH8 0xFFFFFFFFFFFFFFFF DUP3 GT OR ISZERO PUSH2 0x1F4C JUMPI PUSH2 0x1F4B PUSH2 0x1EF5 JUMP JUMPDEST JUMPDEST DUP1 PUSH1 0x40 MSTORE POP POP POP JUMP JUMPDEST PUSH1 0x0 PUSH2 0x1F5F PUSH2 0x19F7 JUMP JUMPDEST SWAP1 POP PUSH2 0x1F6B DUP3 DUP3 PUSH2 0x1F24 JUMP JUMPDEST SWAP2 SWAP1 POP JUMP JUMPDEST PUSH1 0x0 PUSH8 0xFFFFFFFFFFFFFFFF DUP3 GT ISZERO PUSH2 0x1F8B JUMPI PUSH2 0x1F8A PUSH2 0x1EF5 JUMP JUMPDEST JUMPDEST PUSH2 0x1F94 DUP3 PUSH2 0x1B0C JUMP JUMPDEST SWAP1 POP PUSH1 0x20 DUP2 ADD SWAP1 POP SWAP2 SWAP1 POP JUMP JUMPDEST DUP3 DUP2 DUP4 CALLDATACOPY PUSH1 0x0 DUP4 DUP4 ADD MSTORE POP POP POP JUMP JUMPDEST PUSH1 0x0 PUSH2 0x1FC3 PUSH2 0x1FBE DUP5 PUSH2 0x1F70 JUMP JUMPDEST PUSH2 0x1F55 JUMP JUMPDEST SWAP1 POP DUP3 DUP2 MSTORE PUSH1 0x20 DUP2 ADD DUP5 DUP5 DUP5 ADD GT ISZERO PUSH2 0x1FDF JUMPI PUSH2 0x1FDE PUSH2 0x1EF0 JUMP JUMPDEST JUMPDEST PUSH2 0x1FEA DUP5 DUP3 DUP6 PUSH2 0x1FA1 JUMP JUMPDEST POP SWAP4 SWAP3 POP POP POP JUMP JUMPDEST PUSH1 0x0 DUP3 PUSH1 0x1F DUP4 ADD SLT PUSH2 0x2007 JUMPI PUSH2 0x2006 PUSH2 0x1D20 JUMP JUMPDEST JUMPDEST DUP2 CALLDATALOAD PUSH2 0x2017 DUP5 DUP3 PUSH1 0x20 DUP7 ADD PUSH2 0x1FB0 JUMP JUMPDEST SWAP2 POP POP SWAP3 SWAP2 POP POP JUMP JUMPDEST PUSH1 0x0 DUP1 PUSH1 0x0 DUP1 PUSH1 0x80 DUP6 DUP8 SUB SLT ISZERO PUSH2 0x203A JUMPI PUSH2 0x2039 PUSH2 0x1A01 JUMP JUMPDEST JUMPDEST PUSH1 0x0 PUSH2 0x2048 DUP8 DUP3 DUP9 ADD PUSH2 0x1C4E JUMP JUMPDEST SWAP5 POP POP PUSH1 0x20 PUSH2 0x2059 DUP8 DUP3 DUP9 ADD PUSH2 0x1C4E JUMP JUMPDEST SWAP4 POP POP PUSH1 0x40 PUSH2 0x206A DUP8 DUP3 DUP9 ADD PUSH2 0x1B99 JUMP JUMPDEST SWAP3 POP POP PUSH1 0x60 DUP6 ADD CALLDATALOAD PUSH8 0xFFFFFFFFFFFFFFFF DUP2 GT ISZERO PUSH2 0x208B JUMPI PUSH2 0x208A PUSH2 0x1A06 JUMP JUMPDEST JUMPDEST PUSH2 0x2097 DUP8 DUP3 DUP9 ADD PUSH2 0x1FF2 JUMP JUMPDEST SWAP2 POP POP SWAP3 SWAP6 SWAP2 SWAP5 POP SWAP3 POP JUMP JUMPDEST PUSH1 0x0 PUSH8 0xFFFFFFFFFFFFFFFF DUP3 GT ISZERO PUSH2 0x20BE JUMPI PUSH2 0x20BD PUSH2 0x1EF5 JUMP JUMPDEST JUMPDEST PUSH2 0x20C7 DUP3 PUSH2 0x1B0C JUMP JUMPDEST SWAP1 POP PUSH1 0x20 DUP2 ADD SWAP1 POP SWAP2 SWAP1 POP JUMP JUMPDEST PUSH1 0x0 PUSH2 0x20E7 PUSH2 0x20E2 DUP5 PUSH2 0x20A3 JUMP JUMPDEST PUSH2 0x1F55 JUMP JUMPDEST SWAP1 POP DUP3 DUP2 MSTORE PUSH1 0x20 DUP2 ADD DUP5 DUP5 DUP5 ADD GT ISZERO PUSH2 0x2103 JUMPI PUSH2 0x2102 PUSH2 0x1EF0 JUMP JUMPDEST JUMPDEST PUSH2 0x210E DUP5 DUP3 DUP6 PUSH2 0x1FA1 JUMP JUMPDEST POP SWAP4 SWAP3 POP POP POP JUMP JUMPDEST PUSH1 0x0 DUP3 PUSH1 0x1F DUP4 ADD SLT PUSH2 0x212B JUMPI PUSH2 0x212A PUSH2 0x1D20 JUMP JUMPDEST JUMPDEST DUP2 CALLDATALOAD PUSH2 0x213B DUP5 DUP3 PUSH1 0x20 DUP7 ADD PUSH2 0x20D4 JUMP JUMPDEST SWAP2 POP POP SWAP3 SWAP2 POP POP JUMP JUMPDEST PUSH1 0x0 DUP1 PUSH1 0x40 DUP4 DUP6 SUB SLT ISZERO PUSH2 0x215B JUMPI PUSH2 0x215A PUSH2 0x1A01 JUMP JUMPDEST JUMPDEST PUSH1 0x0 PUSH2 0x2169 DUP6 DUP3 DUP7 ADD PUSH2 0x1C4E JUMP JUMPDEST SWAP3 POP POP PUSH1 0x20 DUP4 ADD CALLDATALOAD PUSH8 0xFFFFFFFFFFFFFFFF DUP2 GT ISZERO PUSH2 0x218A JUMPI PUSH2 0x2189 PUSH2 0x1A06 JUMP JUMPDEST JUMPDEST PUSH2 0x2196 DUP6 DUP3 DUP7 ADD PUSH2 0x2116 JUMP JUMPDEST SWAP2 POP POP SWAP3 POP SWAP3 SWAP1 POP JUMP JUMPDEST PUSH1 0x0 DUP1 PUSH1 0x40 DUP4 DUP6 SUB SLT ISZERO PUSH2 0x21B7 JUMPI PUSH2 0x21B6 PUSH2 0x1A01 JUMP JUMPDEST JUMPDEST PUSH1 0x0 PUSH2 0x21C5 DUP6 DUP3 DUP7 ADD PUSH2 0x1C4E JUMP JUMPDEST SWAP3 POP POP PUSH1 0x20 PUSH2 0x21D6 DUP6 DUP3 DUP7 ADD PUSH2 0x1C4E JUMP JUMPDEST SWAP2 POP POP SWAP3 POP SWAP3 SWAP1 POP JUMP JUMPDEST PUSH32 0x4E487B7100000000000000000000000000000000000000000000000000000000 PUSH1 0x0 MSTORE PUSH1 0x22 PUSH1 0x4 MSTORE PUSH1 0x24 PUSH1 0x0 REVERT JUMPDEST PUSH1 0x0 PUSH1 0x2 DUP3 DIV SWAP1 POP PUSH1 0x1 DUP3 AND DUP1 PUSH2 0x2227 JUMPI PUSH1 0x7F DUP3 AND SWAP2 POP JUMPDEST PUSH1 0x20 DUP3 LT DUP2 SUB PUSH2 0x223A JUMPI PUSH2 0x2239 PUSH2 0x21E0 JUMP JUMPDEST JUMPDEST POP SWAP2 SWAP1 POP JUMP JUMPDEST PUSH32 0x4552433732313A20617070726F76616C20746F2063757272656E74206F776E65 PUSH1 0x0 DUP3 ADD MSTORE PUSH32 0x7200000000000000000000000000000000000000000000000000000000000000 PUSH1 0x20 DUP3 ADD MSTORE POP JUMP JUMPDEST PUSH1 0x0 PUSH2 0x229C PUSH1 0x21 DUP4 PUSH2 0x1AD1 JUMP JUMPDEST SWAP2 POP PUSH2 0x22A7 DUP3 PUSH2 0x2240 JUMP JUMPDEST PUSH1 0x40 DUP3 ADD SWAP1 POP SWAP2 SWAP1 POP JUMP JUMPDEST PUSH1 0x0 PUSH1 0x20 DUP3 ADD SWAP1 POP DUP2 DUP2 SUB PUSH1 0x0 DUP4 ADD MSTORE PUSH2 0x22CB DUP2 PUSH2 0x228F JUMP JUMPDEST SWAP1 POP SWAP2 SWAP1 POP JUMP JUMPDEST PUSH32 0x4552433732313A20617070726F76652063616C6C6572206973206E6F7420746F PUSH1 0x0 DUP3 ADD MSTORE PUSH32 0x6B656E206F776E6572206F7220617070726F76656420666F7220616C6C000000 PUSH1 0x20 DUP3 ADD MSTORE POP JUMP JUMPDEST PUSH1 0x0 PUSH2 0x232E PUSH1 0x3D DUP4 PUSH2 0x1AD1 JUMP JUMPDEST SWAP2 POP PUSH2 0x2339 DUP3 PUSH2 0x22D2 JUMP JUMPDEST PUSH1 0x40 DUP3 ADD SWAP1 POP SWAP2 SWAP1 POP JUMP JUMPDEST PUSH1 0x0 PUSH1 0x20 DUP3 ADD SWAP1 POP DUP2 DUP2 SUB PUSH1 0x0 DUP4 ADD MSTORE PUSH2 0x235D DUP2 PUSH2 0x2321 JUMP JUMPDEST SWAP1 POP SWAP2 SWAP1 POP JUMP JUMPDEST PUSH32 0x4572726F7220746F6B656E204944000000000000000000000000000000000000 PUSH1 0x0 DUP3 ADD MSTORE POP JUMP JUMPDEST PUSH1 0x0 PUSH2 0x239A PUSH1 0xE DUP4 PUSH2 0x1AD1 JUMP JUMPDEST SWAP2 POP PUSH2 0x23A5 DUP3 PUSH2 0x2364 JUMP JUMPDEST PUSH1 0x20 DUP3 ADD SWAP1 POP SWAP2 SWAP1 POP JUMP JUMPDEST PUSH1 0x0 PUSH1 0x20 DUP3 ADD SWAP1 POP DUP2 DUP2 SUB PUSH1 0x0 DUP4 ADD MSTORE PUSH2 0x23C9 DUP2 PUSH2 0x238D JUMP JUMPDEST SWAP1 POP SWAP2 SWAP1 POP JUMP JUMPDEST PUSH32 0x4E487B7100000000000000000000000000000000000000000000000000000000 PUSH1 0x0 MSTORE PUSH1 0x11 PUSH1 0x4 MSTORE PUSH1 0x24 PUSH1 0x0 REVERT JUMPDEST PUSH1 0x0 PUSH2 0x240A DUP3 PUSH2 0x1B78 JUMP JUMPDEST SWAP2 POP PUSH32 0xFFFFFFFFFFFFFFFFFFFFFFFFFFFFFFFFFFFFFFFFFFFFFFFFFFFFFFFFFFFFFFFF DUP3 SUB PUSH2 0x243C JUMPI PUSH2 0x243B PUSH2 0x23D0 JUMP JUMPDEST JUMPDEST PUSH1 0x1 DUP3 ADD SWAP1 POP SWAP2 SWAP1 POP JUMP JUMPDEST PUSH32 0x4552433732313A2063616C6C6572206973206E6F7420746F6B656E206F776E65 PUSH1 0x0 DUP3 ADD MSTORE PUSH32 0x72206F7220617070726F76656400000000000000000000000000000000000000 PUSH1 0x20 DUP3 ADD MSTORE POP JUMP JUMPDEST PUSH1 0x0 PUSH2 0x24A3 PUSH1 0x2D DUP4 PUSH2 0x1AD1 JUMP JUMPDEST SWAP2 POP PUSH2 0x24AE DUP3 PUSH2 0x2447 JUMP JUMPDEST PUSH1 0x40 DUP3 ADD SWAP1 POP SWAP2 SWAP1 POP JUMP JUMPDEST PUSH1 0x0 PUSH1 0x20 DUP3 ADD SWAP1 POP DUP2 DUP2 SUB PUSH1 0x0 DUP4 ADD MSTORE PUSH2 0x24D2 DUP2 PUSH2 0x2496 JUMP JUMPDEST SWAP1 POP SWAP2 SWAP1 POP JUMP JUMPDEST PUSH1 0x0 PUSH2 0x24E4 DUP3 PUSH2 0x1B78 JUMP JUMPDEST SWAP2 POP PUSH2 0x24EF DUP4 PUSH2 0x1B78 JUMP JUMPDEST SWAP3 POP DUP3 DUP3 SUB SWAP1 POP DUP2 DUP2 GT ISZERO PUSH2 0x2507 JUMPI PUSH2 0x2506 PUSH2 0x23D0 JUMP JUMPDEST JUMPDEST SWAP3 SWAP2 POP POP JUMP JUMPDEST PUSH32 0x4552433732313A20696E76616C696420746F6B656E2049440000000000000000 PUSH1 0x0 DUP3 ADD MSTORE POP JUMP JUMPDEST PUSH1 0x0 PUSH2 0x2543 PUSH1 0x18 DUP4 PUSH2 0x1AD1 JUMP JUMPDEST SWAP2 POP PUSH2 0x254E DUP3 PUSH2 0x250D JUMP JUMPDEST PUSH1 0x20 DUP3 ADD SWAP1 POP SWAP2 SWAP1 POP JUMP JUMPDEST PUSH1 0x0 PUSH1 0x20 DUP3 ADD SWAP1 POP DUP2 DUP2 SUB PUSH1 0x0 DUP4 ADD MSTORE PUSH2 0x2572 DUP2 PUSH2 0x2536 JUMP JUMPDEST SWAP1 POP SWAP2 SWAP1 POP JUMP JUMPDEST PUSH32 0x4552433732313A2061646472657373207A65726F206973206E6F742061207661 PUSH1 0x0 DUP3 ADD MSTORE PUSH32 0x6C6964206F776E65720000000000000000000000000000000000000000000000 PUSH1 0x20 DUP3 ADD MSTORE POP JUMP JUMPDEST PUSH1 0x0 PUSH2 0x25D5 PUSH1 0x29 DUP4 PUSH2 0x1AD1 JUMP JUMPDEST SWAP2 POP PUSH2 0x25E0 DUP3 PUSH2 0x2579 JUMP JUMPDEST PUSH1 0x40 DUP3 ADD SWAP1 POP SWAP2 SWAP1 POP JUMP JUMPDEST PUSH1 0x0 PUSH1 0x20 DUP3 ADD SWAP1 POP DUP2 DUP2 SUB PUSH1 0x0 DUP4 ADD MSTORE PUSH2 0x2604 DUP2 PUSH2 0x25C8 JUMP JUMPDEST SWAP1 POP SWAP2 SWAP1 POP JUMP JUMPDEST PUSH32 0x4E487B7100000000000000000000000000000000000000000000000000000000 PUSH1 0x0 MSTORE PUSH1 0x32 PUSH1 0x4 MSTORE PUSH1 0x24 PUSH1 0x0 REVERT JUMPDEST PUSH1 0x0 PUSH2 0x2645 DUP3 PUSH2 0x1B78 JUMP JUMPDEST SWAP2 POP PUSH2 0x2650 DUP4 PUSH2 0x1B78 JUMP JUMPDEST SWAP3 POP DUP3 DUP3 ADD SWAP1 POP DUP1 DUP3 GT ISZERO PUSH2 0x2668 JUMPI PUSH2 0x2667 PUSH2 0x23D0 JUMP JUMPDEST JUMPDEST SWAP3 SWAP2 POP POP JUMP JUMPDEST PUSH32 0x4E487B7100000000000000000000000000000000000000000000000000000000 PUSH1 0x0 MSTORE PUSH1 0x12 PUSH1 0x4 MSTORE PUSH1 0x24 PUSH1 0x0 REVERT JUMPDEST PUSH1 0x0 PUSH2 0x26A8 DUP3 PUSH2 0x1B78 JUMP JUMPDEST SWAP2 POP PUSH2 0x26B3 DUP4 PUSH2 0x1B78 JUMP JUMPDEST SWAP3 POP DUP3 PUSH2 0x26C3 JUMPI PUSH2 0x26C2 PUSH2 0x266E JUMP JUMPDEST JUMPDEST DUP3 DUP3 MOD SWAP1 POP SWAP3 SWAP2 POP POP JUMP JUMPDEST PUSH32 0x4552433732313A207472616E736665722066726F6D20696E636F727265637420 PUSH1 0x0 DUP3 ADD MSTORE PUSH32 0x6F776E6572000000000000000000000000000000000000000000000000000000 PUSH1 0x20 DUP3 ADD MSTORE POP JUMP JUMPDEST PUSH1 0x0 PUSH2 0x272A PUSH1 0x25 DUP4 PUSH2 0x1AD1 JUMP JUMPDEST SWAP2 POP PUSH2 0x2735 DUP3 PUSH2 0x26CE JUMP JUMPDEST PUSH1 0x40 DUP3 ADD SWAP1 POP SWAP2 SWAP1 POP JUMP JUMPDEST PUSH1 0x0 PUSH1 0x20 DUP3 ADD SWAP1 POP DUP2 DUP2 SUB PUSH1 0x0 DUP4 ADD MSTORE PUSH2 0x2759 DUP2 PUSH2 0x271D JUMP JUMPDEST SWAP1 POP SWAP2 SWAP1 POP JUMP JUMPDEST PUSH32 0x4552433732313A207472616E7366657220746F20746865207A65726F20616464 PUSH1 0x0 DUP3 ADD MSTORE PUSH32 0x7265737300000000000000000000000000000000000000000000000000000000 PUSH1 0x20 DUP3 ADD MSTORE POP JUMP JUMPDEST PUSH1 0x0 PUSH2 0x27BC PUSH1 0x24 DUP4 PUSH2 0x1AD1 JUMP JUMPDEST SWAP2 POP PUSH2 0x27C7 DUP3 PUSH2 0x2760 JUMP JUMPDEST PUSH1 0x40 DUP3 ADD SWAP1 POP SWAP2 SWAP1 POP JUMP JUMPDEST PUSH1 0x0 PUSH1 0x20 DUP3 ADD SWAP1 POP DUP2 DUP2 SUB PUSH1 0x0 DUP4 ADD MSTORE PUSH2 0x27EB DUP2 PUSH2 0x27AF JUMP JUMPDEST SWAP1 POP SWAP2 SWAP1 POP JUMP JUMPDEST PUSH32 0x4552433732313A20617070726F766520746F2063616C6C657200000000000000 PUSH1 0x0 DUP3 ADD MSTORE POP JUMP JUMPDEST PUSH1 0x0 PUSH2 0x2828 PUSH1 0x19 DUP4 PUSH2 0x1AD1 JUMP JUMPDEST SWAP2 POP PUSH2 0x2833 DUP3 PUSH2 0x27F2 JUMP JUMPDEST PUSH1 0x20 DUP3 ADD SWAP1 POP SWAP2 SWAP1 POP JUMP JUMPDEST PUSH1 0x0 PUSH1 0x20 DUP3 ADD SWAP1 POP DUP2 DUP2 SUB PUSH1 0x0 DUP4 ADD MSTORE PUSH2 0x2857 DUP2 PUSH2 0x281B JUMP JUMPDEST SWAP1 POP SWAP2 SWAP1 POP JUMP JUMPDEST PUSH32 0x4552433732313A207472616E7366657220746F206E6F6E204552433732315265 PUSH1 0x0 DUP3 ADD MSTORE PUSH32 0x63656976657220696D706C656D656E7465720000000000000000000000000000 PUSH1 0x20 DUP3 ADD MSTORE POP JUMP JUMPDEST PUSH1 0x0 PUSH2 0x28BA PUSH1 0x32 DUP4 PUSH2 0x1AD1 JUMP JUMPDEST SWAP2 POP PUSH2 0x28C5 DUP3 PUSH2 0x285E JUMP JUMPDEST PUSH1 0x40 DUP3 ADD SWAP1 POP SWAP2 SWAP1 POP JUMP JUMPDEST PUSH1 0x0 PUSH1 0x20 DUP3 ADD SWAP1 POP DUP2 DUP2 SUB PUSH1 0x0 DUP4 ADD MSTORE PUSH2 0x28E9 DUP2 PUSH2 0x28AD JUMP JUMPDEST SWAP1 POP SWAP2 SWAP1 POP JUMP JUMPDEST PUSH1 0x0 PUSH1 0x80 DUP3 ADD SWAP1 POP PUSH2 0x2905 PUSH1 0x0 DUP4 ADD DUP8 PUSH2 0x1C0D JUMP JUMPDEST PUSH2 0x2912 PUSH1 0x20 DUP4 ADD DUP7 PUSH2 0x1C0D JUMP JUMPDEST PUSH2 0x291F PUSH1 0x40 DUP4 ADD DUP6 PUSH2 0x1CA3 JUMP JUMPDEST DUP2 DUP2 SUB PUSH1 0x60 DUP4 ADD MSTORE PUSH2 0x2931 DUP2 DUP5 PUSH2 0x1DEE JUMP JUMPDEST SWAP1 POP SWAP6 SWAP5 POP POP POP POP POP JUMP JUMPDEST PUSH1 0x0 DUP2 MLOAD SWAP1 POP PUSH2 0x294B DUP2 PUSH2 0x1A37 JUMP JUMPDEST SWAP3 SWAP2 POP POP JUMP JUMPDEST PUSH1 0x0 PUSH1 0x20 DUP3 DUP5 SUB SLT ISZERO PUSH2 0x2967 JUMPI PUSH2 0x2966 PUSH2 0x1A01 JUMP JUMPDEST JUMPDEST PUSH1 0x0 PUSH2 0x2975 DUP5 DUP3 DUP6 ADD PUSH2 0x293C JUMP JUMPDEST SWAP2 POP POP SWAP3 SWAP2 POP POP JUMP JUMPDEST PUSH32 0x4552433732313A206D696E7420746F20746865207A65726F2061646472657373 PUSH1 0x0 DUP3 ADD MSTORE POP JUMP JUMPDEST PUSH1 0x0 PUSH2 0x29B4 PUSH1 0x20 DUP4 PUSH2 0x1AD1 JUMP JUMPDEST SWAP2 POP PUSH2 0x29BF DUP3 PUSH2 0x297E JUMP JUMPDEST PUSH1 0x20 DUP3 ADD SWAP1 POP SWAP2 SWAP1 POP JUMP JUMPDEST PUSH1 0x0 PUSH1 0x20 DUP3 ADD SWAP1 POP DUP2 DUP2 SUB PUSH1 0x0 DUP4 ADD MSTORE PUSH2 0x29E3 DUP2 PUSH2 0x29A7 JUMP JUMPDEST SWAP1 POP SWAP2 SWAP1 POP JUMP JUMPDEST PUSH32 0x4552433732313A20746F6B656E20616C7265616479206D696E74656400000000 PUSH1 0x0 DUP3 ADD MSTORE POP JUMP JUMPDEST PUSH1 0x0 PUSH2 0x2A20 PUSH1 0x1C DUP4 PUSH2 0x1AD1 JUMP JUMPDEST SWAP2 POP PUSH2 0x2A2B DUP3 PUSH2 0x29EA JUMP JUMPDEST PUSH1 0x20 DUP3 ADD SWAP1 POP SWAP2 SWAP1 POP JUMP JUMPDEST PUSH1 0x0 PUSH1 0x20 DUP3 ADD SWAP1 POP DUP2 DUP2 SUB PUSH1 0x0 DUP4 ADD MSTORE PUSH2 0x2A4F DUP2 PUSH2 0x2A13 JUMP JUMPDEST SWAP1 POP SWAP2 SWAP1 POP JUMP INVALID LOG2 PUSH5 0x6970667358 0x22 SLT KECCAK256 ADDMOD PUSH31 0x2AB80DCCE59B90BBCB4AB728FD3674E2BFA7C7679AAFF5C4AE08815E1E764 PUSH20 0x6F6C6343000812003368747470733A2F2F697066 PUSH20 0x2E696F2F697066732F516D52384C7A79786E6244 CALLVALUE ORIGIN CHAINID PUSH12 0x555650757A5457794E7A6933 PUSH4 0x4E344271 CALLVALUE CALLDATACOPY PUSH15 0x68626F53677935624B77562F737461 PUSH21 0x655F322E6A706768747470733A2F2F697066732E69 PUSH16 0x2F697066732F516D52384C7A79786E62 PREVRANDAO CALLVALUE ORIGIN CHAINID PUSH12 0x555650757A5457794E7A6933 PUSH4 0x4E344271 CALLVALUE CALLDATACOPY PUSH15 0x68626F53677935624B77562F737461 PUSH21 0x655F302E6A706768747470733A2F2F697066732E69 PUSH16 0x2F697066732F516D52384C7A79786E62 PREVRANDAO CALLVALUE ORIGIN CHAINID PUSH12 0x555650757A5457794E7A6933 PUSH4 0x4E344271 CALLVALUE CALLDATACOPY PUSH15 0x68626F53677935624B77562F737461 PUSH21 0x655F312E6A70670000000000000000000000000000 "
		},
		"gasEstimates": {
			"creation": {
				"codeDepositCost": "2178400",
				"executionCost": "infinite",
				"totalCost": "infinite"
			},
			"external": {
				"approve(address,uint256)": "infinite",
				"balanceOf(address)": "2943",
				"checkUpkeep(bytes)": "infinite",
				"counter()": "2562",
				"gerUriById(uint256)": "infinite",
				"getApproved(uint256)": "5300",
				"getNFTStaus(uint256)": "infinite",
				"interval()": "infinite",
				"isApprovedForAll(address,address)": "infinite",
				"lastTimeStamp()": "2496",
				"name()": "infinite",
				"ownerOf(uint256)": "3022",
				"performUpkeep(bytes)": "infinite",
				"safeMint(address,string)": "infinite",
				"safeTransferFrom(address,address,uint256)": "infinite",
				"safeTransferFrom(address,address,uint256,bytes)": "infinite",
				"setApprovalForAll(address,bool)": "infinite",
				"supportsInterface(bytes4)": "797",
				"symbol()": "infinite",
				"tokenURI(uint256)": "infinite",
				"transferFrom(address,address,uint256)": "infinite",
				"updateAllStatus()": "infinite",
				"updateStatus(uint256)": "infinite"
			},
			"internal": {
				"_burn(uint256)": "infinite"
			}
		},
		"methodIdentifiers": {
			"approve(address,uint256)": "095ea7b3",
			"balanceOf(address)": "70a08231",
			"checkUpkeep(bytes)": "6e04ff0d",
			"counter()": "61bc221a",
			"gerUriById(uint256)": "997e97ee",
			"getApproved(uint256)": "081812fc",
			"getNFTStaus(uint256)": "18661731",
			"interval()": "947a36fb",
			"isApprovedForAll(address,address)": "e985e9c5",
			"lastTimeStamp()": "3f3b3b27",
			"name()": "06fdde03",
			"ownerOf(uint256)": "6352211e",
			"performUpkeep(bytes)": "4585e33b",
			"safeMint(address,string)": "d204c45e",
			"safeTransferFrom(address,address,uint256)": "42842e0e",
			"safeTransferFrom(address,address,uint256,bytes)": "b88d4fde",
			"setApprovalForAll(address,bool)": "a22cb465",
			"supportsInterface(bytes4)": "01ffc9a7",
			"symbol()": "95d89b41",
			"tokenURI(uint256)": "c87b56dd",
			"transferFrom(address,address,uint256)": "23b872dd",
			"updateAllStatus()": "2074d35c",
			"updateStatus(uint256)": "d61e7201"
		}
	},
	"abi": [
		{
			"inputs": [
				{
					"internalType": "uint256",
					"name": "_interval",
					"type": "uint256"
				}
			],
			"stateMutability": "nonpayable",
			"type": "constructor"
		},
		{
			"anonymous": false,
			"inputs": [
				{
					"indexed": true,
					"internalType": "address",
					"name": "owner",
					"type": "address"
				},
				{
					"indexed": true,
					"internalType": "address",
					"name": "approved",
					"type": "address"
				},
				{
					"indexed": true,
					"internalType": "uint256",
					"name": "tokenId",
					"type": "uint256"
				}
			],
			"name": "Approval",
			"type": "event"
		},
		{
			"anonymous": false,
			"inputs": [
				{
					"indexed": true,
					"internalType": "address",
					"name": "owner",
					"type": "address"
				},
				{
					"indexed": true,
					"internalType": "address",
					"name": "operator",
					"type": "address"
				},
				{
					"indexed": false,
					"internalType": "bool",
					"name": "approved",
					"type": "bool"
				}
			],
			"name": "ApprovalForAll",
			"type": "event"
		},
		{
			"anonymous": false,
			"inputs": [
				{
					"indexed": true,
					"internalType": "address",
					"name": "from",
					"type": "address"
				},
				{
					"indexed": true,
					"internalType": "address",
					"name": "to",
					"type": "address"
				},
				{
					"indexed": true,
					"internalType": "uint256",
					"name": "tokenId",
					"type": "uint256"
				}
			],
			"name": "Transfer",
			"type": "event"
		},
		{
			"inputs": [
				{
					"internalType": "address",
					"name": "to",
					"type": "address"
				},
				{
					"internalType": "uint256",
					"name": "tokenId",
					"type": "uint256"
				}
			],
			"name": "approve",
			"outputs": [],
			"stateMutability": "nonpayable",
			"type": "function"
		},
		{
			"inputs": [
				{
					"internalType": "address",
					"name": "owner",
					"type": "address"
				}
			],
			"name": "balanceOf",
			"outputs": [
				{
					"internalType": "uint256",
					"name": "",
					"type": "uint256"
				}
			],
			"stateMutability": "view",
			"type": "function"
		},
		{
			"inputs": [
				{
					"internalType": "bytes",
					"name": "",
					"type": "bytes"
				}
			],
			"name": "checkUpkeep",
			"outputs": [
				{
					"internalType": "bool",
					"name": "upkeepNeeded",
					"type": "bool"
				},
				{
					"internalType": "bytes",
					"name": "",
					"type": "bytes"
				}
			],
			"stateMutability": "view",
			"type": "function"
		},
		{
			"inputs": [],
			"name": "counter",
			"outputs": [
				{
					"internalType": "uint256",
					"name": "",
					"type": "uint256"
				}
			],
			"stateMutability": "view",
			"type": "function"
		},
		{
			"inputs": [
				{
					"internalType": "uint256",
					"name": "_tokenId",
					"type": "uint256"
				}
			],
			"name": "gerUriById",
			"outputs": [
				{
					"internalType": "string",
					"name": "",
					"type": "string"
				}
			],
			"stateMutability": "view",
			"type": "function"
		},
		{
			"inputs": [
				{
					"internalType": "uint256",
					"name": "tokenId",
					"type": "uint256"
				}
			],
			"name": "getApproved",
			"outputs": [
				{
					"internalType": "address",
					"name": "",
					"type": "address"
				}
			],
			"stateMutability": "view",
			"type": "function"
		},
		{
			"inputs": [
				{
					"internalType": "uint256",
					"name": "_tokenId",
					"type": "uint256"
				}
			],
			"name": "getNFTStaus",
			"outputs": [
				{
					"internalType": "uint256",
					"name": "",
					"type": "uint256"
				}
			],
			"stateMutability": "view",
			"type": "function"
		},
		{
			"inputs": [],
			"name": "interval",
			"outputs": [
				{
					"internalType": "uint256",
					"name": "",
					"type": "uint256"
				}
			],
			"stateMutability": "view",
			"type": "function"
		},
		{
			"inputs": [
				{
					"internalType": "address",
					"name": "owner",
					"type": "address"
				},
				{
					"internalType": "address",
					"name": "operator",
					"type": "address"
				}
			],
			"name": "isApprovedForAll",
			"outputs": [
				{
					"internalType": "bool",
					"name": "",
					"type": "bool"
				}
			],
			"stateMutability": "view",
			"type": "function"
		},
		{
			"inputs": [],
			"name": "lastTimeStamp",
			"outputs": [
				{
					"internalType": "uint256",
					"name": "",
					"type": "uint256"
				}
			],
			"stateMutability": "view",
			"type": "function"
		},
		{
			"inputs": [],
			"name": "name",
			"outputs": [
				{
					"internalType": "string",
					"name": "",
					"type": "string"
				}
			],
			"stateMutability": "view",
			"type": "function"
		},
		{
			"inputs": [
				{
					"internalType": "uint256",
					"name": "tokenId",
					"type": "uint256"
				}
			],
			"name": "ownerOf",
			"outputs": [
				{
					"internalType": "address",
					"name": "",
					"type": "address"
				}
			],
			"stateMutability": "view",
			"type": "function"
		},
		{
			"inputs": [
				{
					"internalType": "bytes",
					"name": "",
					"type": "bytes"
				}
			],
			"name": "performUpkeep",
			"outputs": [],
			"stateMutability": "nonpayable",
			"type": "function"
		},
		{
			"inputs": [
				{
					"internalType": "address",
					"name": "to",
					"type": "address"
				},
				{
					"internalType": "string",
					"name": "",
					"type": "string"
				}
			],
			"name": "safeMint",
			"outputs": [],
			"stateMutability": "nonpayable",
			"type": "function"
		},
		{
			"inputs": [
				{
					"internalType": "address",
					"name": "from",
					"type": "address"
				},
				{
					"internalType": "address",
					"name": "to",
					"type": "address"
				},
				{
					"internalType": "uint256",
					"name": "tokenId",
					"type": "uint256"
				}
			],
			"name": "safeTransferFrom",
			"outputs": [],
			"stateMutability": "nonpayable",
			"type": "function"
		},
		{
			"inputs": [
				{
					"internalType": "address",
					"name": "from",
					"type": "address"
				},
				{
					"internalType": "address",
					"name": "to",
					"type": "address"
				},
				{
					"internalType": "uint256",
					"name": "tokenId",
					"type": "uint256"
				},
				{
					"internalType": "bytes",
					"name": "data",
					"type": "bytes"
				}
			],
			"name": "safeTransferFrom",
			"outputs": [],
			"stateMutability": "nonpayable",
			"type": "function"
		},
		{
			"inputs": [
				{
					"internalType": "address",
					"name": "operator",
					"type": "address"
				},
				{
					"internalType": "bool",
					"name": "approved",
					"type": "bool"
				}
			],
			"name": "setApprovalForAll",
			"outputs": [],
			"stateMutability": "nonpayable",
			"type": "function"
		},
		{
			"inputs": [
				{
					"internalType": "bytes4",
					"name": "interfaceId",
					"type": "bytes4"
				}
			],
			"name": "supportsInterface",
			"outputs": [
				{
					"internalType": "bool",
					"name": "",
					"type": "bool"
				}
			],
			"stateMutability": "view",
			"type": "function"
		},
		{
			"inputs": [],
			"name": "symbol",
			"outputs": [
				{
					"internalType": "string",
					"name": "",
					"type": "string"
				}
			],
			"stateMutability": "view",
			"type": "function"
		},
		{
			"inputs": [
				{
					"internalType": "uint256",
					"name": "_tokenId",
					"type": "uint256"
				}
			],
			"name": "tokenURI",
			"outputs": [
				{
					"internalType": "string",
					"name": "",
					"type": "string"
				}
			],
			"stateMutability": "view",
			"type": "function"
		},
		{
			"inputs": [
				{
					"internalType": "address",
					"name": "from",
					"type": "address"
				},
				{
					"internalType": "address",
					"name": "to",
					"type": "address"
				},
				{
					"internalType": "uint256",
					"name": "tokenId",
					"type": "uint256"
				}
			],
			"name": "transferFrom",
			"outputs": [],
			"stateMutability": "nonpayable",
			"type": "function"
		},
		{
			"inputs": [],
			"name": "updateAllStatus",
			"outputs": [],
			"stateMutability": "nonpayable",
			"type": "function"
		},
		{
			"inputs": [
				{
					"internalType": "uint256",
					"name": "_tokenId",
					"type": "uint256"
				}
			],
			"name": "updateStatus",
			"outputs": [],
			"stateMutability": "nonpayable",
			"type": "function"
		}
	]
}